:10000000DAC400000C94BF1AFEC40000FCC4000057
:10001000FAC40000F8C40000F6C40000F4C40000F4
:10002000F2C40000F0C40000EEC40000ECC4000004
:10003000EAC40000E8C400000C94AA17E4C400005D
:10004000E2C40000E0C400000C9447160C9475163E
:10005000DAC40000D8C40000D6C40000D4C4000034
:10006000D2C40000D0C40000400D5B0D6A0DA00D8D
:10007000D70D090E240E310FFF0E3A10D80E3A108C
:100080000C0F5A0FB60F3A102910084AD73B3BCE37
:10009000016E84BCBFFDC12F3D6C74319ABD568387
:1000A0003DDA3D00C77F11BED9E4BB4C3E916BAA3F
:1000B000AABE000000803F05A84CCDB2D44EB9388E
:1000C00036A9020C50B9918688083CA6AAAA2ABE75
:1000D000000000803F0664EC1B3C04BC163E3BE580
:1000E000B93CC93C37C29E5A3D660498083EEA694D
:1000F000AAAA3E000000803F6E616E00696E660035
:10010000496E76616C696420636F6D6D616E640029
:10011000202D2000253033753A200050414E454CAB
:10012000533A0D0A004D4F44554C45533A20005662
:10013000455253494F4E3A20253034750D0A00413F
:100140007267733A2064202D2064756D702C2072C4
:10015000202D20726561642C2077202D2077726914
:1001600074652C2073202D207365742C2067202D3E
:100170002067657400417267733A203C627C697C39
:10018000777C6C7C663E203C616464723E00256630
:10019000002575002569002575004D617820616492
:1001A000647220257500417267733A203C627C6955
:1001B0007C777C6C7C663E203C616464723E203CB3
:1001C00076616C75653E004D6178206164647220D3
:1001D000257500253032782000253034783A20000B
:1001E000526573657420746F2064656661756C7404
:1001F000732E2E2E2000417267733A2075202D2019
:1002000075706C6F61642C2064202D20646F776E94
:100210006C6F61640053656E64204D434D2D6669BB
:100220006C650D0A004D4158373435360D0A0055BE
:10023000706C6F616420616E6420646F776E6C6FA8
:100240006164206D636D2D66696C6500666F6E7408
:100250000052657365742073657474696E677320EA
:10026000746F2064656661756C7473007265736584
:100270007400526561642F7772697465204545503A
:10028000524F4D2C206765742F7365742076616C16
:1002900075657300656570726F6D004669726D7784
:1002A0006172652076657273696F6E2C206D6F6464
:1002B000756C65732C2070616E656C7300696E6679
:1002C0006F00436F6D6D616E6473206C69737400B1
:1002D00068656C70004578697420636F6E736F6C2D
:1002E000650065786974005265626F6F74204F53C2
:1002F00044007265626F6F7400446F6E652E0D0A64
:10030000004C022F02160A6C025102AB08940272D2
:1003100002DD0BBD029B02B508D002C2028E08E2CC
:1003200002D5027F08F202E702820800070E091CCC
:100330001B1215383F363124232A2D70777E796CB5
:100340006B6265484F464154535A5DE0E7EEE9FC65
:10035000FBF2F5D8DFD6D1C4C3CACD90979E998C55
:100360008B8285A8AFA6A1B4B3BABDC7C0C9CEDB86
:10037000DCD5D2FFF8F1F6E3E4EDEAB7B0B9BEABF5
:10038000ACA5A28F88818693949D9A2720292E3B25
:100390003C35321F18111603040D0A5750595E4B95
:1003A0004C45426F68616673747D7A898E8780954B
:1003B000929B9CB1B6BFB8ADAAA3A4F9FEF7F0E535
:1003C000E2EBECC1C6CFC8DDDAD3D4696E676075E5
:1003D000727B7C51565F584D4A4344191E171005D5
:1003E000020B0C21262F283D3A33344E4940475208
:1003F000555C5B7671787F6A6D64633E3930372275
:10040000252C2B0601080F1A1D1413AEA9A0A7B2A4
:10041000B5BCBB9691989F8A8D8483DED9D0D7C214
:10042000C5CCCBE6E1E8EFFAFDF4F39D0498049324
:10043000048E04890484047F047A04750470046BB8
:1004400004660461045C04570452044D04414352A1
:100450005500504F492000504C414E004C414E44F5
:100460000052544820005056414E005056414C0016
:10047000505641460050484C44004154554E00539C
:1004800054423600535442350053544234005354BE
:10049000423300535442320053544231004D414ED6
:1004A0005500542DFFC5FCFEBF40A4009BBA5ABBAB
:1004B00037670ADCD1CA64D9E0D7982C1A16E6A6A9
:1004C000267D848047D45474C50B52239626A60EED
:1004D00012486EDC856158B6FD4A52EA808AFCFEFD
:1004E000BF40EC39766B5ABB37670ADCD1CA64D996
:1004F000E0D7982C1A16E6A6267D848047D454743B
:10050000C50B52239626A60E12486EDC856158B69E
:10051000FD4A414443426174746572790041444329
:10052000525353490055415654616C6B001205D229
:1005300010F71033111D0503151B153D15250586F4
:100540000E6F0EAD0E424F4F540D0A004D756C7478
:10055000694F534420762E253034750D0A00FC2057
:10056000434F4E46494700082008006F736423201C
:10057000000D0A0004000003030016140102180015
:1005800007010600010806010A05010D0E160EFFFF
:10059000FFFF0400000303001407011615010218F1
:1005A000000001080B080605010D12010E0E160EC3
:1005B000FFFFFF0801010908010A130104000203FB
:1005C00003021615030218020701060B08060C1792
:1005D000060D010800170806010A01170A05010D9A
:1005E00017090C12010E13080E0E160C0F160D1023
:1005F000160EFFFFFFFD252E31668A0025758D0042
:10060000252E31668B002553000909098D004552BE
:100610005200FB25758200FA252E32668F00252EAA
:1006200032668E008025648100872564252500843C
:100630002530322E366600832530322E3666004550
:10064000525200101100256400B12564B000B2259B
:1006500064B000B3253032753A253032750009098F
:100660000909002563252E31668C008525648D00DF
:10067000D8D9DADBDCDDDEDFD0D1D2D3D4D5D6D702
:10068000537461626C65416C7400436C696D620007
:10069000466C696768744D6F64650041726D65648E
:1006A000466C616700436F6E537461746500466CFD
:1006B0006967687454696D6500526F6C6C005069AD
:1006C00074636800475053004C6174004C6F6E00B7
:1006D000C8202020202020202020202020C900B851
:1006E000202020202020202020202020B900486F1A
:1006F00072697A6F6E005468726F74746C6500472B
:10070000726F756E64537065656400426174566FF4
:100710006C746167650042617443757272656E74D2
:1007200000426174436F6E73756D6564005253537C
:1007300049466C616700486F6D6544697374616E0A
:10074000636500486F6D65446972656374696F6EB7
:100750000043616C6C5369676E0054656D7065721F
:10076000617475726500860782077E077A077607CF
:100770007207E2E3E400E2E3E700E2E3E800E2E636
:10078000E800E2E8E800E5E8E8005253534900C217
:10079000C0C1C0C4C0C1C0C3C0C1C0C5C0C1C043C6
:1007A0006F6D70617373008006CD1B7F1B8A0676A8
:1007B0001D831B90067A1B3F209B067B1B5D20A59B
:1007C000067C1B7A20AE06F11B871BB906141C8B16
:1007D0001BBE06371C8F1BC4065A1C361FC8067A60
:1007E0001C931BCC069E1C971BEE069F209B1BF6A2
:1007F00006C21CB51BFF06E21CB91B0B07C61D6217
:100800001E16070B1DBD1B21072F1DC11B2D077DAC
:100810001B6E1F3607B31E741E4307981E761F51AA
:10082000077E1BC51B5A07521DC91B8A07031E5C86
:100830001E9F072A1E861E636F6E666967005245FB
:100840004144590D0A0053656E642022636F6E6641
:10085000696722206F7220776169742025757300A3
:10086000FC206D6F64756C65733A00BDBEBF004DB2
:10087000756C74694F534420762E25303475000012
:10088000407A10F35A00A0724E18090010A5D4E85F
:100890000000E87648170000E40B54020000CA9AF2
:1008A0003B000000E1F50500008096980000004044
:1008B000420F000000A08601000000102700000089
:1008C00000E803000000006400000000000A0000CF
:1008D0000000000100000000002C76D888DC674F83
:1008E0000823DFC1DFAE59E1B1B796E5E3E453C6B3
:1008F0003AE651997696E8E6C28426EB898C9B62AB
:10090000ED407C6FFCEFBC9C9F40F2BAA56FA5F454
:1009100090055A2AF75C936B6CF9676DC11BFCE07C
:10092000E40D47FEF520E6B500D0ED902E030094CF
:100930003577050080841E080000204E0A00000064
:10094000C80C333333330F986E12831141EF8D216E
:1009500014893BE65516CFFEE6DB18D1844B381BD5
:10096000F77C1D901DA4BBE424203284725E22819A
:1009700000C9F124ECA1E53D274E414E494E4954B2
:1009800059494E46CDCCCC3D0AD7233C17B7D13878
:1009900077CC2B329595E6241FB14F0A00002041F9
:1009A0000000C84200401C4620BCBE4CCA1B0E5A68
:1009B000AEC59D74BA1011241FBECFEFD8E0DEBFC4
:1009C000CDBF11E0A0E0B1E0E2E1F6E502C00590A4
:1009D0000D92A831B107D9F725E0A8E1B1E001C037
:1009E0001D92AB32B207E1F719E0C6EBD9E004C0C3
:1009F0002297FE010E94A722C43BD107C9F70E949B
:100A0000BB150C94072BFCCAA3E1B0E0EAE0F5E0CB
:100A10000C94AB227C011B016A01FC011782168237
:100A2000838181FF66C3BE016F5F7F4F4B01F7017A
:100A30009381F10193FD859193FF81911F0188239B
:100A400009F453C3853239F493FD859193FF819165
:100A50001F01853239F4B70190E00E945C285601ED
:100A60006501E5CF10E0512C20E02032A0F48B325C
:100A700069F030F4803259F0833269F420612CC07F
:100A80008D3239F0803339F4216026C02260246031
:100A900023C0286021C027FD27C030ED380F3A3031
:100AA00078F426FF06C0FAE01F9F300D1124132FA3
:100AB00013C06AE0569E300D1124532E20620CC0E4
:100AC0008E3221F426FD11C3206406C08C3611F449
:100AD000206802C0883641F4F10193FD859193FFAF
:100AE00081911F018111C1CF9BEB980F933018F4B6
:100AF0002061805E06C09BE9980F933008F0AAC180
:100B00002F7E26FF16E02F73722E853621F4F22FEA
:100B1000F0647F2E08C0863621F4622F6068762E3E
:100B200002C01111115077FE07C01C3348F4442451
:100B30004394410E27E00BC0183030F4212F06C03B
:100B400027E04CE3442E03C027E017E0412C560178
:100B500074E0A70EB11CF6016081718182819381DE
:100B6000042DA4010E94D3266C01098100FF02C05C
:100B700003FF06C071FC07C072FC08C0612C08C0EE
:100B80003DE2632E05C02BE2622E02C090E2692E88
:100B9000802F8C7099F1662011F084E001C083E011
:100BA000851510F0512C0BC0581A73FC08C0B70102
:100BB00080E290E00E945C285A94C9F7F3CF662047
:100BC00029F0B701862D90E00E945C2803FD03C048
:100BD0000CEF10E002C008EF10E0F72DF0717F2E4F
:100BE000F8018491882309F476C271108052B7010C
:100BF00090E00E945C280F5F1F4FF2CF77FE0FC07E
:100C00004C0C04FF04C08A81813309F44A94141403
:100C100074F5F8E0F41578F588E0482E2CC076FCE1
:100C20002AC0812F90E08C159D059CF06CEFC616B4
:100C30006FEFD60674F0772D7068772E0AC0E2E069
:100C4000F0E0EC0FFD1FE10FF11D8081803319F4FE
:100C500011501111F4CF77FE0EC044244394410E7D
:100C6000812F90E0C816D9062CF41C1904C0442426
:100C7000439401C010E077FE07C01C141D043CF42F
:100C800096012F5F3F4F05C025E030E002C021E014
:100C900030E0662011F02F5F3F4F112331F0412FDC
:100CA00050E04F5F5F4F240F351F452D50E0241754
:100CB000350714F4521A01C0512C872D897049F45C
:100CC000552039F0B70180E290E00E945C285A94E8
:100CD000F7CF662029F0B701862D90E00E945C28AE
:100CE00073FC09C0552039F0B70180E390E00E9401
:100CF0005C285A94F7CF77FE5FC09C2D8D2DD7FED0
:100D000002C090E080E0692E782E40E050E0C601FD
:100D1000841991099D878C87960126193709280D1A
:100D2000391D812F90E0EE27FF27E81BF90BFF8785
:100D3000EE87FFEF6F167F0669F4B7018EE290E051
:100D40002B8B3A8B488B598B0E945C285989488998
:100D50003A892B89C614D70454F06C857D856615B5
:100D600077052CF4F901E40FF51F818101C080E3C0
:100D700071E0671A71084F5F5F4FEE85FF856E1651
:100D80007F066CF0B70190E02B8B3A8B488B598B28
:100D90000E945C282B893A8948895989CACF6C14EA
:100DA0007D0439F49A81963318F4953311F404FFD5
:100DB00081E3B70190E04BC08A81813309F00F7E57
:100DC000B70190E00E945C28111105C074FE18C0A4
:100DD00085E490E017C0B7018EE290E00E945C28A5
:100DE00082E066246394680EF401E80FF11D8081AF
:100DF000B70190E00E945C28115041F3862DF1CF9D
:100E000085E690E0B7010E945C28D7FC05C0C114BC
:100E1000D10439F404FF05C0D194C194D1088DE206
:100E200001C08BE2B70190E00E945C2880E36AE099
:100E3000C616D1042CF08F5FFAE0CF1AD108F7CF95
:100E4000B70190E00E945C28B701C601C0960E94DD
:100E50005C2841C1833631F0833779F0833509F05E
:100E600058C021C0560172E0A70EB11CF601808166
:100E7000898301E010E0640114C05601F2E0AF0E76
:100E8000B11CF601C080D18026FF03C0612F70E045
:100E900002C06FEF7FEFC6012B8B0E94EC278C0105
:100EA0002B892F7715C05601F2E0AF0EB11CF60169
:100EB000C080D18026FF03C0612F70E002C06FEFB9
:100EC0007FEFC6012B8B0E94DA278C012B892068CB
:100ED000722E23FD1AC0852D90E008171907A8F47B
:100EE000B70180E290E00E945C285A94F4CFF601AA
:100EF00077FC859177FE81916F01B70190E00E94A8
:100F00005C2851105A94015011090115110579F707
:100F1000E2C0843611F0893651F5560127FF09C029
:100F2000F4E0AF0EB11CF601608171818281938182
:100F30000AC0F2E0AF0EB11CF60160817181882712
:100F400077FD8095982F022F0F7697FF08C0909518
:100F50008095709561957F4F8F4F9F4F00682AE075
:100F600030E0A4010E94BC28C82EC8183EC0022F41
:100F7000853721F40F7E2AE030E01DC0097F8F36CF
:100F800091F018F4883559F0B0C0803719F08837DF
:100F900011F0ABC0006104FF09C0046007C024FF6A
:100FA00008C0066006C028E030E005C020E130E05F
:100FB00002C020E132E0560107FF09C0F4E0AF0EA5
:100FC000B11CF601608171818281938108C0F2E0D9
:100FD000AF0EB11CF6016081718180E090E0A40148
:100FE0000E94BC28C82EC8180F7706FF0BC0202F00
:100FF0002E7FC11650F404FF0AC002FD08C0202F46
:101000002E7E05C0DC2C202F03C0DC2C01C0D12E8D
:1010100024FF0DC0FE01EC0DF11D8081803311F421
:10102000297E09C022FF06C0D394D39404C0822F26
:10103000867809F0D39423FD13C020FF06C01C2D31
:10104000D51418F4150D1D19D52CD51468F4B70155
:1010500080E290E02B8B0E945C28D3942B89F5CF03
:10106000D51410F45D1801C0512C24FF12C0B70133
:1010700080E390E02B8B0E945C282B8922FF17C015
:1010800021FF03C088E590E002C088E790E0B70147
:101090000CC0822F867859F021FD02C080E201C089
:1010A0008BE227FD8DE2B70190E00E945C28C1161B
:1010B00038F4B70180E390E00E945C281150F7CF2C
:1010C000CA94F401EC0DF11D8081B70190E00E94FB
:1010D0005C28C110F5CF552009F4C2CCB70180E2DD
:1010E00090E00E945C285A94F6CFF70186819781A0
:1010F00002C08FEF9FEF6396E2E10C94C72210923B
:10110000E80208952CE088E190E00FB6F894A895E5
:10111000809360000FBE20936000FFCFCF93DF93DA
:10112000C1E0D3E0FE01859194910E940E1780E109
:1011300091E00E940E17FE013296859194910E94D3
:101140000E170E94C015269683E0CB32D80751F7C0
:10115000DF91CF91089580EE91E00E940E170E94DA
:101160003E2289EF92E00C940E17BF92CF92DF924D
:10117000EF92FF920F931F93CF93DF931F9287E01D
:101180008F938FE291E09F938F938CE093E09F93F6
:101190008F930E94432885E291E00E940E170F90E2
:1011A0000F900F900F900F900F90C0E0D09116010C
:1011B000CD1778F488E0C89FF0011124E35DFA4F61
:1011C000859194910E940E1780E20E94EA16CF5FEB
:1011D000EFCF0E94C0158BE191E00E940E17D12C39
:1011E000B0901701C4E1D1E00CE013E086E0C82E16
:1011F000DB14F8F4ED2CF12C1F92DF92DF93CF93E8
:101200001F930F930E944328CE9CF001CF9CF00DBA
:101210001124E955F84F859194910E940E170E9470
:10122000C015D3940F900F900F900F900F900F90C8
:10123000DFCFDF91CF911F910F91FF90EF90DF9063
:10124000CF90BF9008950E94CB169C012227232B9C
:10125000D1F70895EF92FF920F931F93CF93DF93EF
:101260000091FB0308500E94F518C0E0D0E0EC2E7E
:10127000FC2EF29490EFF92210E0412F4F2920E04C
:101280006E2D802F810F0E9402191F5F1031A9F768
:101290002196C031D10559F7DF91CF911F910F9160
:1012A000FF90EF9008950F931F93CF93DF93C0E0CB
:1012B000D0E0082F10E0C8010C2E02C0959587954C
:1012C0000A94E2F780FF02C081E301C080E30E943C
:1012D000EA162196C830D10571F7DF91CF911F91A1
:1012E0000F910C94C015CF92DF92EF92FF920F9363
:1012F0001F93CF93DF93CDB7DEB7E6970FB6F89481
:10130000DEBF0FBECDBFA6DF85E292E00E940E17C2
:1013100000E010E06E0187E3C80ED11CBE016F5FD4
:101320007F4F802F0E94A818FE0131967F01F701A0
:1013300081917F01B8DFEC14FD04C9F72AE0F22E99
:1013400080E0B1DFFA94E1F70F5F1F4F0115F1E084
:101350001F0721F7E6960FB6F894DEBF0FBECDBF8C
:10136000DF91CF911F910F91FF90EF90DF90CF9081
:101370000895CF93DF93D8E0C0E065DF8170CC0F94
:10138000C82BD150D1F75FDF5EDF8C2FDF91CF917B
:101390000895CF92DF92EF92FF920F931F93CF9316
:1013A000DF93CDB7DEB7E6970FB6F894DEBF0FBE7A
:1013B000CDBF50DF85E192E00E940E1719E043DFB8
:1013C0001150E9F700E010E06E0187E3C80ED11C70
:1013D000CE0101967C01CDDFF70181937F01EC15F1
:1013E000FD05C9F73AE0F32EC4DFFA94E9F7BE0130
:1013F0006F5F7F4F802F0E946F180F5F1F4F011587
:10140000F1E01F0729F789EF92E00E940E17E69698
:101410000FB6F894DEBF0FBECDBFDF91CF911F9105
:101420000F91FF90EF90DF90CF90089560E070E013
:1014300081E00E94CA15009771F0FC01808185351A
:1014400041F018F4843431F00895843619F085376A
:1014500031F49FCF48CF86EF91E00C940E1708959A
:101460008F929F92AF92BF92CF92DF92EF92FF92B4
:101470000F931F93CF93DF93C0E0D0E059EDA52EDB
:1014800051E0B52E0CE013E063ED862E61E0962E60
:101490006E0144E0CC0CDD1C4A95E1F7DF92CF925F
:1014A000BF92AF921F930F930E9443280F900F900B
:1014B0000F900F900F900F90E12CF12CC7018C2909
:1014C0009D290E942A291F928F939F928F921F938A
:1014D0000F930E9443288FEFE81AF80A0F900F909D
:1014E0000F900F900F900F9080E1E816F10431F704
:1014F0000E94C0152196C034D10551F6DF91CF91DD
:101500001F910F91FF90EF90DF90CF90BF90AF9021
:101510009F908F900895CF93DF93C0E0D0E0CE01ED
:101520000E942A290E94EA162196C11584E0D80754
:10153000B1F7DF91CF910895CF93DF93C0E0D0E072
:1015400082DE682FCE010E944B292196C11584E0CE
:10155000D807B1F7DF91CF9108950F931F93CF93E1
:10156000DF9360E070E083E00E94CA15EC0160E068
:1015700070E084E00E94CA158C01209709F477C0BE
:10158000009709F474C0CE010E949026EC01C115A9
:1015900084E0D807C0F084E08F931F9287EC91E03D
:1015A0009F938F938CE093E09F938F930E944328A7
:1015B0000F900F900F900F900F900F90DF91CF91A1
:1015C0001F910F91089560E070E082E00E94CA15BB
:1015D000FC018081873549F158F48634E1F118F433
:1015E000823499F044C08934D9F08C3441F13FC041
:1015F0008936B1F028F4823641F0863661F137C081
:101600008C36E9F0873789F032C0C8010E949026F5
:10161000682FCE01DF91CF911F910F910C944B2930
:10162000C8010E949026BC0103C0C8010E94AD26DB
:10163000CE01DF91CF911F910F910C946529C801C4
:101640000E94AD26AB01BC01CE01DF91CF911F916D
:101650000F910C945D29C8010E948D26AB01BC013D
:10166000CE01DF91CF911F910F910C945D2986EAF5
:1016700091E0DF91CF911F910F910C940E170F9372
:101680001F93CF93DF93CDB7DEB72D970FB6F894A6
:10169000DEBF0FBECDBF60E070E083E00E94CA15E0
:1016A000009709F47BC00E9490268C01011584E00C
:1016B000180730F084E08F931F928AE991E02AC0E6
:1016C00060E070E082E00E94CA15FC0180818735ED
:1016D000C1F160F4863409F44AC018F4823499F0F8
:1016E0005DC0893431F18C34A1F158C0893609F1DB
:1016F00028F4823641F08636D1F150C08C3649F15B
:101700008737F9F04BC0C8010E942A291F928F9396
:1017100087E991E09F938F938CE093E09F938F9361
:101720000E9443280F900F900F900F900F900F90F2
:1017300039C0C8010E9437299F938F9384E991E0B3
:10174000E9CFC8010E9437299F938F9381E991E0E7
:10175000E1CFC8010E9432292AE0AE014F5F5F4FFE
:101760000E94F727CE0101960E9403171BC0C801F3
:101770000E9432299F938F937F936F938EE891E01D
:101780009F938F938CE093E09F938F930E944328C5
:101790000FB6F894DEBF0FBECDBF04C085E791E061
:1017A0000E940E172D960FB6F894DEBF0FBECDBF68
:1017B000DF91CF911F910F91089560E070E081E07B
:1017C0000E94CA15009711F1FC0180818735D9F07C
:1017D00058F48734D1F018F4843499F017C0823566
:1017E00089F0833589F012C0823761F028F484369D
:1017F00041F0873651F00AC0833731F0873719F04E
:1018000005C02ECE88CE98CEA8CE39CF8FE391E0FA
:101810000C940E17CF92DF92EF92FF920F931F93CB
:10182000CF93DF937C0101E013E0C0E0D0E0C62E4F
:10183000D12CF80165917491A601C7010E94B427CB
:10184000892B71F486E08C9FF0018D9FF00D11249F
:10185000EB5FFC4F85919491FC01099581E007C0F5
:1018600021960A5F1F4FC730D10519F780E0DF913D
:10187000CF911F910F91FF90EF90DF90CF9008953F
:1018800060E070E080E00E94CA1560E0FC01E60FB5
:10189000F11D20812F7D11F06F5FF8CFBBDF81112B
:1018A00004C080E091E00C940E170895E82FF0E05A
:1018B000E55DFC4F849108950F931F93CF93A09102
:1018C0002D0228E3A29FD001112440E050E0C0E0A7
:1018D000AE55BB4FFD01E40FF51F05911591259104
:1018E0003491061717072807390739F0CF5F4C5F87
:1018F0005F4FCE3079F78FEF01C08C2FCF911F91C2
:101900000F910895E0912D029EE0E99FF0011124CE
:10191000E80FF11DEE0FFF1FEE0FFF1FEE55FB4FFF
:1019200065917591859194910895CF92DF92EF9290
:10193000FF920F931F93CF93DF938B01C42E7C01F3
:101940002AE0E20EF11CEC01D12C88818D25AEDF5E
:10195000D82E89910E94EA16CE15DF05B1F7E02E48
:10196000C02FD12F8C2F8E198C1578F401151105ED
:1019700011F0F88001C0F12C8F2D8D2597DFD82E26
:101980008F2D0E94EA162196EDCF8D2DDF91CF91FC
:101990001F910F91FF90EF90DF90CF900C94EA167B
:1019A000CF93DF93CDB7DEB7AF970FB6F894DEBF16
:1019B0000FBECDBF9CE39EA31AA61BA61CA61DA608
:1019C0001FA61EA68DA382E28FA38FE290E099A7A7
:1019D00088A784E097DF6AA77BA78CA79DA745E22D
:1019E000BE016F5F7F4FCE0186969FDFAF960FB629
:1019F000F894DEBF0FBECDBFDF91CF910895CF9396
:101A0000DF93CDB7DEB72A970FB6F894DEBF0FBECF
:101A1000CDBF2CE329832AE030E03C832B831A8658
:101A2000198621E22A836D837E838F83988740E025
:101A300060E070E0CE01019678DF2A960FB6F89448
:101A4000DEBF0FBECDBFDF91CF910895FF920F9300
:101A50001F93CF93DF93CDB7DEB72A970FB6F894D5
:101A6000DEBF0FBECDBFF82E40912C0250E04730B4
:101A7000510508F0EEC0FA01EC5CFF4F0C94A52272
:101A80002CE3821359C08CE311DF80932B02F09278
:101A90002001109223011092220110922401109231
:101AA000250110922601109227011092290110920F
:101AB000280181E0CCC0887F8032E1F580912B0243
:101AC0008F25F4DE80932B02F092210110922A02DE
:101AD00082E0BDC010912A02482F50E060E070E023
:101AE00028E0129FC001112404C0440F551F661F37
:101AF000771F8A95D2F78091220190912301842B40
:101B0000952B90932301809322011F5F10932A024B
:101B100080912B028F25CADE80932B02123009F0B0
:101B200098C080912201909123010A978F3F9105DF
:101B300029F020F010922C0280E0B9C083E066C04A
:101B4000E0912A02482F50E060E070E028E0E29F38
:101B5000C001112404C0440F551F661F771F8A95CA
:101B6000D2F7009124011091250120912601309196
:101B70002701402B512B622B732B40932401509350
:101B80002501609326017093270111E01E0F109329
:101B90002A0280912B028F2589DE80932B0214303C
:101BA00009F057C010932C0210922A0252C01091D3
:101BB0002A02482F50E060E070E028E0129FC00148
:101BC000112404C0440F551F661F771F8A95D2F752
:101BD0008091280190912901842B952B90932901C4
:101BE000809328011F5F10932A0280912B028F257A
:101BF0005DDE80932B02123061F58091220190917D
:101C000023010A9711F486E001C085E080932C023D
:101C1000CBCF80912B028F2549DE80932B02209120
:101C20002A02E22FF0E0E05EFE4FF2862F5F209363
:101C30002A0230E080912201909123010A9728170F
:101C4000390738F086E003C08093290287E080934B
:101C50002C0280912C02873009F06ECF10922C025A
:101C60009091290280912B02981366CF80912101D7
:101C70008232E1F48CE389838AE090E09C838B8359
:101C80001A8619868091240190912501A091260140
:101C9000B09127018D839E83AF83B88783E28A83C7
:101CA00040E060E070E0CE0101963FDE81E02A96E0
:101CB0000FB6F894DEBF0FBECDBFDF91CF911F915D
:101CC0000F91FF9008950E94CB169C012227232B91
:101CD00021F4BCDE8823B9F3089580E0089580E301
:101CE00090E00E942A2980932F0281E390E00E94D5
:101CF0002A2980932D0282E390E00E942A2991E014
:101D0000811101C090E090932E02089560E080E37D
:101D100090E00E944B2961E081E390E00E944B2912
:101D200060E082E390E00C944B29860F911DFC014A
:101D300062857385848595850895860F911DFC01C4
:101D400062857385848595850895860F911DFC01B4
:101D5000628573858485958508958F929F92AF9251
:101D6000BF92CF92DF92EF92FF921F93CF93DF93B8
:101D7000C0E0D2E128EE822E23E0922EA12CB12CDD
:101D8000A2DF882309F4A6C1609124017091250186
:101D900080912601909127018FDD482F50E04A3035
:101DA000510508F067C1FA01E55CFF4F0C94A522CC
:101DB00080914E01811104C081E0F2DD81E008C014
:101DC000823011F483E0ECDD80E09CDD18DE82E0FF
:101DD0008093D1024091D8025091D9026091DA02E9
:101DE0007091DB0248575C4E6F4F7F4F4093180154
:101DF0005093190160931A0170931B0139C160E07F
:101E000080E291E092DFA50194010E948322309349
:101E1000D0022093CF022CC160E180E291E08DDFFF
:101E20006093C7027093C8028093C9029093CA025C
:101E300064E180E291E081DF6093C3027093C402A9
:101E40008093C5029093C60268E180E291E075DF5D
:101E50006093BF027093C0028093C1029093C2024C
:101E600007C13091CB0221E080912A01823008F431
:101E700020E02093CB02E0912B01E093CE02F0E032
:101E8000EE0FFF1FE55DFB4F859194919093CD027E
:101E90008093CC0280912F02882329F080912E021A
:101EA000882309F4E5C03111E3C0222309F4E0C01E
:101EB0002FD4DEC060E080E291E03FDF20E030E040
:101EC00048EC52E40E9464250E9418246093BC02EE
:101ED00064E080E291E031DF20E030E048EC52E461
:101EE0000E9464250E9418246093BB0268E080E28F
:101EF00091E023DF20E030E048EC52E40E946425CA
:101F00000E9418246093BA026CE080E291E015DF31
:101F100020E030E048EC52E40E9464250E9418243E
:101F20006093B90260E180E291E007DF20E030E0F9
:101F300048EC52E40E9464250E9418246093B80281
:101F400081E090915401911101C080E08093BD0225
:101F5000809155018093B702E2E4F1E0A5EAB2E096
:101F60008D2F01900D928A95E1F782C060E080E2AA
:101F700091E0EBDE0E944B2420E836E948E15BE487
:101F80000E94B0236093A1027093A2028093A302E7
:101F90009093A40264E080E291E0D7DE0E944B249B
:101FA00020E836E948E15BE40E94B02360939D029B
:101FB00070939E0280939F029093A00268E080E25B
:101FC00091E0BBDE6B017C016093990270939A02F1
:101FD00080939B0290939C0260E180E291E0ADDEF1
:101FE0000E94C7250E941D2470939402609393025F
:101FF00070937A026093790264E180E291E09DDE61
:102000006093950270939602809397029093980242
:1020100060937B0270937C0280937D0290937E029A
:1020200080914E018093910280914F0180939202A2
:1020300080912F02811103C0C701B60163D1809145
:102040002F02882321F080912E02882389F064D307
:102050000FC068E080E291E070DEDC01CB01B05897
:1020600080938D0290938E02A0938F02B093900282
:1020700011E001C010E080912F02813049F54091BC
:1020800024015091250160912601709127014B3068
:1020900051056105710531F04D305105610571053E
:1020A00099F015C060E080E291E047DE0E941824BC
:1020B00070938C0260938B02882777FD8095982F10
:1020C0000E944B241FD104C080912E02811110E088
:1020D000C12B56CE4091D8025091D9026091DA02BC
:1020E0007091DB02C0901801D0901901E0901A01A4
:1020F000F0901B014C155D056E057F0538F0809151
:10210000D102882319F01092D102C1E0C0901C01C5
:10211000D0901D01E0901E01F0901F014C155D054F
:102120006E057F05D0F08091D1028230B1F483E05A
:1021300037DC4091D8025091D9026091DA02709157
:10214000DB024C505E4F6F4F7F4F40931C0150930A
:102150001D0160931E0170931F018C2FDF91CF91A1
:102160001F91FF90EF90DF90CF90BF90AF909F9026
:102170008F9008958CE380932001109221018AE0D2
:1021800090E09093230180932201109224011092F9
:102190002501109226011092270110922901109218
:1021A0002801089561E085E190E00E944B2944E117
:1021B0005EEA6FE271E486E190E00E945D2944E509
:1021C00054E761E971E48AE190E00E945D2968ECDE
:1021D00070E08EE190E00E94652966E080E290E088
:1021E0000E944B2967E081E290E00C944B29CF9349
:1021F00030D685E190E00E942A29C1E0811101C01A
:10220000C0E0C0933C0286E190E00E9432296093D6
:1022100038027093390280933A0290933B02CC23A8
:1022200061F08AE190E00E94322960933402709359
:10223000350280933602909337028EE190E00E943F
:102240003729909333028093320280E290E00E941B
:102250002A298093310281E290E00E942A2980930A
:102260003002CF9108958091D8029091D902A09127
:10227000DA02B091DB0220913D0230913E02AC01C6
:10228000421B530B20913202309133024217530705
:10229000A8F180933D0290933E02A0933F02B09339
:1022A0004002409138025091390260913A02709197
:1022B0003B02809131020ED66093710270937202DC
:1022C0008093730290937402FFD080913C02882324
:1022D000B9F040913402509135026091360270910C
:1022E000370280913002F6D560936D0270936E02D2
:1022F00080936F02909370027DD102C080E00895B8
:1023000081E008954F925F926F927F928F929F9299
:10231000AF92BF92CF92DF92EF92FF924B015C019E
:10232000C090D802D090D902E090DA02F090DB029F
:1023300020917F023091800240918102509182026F
:102340000E94E2222B013C0180917502909176025D
:10235000A0917702B0917802A7019601281B390B52
:102360004A0B5B0BCA01B9010E9449249B01AC01D5
:10237000C301B2010E94B02320E030E04AE754E4F8
:102380000E94642560938302709384028093850287
:102390009093860280927F0290928002A0928102A6
:1023A000B0928202C0927502D0927602E0927702D9
:1023B000F0927802FF90EF90DF90CF90BF90AF90B7
:1023C0009F908F907F906F905F904F9008954DEC0D
:1023D0005CEC6CE470E481E490E00E945D294DECDB
:1023E0005CEC6CE670E485E490E00E945D2946E6D2
:1023F00056E666E870E489E490E00E945D2940E0DA
:1024000050E060E670E48DE490E00C945D29CF929A
:10241000DF92EF92FF92CF93DF9300D000D0CDB741
:10242000DEB781E490E00E9432299B01AC01609309
:102430000C0170930D0180930E0190930F0185E4C0
:1024400090E029833A834B835C830E943229609316
:1024500008017093090180930A0190930B0189E4AC
:1024600090E00E9432296B017C016093040170931B
:10247000050180930601909307018DE490E00E948E
:1024800032296093000170930101809302019093BF
:10249000030129813A814B815C81C701B6010E9409
:1024A000E22260935F0270936002809361029093D6
:1024B00062020F900F900F900F90DF91CF91FF90DD
:1024C000EF90DF90CF9008958F929F92AF92BF923E
:1024D000CF92DF92EF92FF92CF93809168028111A9
:1024E00018C0209108013091090140910A015091D2
:1024F0000B01609171027091720280917302909150
:1025000074020E94B0230E94C7250E941D2460937C
:10251000680260916802662349F170E080E090E013
:102520000E944B249B01AC01609171027091720278
:1025300080917302909174020E94B02360936402B0
:10254000709365028093660290936702C1E02091C8
:1025500000013091010140910201509103010E945C
:10256000A92318160CF4C0E0C0935502C090640271
:10257000D0906502E0906602F090670280900C01B6
:1025800090900D01A0900E01B0900F01A501940153
:10259000C701B6010E9459251816DCF4A501940163
:1025A000C701B6010E94E22220915F0230916002D1
:1025B00040916102509162020E94B02320E030E01D
:1025C00048EC52E40E9464250E941D24653628F4DC
:1025D00001C060E06093630203C084E680936302FD
:1025E000CF91FF90EF90DF90CF90BF90AF909F90F2
:1025F0008F9008958F929F92AF92BF92CF92DF9269
:10260000EF92FF92CF93DF9320916D0230916E0293
:1026100040916F025091700260915B0270915C0278
:1026200080915D0290915E020E94E3224B015C0169
:1026300060935B0270935C0280935D0290935E02F4
:1026400060915A026F5F60935A02C090D802D09096
:10265000D902E090DA02F090DB028091560290916C
:102660005702E601C81BD90BC43F81E0D80708F424
:1026700044C070E080E090E00E944B249B01AC01DC
:10268000C501B4010E94B0234B015C01BE0180E092
:1026900090E00E9449249B01AC01C501B4010E9455
:1026A000642520E030E041E655E40E94B0239B0120
:1026B000AC016091690270916A0280916B02909105
:1026C0006C020E94E3226093690270936A02809315
:1026D0006B0290936C0210925B0210925C0210925B
:1026E0005D0210925E0210925A02C0925602D0927F
:1026F0005702E0925802F0925902DF91CF91FF9079
:10270000EF90DF90CF90BF90AF909F908F90089503
:1027100081E08093530208954F925F926F927F926F
:102720008F929F92AF92BF92CF92DF92EF92FF92E1
:10273000CF93DF9300D000D0CDB7DEB780915302A6
:10274000882309F4E8C08130E1F580919102882363
:10275000B1F18330B1F582E08093530280919D0204
:1027600090919E02A0919F02B091A0028093490295
:1027700090934A02A0934B02B0934C028091A10225
:102780009091A202A091A302B091A402809345026D
:1027900090934602A0934702B093480280917F0233
:1027A00090918002A0918102B091820280934102B7
:1027B00090934202A0934302B093440202C010924D
:1027C000530280915302823009F0A5C0C0904502A7
:1027D000D0904602E0904702F0904802C701B6014F
:1027E0009F7725E33AEF4EE85CE30E9464250E9460
:1027F000AD234B015C0120919D0230919E024091DE
:102800009F025091A0026091490270914A0280910A
:102810004B0290914C020E94E2222B013C0120913C
:10282000A1023091A2024091A3025091A402C701DB
:10283000B6010E94E2226B017C01C301B2019F77C5
:1028400020EC3BE649ED57E40E946425A501940184
:102850000E9464250E94292669837A838B839C8346
:10286000C701B6019F7720EC3BE649ED57E40E9493
:1028700064250E9429269B01AC0169817A818B81A4
:102880009C810E94E3220E94EB2560934F0270938B
:102890005002809351029093520277FA709477F825
:1028A0007094A501940160E070E080E89FE30E94CD
:1028B000B0239B01AC01C701B6010E946425A301AE
:1028C00092010E94562320EE3EE245E652E40E9429
:1028D000642520E030E044EB52E40E94E3220E94B1
:1028E00018249B0177FF02C028593E4FC901845B21
:1028F000910997FF02C088599E4F2091790230912B
:102900007A02821B930B97FF02C088599E4F9093C7
:102910004E0280934D020F900F900F900F90DF9119
:10292000CF91FF90EF90DF90CF90BF90AF909F90AE
:102930008F907F906F905F904F900895CF93DF932B
:1029400080E490E00E942A29853511F00E943E2201
:1029500045E050E061E570E082ED92E00E941A29C6
:102960001092D70254DDC0E0D0E0FE01EF5CFA4FD8
:1029700085919491FC0109952896C831D105A9F754
:10298000DF91CF9108951F93CF93DF9308D3609386
:10299000D8027093D9028093DA029093DB02C0E0F0
:1029A000D0E010E0FE01ED5CFA4F85919491FC01BE
:1029B0000995182B2896C831D105A1F7812FDF91F1
:1029C000CF911F910895CF93DF9365E580E490E068
:1029D0000E944B2945E050E061E570E080E191E024
:1029E0000E943C29F4DCC0E0D0E0FE01E15DFA4F3A
:1029F00085919491FC0109952896C831D105A9F7D4
:102A0000DF91CF91089561E088E290E00E944B2928
:102A100068EC70E089E290E00E9465296AE08BE250
:102A200090E00E944B2940E050E068EC72E48CE2B8
:102A300090E00C945D290DD288E290E00E942A2952
:102A40008093E70289E290E00E9437299093E602A2
:102A50008093E5028BE290E00E942A298093E402B1
:102A60008CE290E00E9432296093DC027093DD02D8
:102A70008093DE029093DF0208958091D8029091B6
:102A8000D902A091DA02B091DB022091E0023091EC
:102A9000E102AC01421B530B2091E5023091E602AA
:102AA0004217530760F18093E0029093E102A093F4
:102AB000E202B093E3024091DC025091DD026091AA
:102AC000DE027091DF028091E70204D20E94C725E6
:102AD0000E9418246536710514F064E670E077FFF3
:102AE00002C060E070E06093BE0281E09091E40279
:102AF000691708F080E08093540281E0089580E037
:102B000008950E944F2218D22FEF83ED90E32150B9
:102B100080409040E1F700C0000080E190E00FD1DC
:102B20008BD1A6D20E94A521882301F15ED380918A
:102B3000FB0320E04EE555E06091FA038450D7D3C3
:102B40001F9287E08F938CE495E09F938F938CE0A6
:102B500093E09F938F930E94432880E49CE083D06E
:102B60000F900F900F900F900F900F9085E495E0CD
:102B700055D1E4DE69C5C5DF37D580E090E0089522
:102B800081E795E04BC1FCDF8BE695E047D11092E1
:102B90000B030895E0E0AE2FB0E0A751BD4F9C912C
:102BA000903211F4EF5FF7CF20E02817A1F0AE2F9D
:102BB000B0E0A751BD4F3C913F7D11F0EF5FF7CFE3
:102BC000AE2FB0E0A751BD4F9C91903211F4EF5F52
:102BD000F7CF2F5FEACFF0E0E751FD4F80818823E8
:102BE00011F0CF010895CB010895D5D09C01222783
:102BF000232BC1F58D30910539F08F379105B9F050
:102C000088309105F1F413C0E0910B03EE2371F0CD
:102C1000F0E0E751FD4F1082B3DFE0910903F0913E
:102C20000A03309719F089EE92E00995ACCF8091B4
:102C30000B038823B9F0815080930B0387E695E05E
:102C4000EDC0803220F0E0910B03EF3111F487E00A
:102C500008C091E09E0F90930B03F0E0E751FD4F09
:102C60008083B8C00895CF93DF93EC018CDF81E0BF
:102C70008093E802D0930A03C09309038091E8028D
:102C8000882311F0B2DFFACFDF91CF9108951F9220
:102C90000F920FB60F9211242F938F939F93EF9360
:102CA000FF938091C0009091C6008871E0911C0351
:102CB000EF5FEF7720911B03E21739F0E0931C03DD
:102CC000F0E0E15EFC4F908301C082E090911A0336
:102CD000982B90931A03FF91EF919F918F912F91D1
:102CE0000F900FBE0F901F9018951F920F920FB666
:102CF0000F9211248F939F93EF93FF9390911E0354
:102D000080911D03981306C08091C1008F7D809330
:102D1000C1000CC0E0911D03EF5FEF73E0931D0352
:102D2000F0E0E156FC4F80818093C600FF91EF9167
:102D30009F918F910F900FBE0F901F90189510923A
:102D40001E0310921D0310921C0310921B0397FF89
:102D500004C022E02093C0009F779093C500809329
:102D6000C40088E98093C10086E08093C2008FEFA1
:102D700096E1909315038093140384EE96E190936B
:102D800017038093160383E080930F0310921903B7
:102D900010921803089590911C0380911B039817BB
:102DA00081F0E0911B03EF5FEF77E0931B03F0E00E
:102DB000E15EFC4F808190911A0310921A0390E01B
:102DC000089580E091E00895E6DF9C012227232BFF
:102DD000D9F7089590911E039F5F9F7320911D0363
:102DE0009217E1F3E92FF0E0E156FC4F80839093D6
:102DF0001E038091C10080628093C1000895EADFC4
:102E000080E090E00895CF93DF93EC0189918823CF
:102E100011F0E0DFFBCFDF91CF910895CF93DF93E7
:102E2000FC018491EF012196882319F0D3DFFE0184
:102E3000F8CFDF91CF91089584B1837C8C6284B9FF
:102E400080E58CBD08958EBD0DB407FEFDCF8EB517
:102E50000895CF938091DF03811121C085E090E038
:102E60000E942A29C82FC295CC0FCC0FC07CC093DA
:102E7000E40386E090E00E9432296093E0037093BF
:102E8000E1038093E2039093E303C0937C0080917D
:102E90007A00876880937A0081E08093DF03CF9186
:102EA00008958F709091E403892B80937C0080912A
:102EB0007A00806480937A0080917A0086FDFCCF4E
:102EC00080917A00806180937A008091780090915F
:102ED00079000895CF92DF92EF92FF926A017B0111
:102EE000E0DFBC0180E090E00E94492420E030E077
:102EF00040E85AE30E9464252091E0033091E10309
:102F00004091E2035091E3030E946425A7019601DA
:102F10000E946425FF90EF90DF90CF90089563E0CA
:102F200085E090E00E944B294DEC5CEC6CE87FE37F
:102F300086E090E00C945D2982E084BD83E085BD4D
:102F400016BC8AEF87BDEEE6F0E080818260808368
:102F5000789408951F920F920FB60F9211248F93B9
:102F60009F93AF93BF938091E5039091E603A09167
:102F7000E703B091E8030196A11DB11D8093E5031D
:102F80009093E603A093E703B093E803BF91AF915A
:102F90009F918F910F900FBE0F901F901895F894EE
:102FA0006091E5037091E6038091E7039091E80357
:102FB00078940895806847DF8FEF45CFCF93DF93F4
:102FC0001F92CDB7DEB769833EDF6981862F0F90F0
:102FD000DF91CF9138CF8F3F11F460E001C0682FAF
:102FE00087E0ECDF80E090E008958093FE0381307D
:102FF00069F41092F9038DE18093FD038CE08093D6
:10300000FC038FE08093FB0386E00CC080E4809398
:10301000F9038DE18093FD038FE08093FC0380939F
:10302000FB0388E08093FA0308955B9B02C080E075
:103030001EC05E9880E2BEDF5E9A80FDF8CF81FF01
:1030400012C081E08093FE031092F9038DE180931A
:10305000FD038CE08093FC038FE08093FB0386E00C
:103060008093FA03089580E190E00E942A29BDCF61
:10307000CF93DF935398569A52985A9AD6DF5E9818
:103080008CE698DF682F6F7E8CE698DF6FE781E033
:1030900095DF6091F9036C6080E090DF81E190E062
:1030A0000E942A29D82FC0E16D2F8C2F87DFCF5F98
:1030B000C032D1F75E9A8BEE97E19093F303809341
:1030C000F2031092F5031092F40382E08093ED0373
:1030D0001092F7031092F603DF91CF910895EF92CB
:1030E000FF921F93CF93DF931F92CDB7DEB7F82ED9
:1030F000162F5E9860E080E0798360DF85E38A9533
:10310000F1F700006F2D89E059DFE12E7981F72E6C
:1031100010E0612F8AE052DFF70161917F018BE0BF
:103120004DDF1F5F1633A9F760EA88E047DF80E2D2
:1031300041DF85FDFCCF6091F9036C6080E03EDFEC
:103140005E9A0F90DF91CF911F91FF90EF900895BD
:103150000F931F93CF93DF93C82F162F072F5E98DF
:1031600060E080E02BDF85E38A95F1F700006C2FAB
:1031700089E024DF60E588E021DF80E21BDF85FD58
:10318000FCCFC12FD02F10E0612F8AE017DF80E441
:1031900011DF89931F5F1633B9F76091F9036C60F3
:1031A00080E00CDF5E9ADF91CF911F910F9108951F
:1031B000CF93DF93C82FD0E08EE1689FC00DD11D63
:1031C0001124D1706D2F85E0F9DE6C2F86E0DF9140
:1031D000CF91F4CE8091F803882331F06FEF87E030
:1031E000EDDE5E9A1092F80308958091F803811144
:1031F000F1DF5E9864E084E0E1DE5E9A80EA8A9521
:10320000F1F708950F931F93CF93DF9300D0CDB7BD
:10321000DEB7142F022F9091F803992329F06A83C7
:103220008983D8DF89816A815E98C2DF602F6770E9
:10323000660F660F660F84E0C1DE612F87E0BEDE99
:103240005E9A0F900F90DF91CF911F910F9108958B
:103250001F93CF93DF9300D0CDB7DEB7142F90919B
:10326000F803992329F06A838983B4DF89816A810D
:103270001093E90391E09093F8035E989091FC031A
:10328000961708F460E09091FD03981708F480E029
:103290008FDF177088E0189FB0011124616084E00F
:1032A0000F900F90DF91CF911F9188CEEF92FF92F8
:1032B0001F93CF93DF931F92CDB7DEB7142F422F0A
:1032C0005983C6DFE12E5981F52EF70161917F0107
:1032D000662331F06F3F09F460E087E06FDEF5CFE1
:1032E0000F90DF91CF911F91FF90EF9073CFEF92EE
:1032F000FF921F93CF93DF931F92CDB7DEB7142FAA
:10330000422F5983A5DFE12E5981F52EF7016491F3
:10331000662349F06F3F09F460E087E04FDE8FEFEE
:10332000E81AF80AF3CF0F90DF91CF911F91FF9029
:10333000EF9050CF60E080E190E00E94692960E06A
:1033400081E190E00C946929EF92FF920F931F9313
:10335000CF93DF93883008F080E098E4899F800164
:10336000112400581F4FE0901701C3E0D4E0F12C66
:10337000C8010E942A29FE01329780838E1598F495
:10338000C80101960E942A29FE0131978083C80155
:1033900002960E942A2988830D5F1F4FF39423967B
:1033A00088E1F812E5CFF0920004DF91CF911F91F0
:1033B0000F91FF90EF9019CFCF93DF93C0E0D6E04D
:1033C00080910004C817A8F48C2F90E0FC01EE0F48
:1033D000FF1FE80FF91FEF5FFB4FE081DE9FF00159
:1033E0001124E755F84F85919491FC010995CF5F21
:1033F000E7CF81E08093FF03DF91CF910895CF93D2
:10340000DF938091FF03882351F1EFDEC0E0D6E027
:1034100080910004C81708F58C2F90E0FC01EE0F96
:10342000FF1FE80FF91FEF5FFB4FE081DE9FF00108
:103430001124E555F84F25913491DC01AA0FBB1FEB
:10344000A80FB91FAF5FBB4F12966C9112971196E0
:103450008C91F9010995CF5FDBCF1092FF03DF91CB
:10346000CF910895CF92DF92FF920F931F93CF9346
:10347000DF931F92CDB7DEB728E4829FC0011124ED
:103480008C0100581F4F6B01F12CF416E1F0F6018E
:103490006491C80149830E944B29F60131966491D9
:1034A000C80101960E944B29F60132966491C80129
:1034B00002960E944B290D5F1F4FF394F3E0CF0E4D
:1034C000D11C4981E2CF0F90DF91CF911F910F91D5
:1034D000FF90DF90CF90089546E163EB75E080E0C8
:1034E000C1DF4BE062E975E081E0BCDF4AE064E700
:1034F00075E082E0B7CF20915104309152048217D9
:10350000930708F4C90140914F04509150044817A3
:10351000590708F4CA01821B930B60914D04709106
:103520004E04CAD7862F0895CF93809154048823E0
:1035300019F19091BD029923F9F0C0914C048130AA
:1035400019F48091B7020AC0E0915304F0E0EE0F45
:10355000FF1FEB55FD4F80819181CDDF80934C049F
:1035600090914B04891718F0915090934C0481E08E
:1035700090914C049C1301C080E0CF910895789401
:103580001F920F920FB60F9211242F933F934F93D8
:103590005F936F937F938F939F93AF93BF93EF93BB
:1035A000FF9380914A04882371F08091FF03882360
:1035B00051F080914904811106C081E08093490453
:1035C0001EDF10924904FF91EF91BF91AF919F913F
:1035D0008F917F916F915F914F913F912F910F90BC
:1035E0000FBE0F901F90189580E0AEDEE5DE82E002
:1035F0008093690081E08DBB80934A042CE088E1D0
:1036000090E00FB6F894A895809360000FBE2093C9
:103610006000C1E0A895B7D9D82F80914B048230C3
:1036200080F082DF882369F080914C048DDE8091E8
:1036300049048111FCCFC0934904BEDE10924904B5
:10364000E9CFDD2339F3F3CF1F93CF93DF9380E7E7
:1036500090E00E942A298093540481E790E00E9420
:103660002A298093530482E790E00E942A29182F88
:1036700080934B0483E790E00E943729EC019093FC
:1036800052048093510485E790E00E94372990937B
:10369000500480934F04193018F028E020934B0415
:1036A0008C1B9D0B60914B0470E006D770934E0409
:1036B00060934D04DF91CF911F91089562E080E700
:1036C00090E00E944B2965E081E790E00E944B2941
:1036D00068E082E790E00E944B2968EE73E083E7A0
:1036E00090E00E94652960ED77E085E790E00E9418
:1036F0006529F2CE0895089508950895089520E06B
:1037000041E255E0D3CD20E049E155E0CFCD20E0C6
:1037100041E155E0CBCD20E04AE055E0C7CD20E0C7
:1037200043E055E0C3CD20E044EF54E0BFCD20E0BE
:1037300049EE54E0BBCDFF920F931F93CF93DF93DD
:10374000082FF62ECEE9D4E010E0612F6F0D20E0B7
:10375000AE01802FABDD1F5F2F961530B1F7DF91E3
:10376000CF911F910F91FF90089520E047E954E019
:103770009DCD20E040E954E099CD20E04FE754E0B2
:1037800095CD20E047E754E091CD20E042ED52E0B6
:103790008DCD20E043E654E089CD60917F027091A9
:1037A000800280918102909182020E9418247F936E
:1037B0006F938BE696E09F938F931F9288E08F9391
:1037C00081E295E09F938F930E948E2810922805A6
:1037D0008DB79EB708960FB6F8949EBF0FBE8DBFEB
:1037E00008958091CF029091D0026CE370E064D68E
:1037F0009F938F937F936F9383E596E09F938F932F
:103800001F9288E08F9381E195E09F938F930E94B0
:103810008E28109218058DB79EB70A960FB6F894A9
:103820009EBF0FBE8DBF08956091C7027091C80200
:103830008091C9029091CA02FBD77F936F938EE467
:1038400096E09F938F931F9287E08F938AE095E095
:103850009F938F930E948E28109210058DB79EB76C
:1038600008960FB6F8949EBF0FBE8DBF0895609165
:10387000C3027091C4028091C5029091C602D8D74C
:103880007F936F9389E496E09F938F931F9287E0D5
:103890008F9383E095E09F938F930E948E281092E0
:1038A00009058DB79EB708960FB6F8949EBF0FBE58
:1038B0008DBF089520919202822F992787FD9095C0
:1038C0009F932F9386E496E09F938F931F9284E0BB
:1038D0008F938FEF94E09F938F930E948E28109286
:1038E00002058DB79EB708960FB6F8949EBF0FBE1F
:1038F0008DBF08958091A4028F938091A3028F932E
:103900008091A2028F938091A1028F9387E396E02A
:103910009F938F931F928BE08F9384EF94E09F93FC
:103920008F930E948E281092FE048DB79EB70A9640
:103930000FB6F8949EBF0FBE8DBF08958091A00270
:103940008F9380919F028F9380919E028F9380919D
:103950009D028F938FE296E09F938F931F928BE04F
:103960008F9389EE94E09F938F930E948E281092FC
:10397000F3048DB79EB70A960FB6F8949EBF0FBE9C
:103980008DBF08952091BC02822F992787FD9095C5
:103990009F932F9389E296E09F938F931F9287E0E6
:1039A0008F9387E994E09F938F930E948E281092C3
:1039B0009D048DB79EB708960FB6F8949EBF0FBEB4
:1039C0008DBF089526E636E646E650E460917B0218
:1039D00070917C0280917D0290917E020E9464250C
:1039E00027D77F936F9384E296E09F938F931F92E4
:1039F00087E08F9380E994E09F938F930E948E28B5
:103A0000109296048DB79EB708960FB6F8949EBF95
:103A10000FBE8DBF0895809170028F9380916F02C9
:103A20008F9380916E028F9380916D028F9387E1C7
:103A300096E09F938F931F9288E08F938FE794E097
:103A40009F938F930E948E28109286048DB79EB705
:103A50000A960FB6F8949EBF0FBE8DBF0895609171
:103A6000690270916A0280916B0290916C02E5D6B6
:103A70007F936F9382E196E09F938F931F9288E0EC
:103A80008F9387E794E09F938F930E948E281092E4
:103A90007E048DB79EB708960FB6F8949EBF0FBEF2
:103AA0008DBF089580918A028F93809189028F93B0
:103AB000809188028F93809187028F9385EF95E0A4
:103AC0009F938F931F9289E08F9383E694E09F9357
:103AD0008F930E948E2810926B048DB79EB70A9622
:103AE0000FB6F8949EBF0FBE8DBF08950F931F931E
:103AF000CF93DF93C0918302D0918402109185020D
:103B00000091860220E030E040E251E4F8016C2FA1
:103B10007D2F8F2F9E2FD8D70E94C72589D664313D
:103B200054F46A3054F467FF0AC06D3E54F0673FA6
:103B300054F484E009C088E007C087E005C086E04F
:103B400003C085E001C083E00F931F93DF93CF9301
:103B50001F928F9383E696E09F938F931F9288E046
:103B60008F9389E195E09F938F930E948E28109206
:103B700020058DB79EB70C960FB6F8949EBF0FBE6A
:103B80008DBFDF91CF911F910F91089580917402A5
:103B90008F93809173028F93809172028F938091A3
:103BA00071028F938EE196E09F938F931F9287E02F
:103BB0008F9389E894E09F938F930E948E281092B0
:103BC0008F046091630270E080E090E064D620E0B2
:103BD00030E040EA51E4C4D5DAD72FD66C50609378
:103BE00088048DB79EB70A960FB6F8949EBF0FBE95
:103BF0008DBF80915502882311F082E001C080E0E2
:103C0000809387040895CF93C091BE026C2F70E01B
:103C100080E090E040D620E030E040EA51E4A0D5DA
:103C2000B6D70BD6611105C061E0C11105C060E0D7
:103C300003C0663008F065E0E62FF0E0EE0FFF1FEE
:103C4000EA59F84F859194919093620480936104AE
:103C5000CF9108956091790270917A0294E0660F95
:103C6000771F9A95E1F780E090E013D620E030E0EE
:103C700044EB53E475D58BD720E030E040EA50E4C4
:103C8000A1D4D6D59B0177FF02C0205F3F4FA5E5A9
:103C9000B4E0F901E157F84FE491ED932F5F3F4F06
:103CA0002031310514F020E030E084E0A036B80780
:103CB00081F710926004089540916104509162046C
:103CC00020E015CBCF93DF93C82FD62F2091870408
:103CD0004091880497DA20E049E854E06D2F81E0B4
:103CE0008C0FDF91CF91E2CACF93DF93C82FD62FED
:103CF00020916D0442E186DA20916E044FE654E093
:103D00006D2F81E08C0FDF91CF91D0CACF93DF93DD
:103D1000C82FD62F20E046EC85E08C0F73DA61E0E7
:103D20006D0F20E045E554E08C2FDF91CF91BECAA6
:103D3000809153028230B1F460914D0270914E0235
:103D400080E090E0A6D520E030E044EB53E408D5D5
:103D500020E030E040E851E4B7D66FD5660F6057F9
:103D600060936C040895CF92DF92EF92FF922091BE
:103D7000530281E0211180E080936E0491E02230B3
:103D800009F490E090936D049923F9F0882319F0D9
:103D90008EE096E002C089E096E09F938F9386E0E4
:103DA00096E09F938F931F9288E08F938FE694E025
:103DB0009F938F930E948E288DB79EB708960FB65B
:103DC000F8949EBF0FBE8DBF4CC0C0904F02D090E4
:103DD0005002E0905102F090520220E030E44CE1B9
:103DE00056E4C701B60165D687FD21C020E030E06A
:103DF0004AE754E4C701B601B3D49F938F937F93EE
:103E00006F9380E096E09F938F931F9288E08F934B
:103E10008FE694E09F938F930E948E288DB79EB774
:103E20000A960FB6F8949EBF0FBE8DBF1AC0C70189
:103E3000B60103D57F936F938CEF95E09F938F939B
:103E40001F9288E08F938FE694E09F938F930E9458
:103E50008E288DB79EB708960FB6F8949EBF0FBEFA
:103E60008DBFFF90EF90DF90CF9008951F93CF9379
:103E7000DF93182FC62FD1E0809191028111D0E0FD
:103E80002D2F43E456E06C2F812F31DA809191027F
:103E9000D11104C0823020F422E003C021E001C02F
:103EA00020E0833010F441E001C042E06C2F82E05A
:103EB000810FA8D983E0810FDD2341F021E04FE39A
:103EC00056E06C2FDF91CF911F9111CA20E04FEF88
:103ED00054E06C2FDF91CF911F91E8C9909154026B
:103EE000992319F022E044EB8DC90895CF93DF9315
:103EF000C82FD62F80915302823079F420E0409170
:103F00006C048C2F7FD940916C044F5F20E06D2FA3
:103F100081E08C0FDF91CF9175C9DF91CF9108952A
:103F20002F923F924F925F926F927F928F929F92C9
:103F3000AF92BF92CF92DF92EF92FF920F931F93B7
:103F4000CF93DF93CDB7DEB72B970FB6F894DEBFD4
:103F50000FBECDBF482E362EF42E522ECDB6DEB675
:103F600021E0241708F068C0251508F065C0BB24BF
:103F7000BA94B40E3FEF350D3987002319F060E78E
:103F800076E002C068E776E048E050E0CE010196B6
:103F9000E2D78F2D90E09C012F5F3F4F4DB75EB76A
:103FA000421B530B0FB6F8945EBF0FBE4DBF0DB74B
:103FB0001EB70F5F1F4F212CF801EB0DF11D5F01A4
:103FC0004C01F2E08F1A910838012FEF621A720A41
:103FD000A801480F591F5B874A87211008C08981B3
:103FE000F80180838B81F50180836A8112C0398555
:103FF000231208C08D81F80180838F81F5018083B1
:104000006E8107C08C81F80180838885F5018083EB
:1040100060E2F2E0FF1621F070E0A401C301D5D701
:10402000EA85FB851082622D630D2E2DA801842D5B
:104030003DD923942510D1CF0FB6F894DEBE0FBE24
:10404000CDBE0FB6F894DEBE0FBECDBE2B960FB61A
:10405000F894DEBF0FBECDBFDF91CF911F910F91BE
:10406000FF90EF90DF90CF90BF90AF909F908F9098
:104070007F906F905F904F903F902F900895EF92B8
:104080000F93CF93DF93C82FD62FE12C00E023E0CE
:1040900046E046DF4091CC025091CD0241155105DA
:1040A00011F44EE556E061E06D0F20E081E08C0FE9
:1040B000DF91CF910F91EF901AC9EF920F931F9359
:1040C000CF93DF93D82F162FC091CB0281E0C82762
:1040D000EC2E01E023E043E08D2F22DF61E0610F51
:1040E0002C2F40EE81E08D0FDF91CF911F910F912A
:1040F000EF9088C8EF920F931F93CF93DF93D82F41
:10410000162FC1E08091D102823009F4C0E0EC2E7C
:1041100001E023E043E0612F8D2F02DF61E0610FBA
:104120002C2F41EE81E08D0FDF91CF911F910F91E8
:10413000EF9068C825E33AEF4EE85CE3C5C42F92E0
:104140003F924F925F926F927F928F929F92AF9227
:10415000BF92CF92DF92EF92FF920F931F93CF9374
:10416000DF93CCEAD4E010E06FED76E04EE050E073
:10417000CE010E97F0D618821F5F153049F012302D
:1041800019F06FED76E002C060ED76E02F96EECF8D
:104190006091C3027091C4028091C5029091C602E1
:1041A000C9DF5AD520E030E044E352E48DD440D357
:1041B0002B016091C7027091C8028091C902909151
:1041C000CA02B8DF49D56B017C0101E010E0CEEBFB
:1041D000DFEF662457FC6094762C3EEE232E3324CA
:1041E0003A94BE01882777FD8095982F54D39B0180
:1041F000AC01C701B60168D44B015C01C301B20137
:104200004AD39B01AC01C501B401DDD120E030E00F
:1042100044E352E4D8D10CD38FEF860F8935B8F53B
:10422000262F332727FD3095C9010197B10158D1B9
:104230006B5F862F90E042E1649F200D311D1124B9
:104240002B55310937FF02C02F5F3F4FA90155950C
:104250004795483079F49C01225031096FE0629F04
:10426000F001639FF00D1124E00FF11FE256FB4FA8
:104270002EE0208301976FE0689FF001699FF00DA9
:104280001124E00FF11FE256FB4F4A5E40832C964B
:104290000F5F1F4FCE34D10509F0A3CFDF91CF912F
:1042A0001F910F91FF90EF90DF90CF90BF90AF9054
:1042B0009F908F907F906F905F904F903F902F9046
:1042C0000895AF92BF92CF92DF92EF92FF920F9339
:1042D0001F93CF93DF938C01C62F5A010E94CF17F3
:1042E0006B017C01CA0CDB1CE11CF11CB12CD0E081
:1042F00021970E94CF176C157D058E059F0518F438
:104300000E94CB1602C080E090E09C012227232B64
:1043100081F72B2D30E08D30910519F02C173D07DA
:1043200011F480E090E0B394F801E20FF31F808372
:10433000892BF9F6DF91CF911F910F91FF90EF90AC
:10434000DF90CF90BF90AF900895EF920F931F939F
:10435000CF93DF93CDB7DEB728970FB6F894DEBFC3
:104360000FBECDBF0E94F51841E061E081E00E94E0
:1043700028191F9287E08F938FE698E09F938F9381
:104380008AEE93E09F938F937ED60F900F900F90BD
:104390000F900F900F9011E08091FD0320E018170F
:1043A00038F44AE162E0812F0E9402191F5FF4CFC6
:1043B0004BE658E061E083500E94771920E040E628
:1043C00058E064E082E00E94771910E00091160145
:1043D000101780F488E0189FF0011124E35DFA4F74
:1043E0004591549164E0610F20E08DE00E947719BF
:1043F0001F5FEECF6091FC036350E12C00E023E0EF
:104400004AE182E08DDD6091FC03625040E083E090
:104410000E9428191F9288E08F9386E498E09F936A
:104420008F938AEE93E09F938F932DD68EE398E03F
:104430000E940E1740E45FE168E0CE01019641DF83
:1044400048E050E067E378E0CE010196A5D521E091
:104450000F900F900F900F900F900F90892B09F0F5
:1044600020E0822F28960FB6F894DEBF0FBECDBF96
:10447000DF91CF911F910F91EF9008950E948F17B8
:104480000E949A190E94E31419D962E575E580E04B
:1044900090E02DD767E070E082E090E028C780E0F0
:1044A00090E0E5D68235954529F482E090E0DFD6AC
:1044B000079709F0E3CF0895AA1BBB1B51E107C082
:1044C000AA1FBB1FA617B70710F0A61BB70B881FA4
:1044D000991F5A95A9F780959095BC01CD01089533
:1044E00097FB072E16F4009406D077FD08D0E4DF82
:1044F00007FC05D03EF4909581959F4F08957095E7
:1045000061957F4F0895A1E21A2EAA1BBB1BFD01E6
:104510000DC0AA1FBB1FEE1FFF1FA217B307E407A2
:10452000F50720F0A21BB30BE40BF50B661F771FFA
:10453000881F991F1A9469F76095709580959095DA
:104540009B01AC01BD01CF010895EE0FFF1F059047
:10455000F491E02D09942F923F924F925F926F92C7
:104560007F928F929F92AF92BF92CF92DF92EF9203
:10457000FF920F931F93CF93DF93CDB7DEB7CA1B84
:10458000DB0B0FB6F894DEBF0FBECDBF09942A88AF
:10459000398848885F846E847D848C849B84AA8457
:1045A000B984C884DF80EE80FD800C811B81AA81E4
:1045B000B981CE0FD11D0FB6F894DEBF0FBECDBFAF
:1045C000ED0108955058BB27AA270ED027C2F0D17D
:1045D00030F0F5D120F031F49F3F11F41EF4C0C14A
:1045E0000EF4E095E7FBB6C1E92F3AD280F3BA1793
:1045F000620773078407950718F071F49EF552C29D
:104600000EF4E0950B2EBA2FA02D0B01B9019001ED
:104610000C01CA01A0011124FF27591B99F0593F31
:1046200050F4503E68F11A16F040A22F232F342F79
:104630004427585FF3CF469537952795A795F040C7
:104640005395C9F77EF41F16BA0B620B730B840BDC
:10465000BAF09150A1F0FF0FBB1F661F771F881F94
:10466000C2F70EC0BA0F621F731F841F48F48795EC
:1046700077956795B795F7959E3F08F0B3CF9395DB
:10468000880F08F09927EE0F97958795089590D198
:1046900058F080E891E009F49EEF91D128F040E8CD
:1046A00051E059F45EEF09C05BC1FCC1E92FE0782D
:1046B000D7D168F3092E052AC1F326173707480713
:1046C000590738F00E2E07F8E02569F0E025E06480
:1046D0000AC0EF6307F8009407FADB01B9019D01F6
:1046E000DC01CA01AD01EF934AD098D10AD05F91A5
:1046F000552331F02BED3FE049E450FD49EC63CF09
:104700000895DF93DD27B92FBF7740E85FE31616E2
:10471000170648075B0710F4D92FCFD19F938F93CB
:104720007F936F9396D2EAE8F0E01DD177D12F9175
:104730003F914F915F91D4D1DD2349F09058A2EA87
:104740002AED3FE049EC5FE3D0785D274DDFDF9154
:1047500065C1DCD008F481E0089539D1E3956FC1DB
:104760000CD05CC12CD140F023D130F021F45F3F5C
:1047700019F0F0C0511197C1F3C072D198F3992389
:10478000C9F35523B1F3951B550BBB27AA27621715
:104790007307840738F09F5F5F4F220F331F441F5A
:1047A000AA1FA9F333D00E2E3AF0E0E830D0915092
:1047B0005040E695001CCAF729D0FE2F27D0660F7F
:1047C000771F881FBB1F261737074807AB07B0E8BE
:1047D00009F0BB0B802DBF01FF2793585F4F2AF0D4
:1047E0009E3F510568F0B6C05EC15F3FECF3983E56
:1047F000DCF3869577956795B795F7959F5FC9F731
:10480000880F911D9695879597F90895E1E0660FB9
:10481000771F881FBB1F621773078407BA0720F032
:10482000621B730B840BBA0BEE1F88F7E09508959B
:1048300004D06894B11137C108951AD188F09F57F8
:1048400090F0B92F9927B751A0F0D1F0660F771FDC
:10485000881F991F1AF0BA95C9F712C0B13081F0BC
:1048600021D1B1E008951EC1672F782F8827B85F46
:1048700039F0B93FCCF3869577956795B395D9F71D
:104880003EF490958095709561957F4F8F4F9F4F27
:104890000895E89409C097FB3EF490958095709533
:1048A00061957F4F8F4F9F4F9923A9F0F92F96E97C
:1048B000BB279395F695879577956795B795F111F1
:1048C000F8CFFAF4BB0F11F460FF1BC06F5F7F4F8E
:1048D0008F4F9F4F16C0882311F096E911C07723A0
:1048E00021F09EE8872F762F05C0662371F096E8A9
:1048F000862F70E060E02AF09A95660F771F881F78
:10490000DAF7880F9695879597F90895990F00081B
:10491000550FAA0BE0E8FEEF16161706E807F90791
:10492000C0F012161306E407F50798F0621B730B2C
:10493000840B950B39F40A2661F0232B242B252BAD
:1049400021F408950A2609F4A140A6958FEF811D50
:10495000811D089597F99F6780E870E060E00895F1
:104960009FEF80EC0895DF93CF931F930F93FF92F7
:10497000EF92DF927B018C01689405C0DA2EEF0183
:10498000AFD0FE01E894A5912591359145915591BF
:10499000AEF3EF0129DEFE019701A801DA9479F761
:1049A000DF90EF90FF900F911F91CF91DF910895CD
:1049B00000240A94161617061806090608950024FE
:1049C0000A9412161306140605060895C9CF50D08E
:1049D000E8F3E894E0E0BB279F57F0F02AED3FE0D2
:1049E00049EC06C0EE0FBB0F661F771F881F28F02B
:1049F000B23A62077307840728F0B25A620B730B4E
:104A0000840BE3959A9572F7803830F49A95BB0F32
:104A1000661F771F881FD2F790485BC1092E039449
:104A2000000C11F4882352F0BB0F40F4BF2B11F49B
:104A300060FF04C06F5F7F4F8F4F9F4F0895EF93CC
:104A4000E0FF06C0A2EA2AED3FE049EC5FEBCCDDD7
:104A5000E5DF0F90039401FC9058E7EBF0E04CC1C8
:104A600057FD9058440F551F59F05F3F71F047951F
:104A7000880F97FB991F61F09F3F79F08795089504
:104A8000121613061406551FF2CF4695F1DF08C023
:104A9000161617061806991FF1CF86957105610540
:104AA00008940895E894BB2766277727CB0197F9E8
:104AB00008952CDF08F48FEF08959B01AC0160E0AE
:104AC00070E080E89FE34CCE0BD0A8CF71DF28F0D8
:104AD00076DF18F0952309F03DCF42CF1124E3CFC4
:104AE000BFDFA0F3959FD1F3950F50E0551F629F54
:104AF000F001729FBB27F00DB11D639FAA27F00D37
:104B0000B11DAA1F649F6627B00DA11D661F829F5D
:104B10002227B00DA11D621F739FB00DA11D621F42
:104B2000839FA00D611D221F749F3327A00D611D5F
:104B3000231F849F600D211D822F762F6A2F112441
:104B40009F5750408AF0E1F088234AF0EE0FFF1F94
:104B5000BB1F661F771F881F91505040A9F79E3FCB
:104B6000510570F0F7CE9FCF5F3FECF3983EDCF33A
:104B7000869577956795B795F795E7959F5FC1F708
:104B8000FE2B880F911D9695879597F9089570DFF4
:104B9000E0F09E37D8F09639B8F49E3848F4672F85
:104BA000782F8827985FF9CF8695779567959395A5
:104BB0009539D0F3B62FB1706B0F711D811D20F4A4
:104BC000879577956795939567C081C06CCF11F4F1
:104BD0000EF4C6CE7CC04CDFD0F39923D9F3CEF3CC
:104BE0009F57550B87FF81D00024A0E640EA900133
:104BF00080585695979528F4805C660F771F881F1C
:104C000020F026173707480730F4621B730B840B1C
:104C1000202931294A2BA695179407942025312560
:104C20004A2758F7660F771F881F20F02617370787
:104C3000480730F4620B730B840B200D311D411DAE
:104C4000A09581F7B901842F9158880F9695879583
:104C500008959B01AC0138CFDF93D92FB8DEE695DC
:104C6000D7952AED3FE049E45FE3B33A6207730763
:104C700084079507D7952AF0A2EA49EC9068B4DC3E
:104C8000CDDEE5EDF0E038D0DD0F0BF016DFDD0F07
:104C90000BF49058DF910895882371F4772321F065
:104CA0009850872B762F07C0662311F499270DC0E3
:104CB0009051862B70E060E02AF09A95660F771F7E
:104CC000881FDAF7880F9695879597F908959F3F83
:104CD00031F0915020F4879577956795B795880FB7
:104CE000911D9695879597F9089591505040660FBC
:104CF000771F881FD2F708959F938F937F936F93A9
:104D0000FF93EF939B01AC01DFDEEF91FF912BDE70
:104D10002F913F914F915F91D7CE66277727EAC2B7
:104D2000FC0188279927E89421912032E9F3293062
:104D300010F02E30C8F32B3239F02D3231F4689454
:104D400003C078D1820F911D219120532A30C8F3DE
:104D50001EF4909581959F4F08951F93FC0199270C
:104D60008827BC01E89411911032E9F3193010F052
:104D70001E30C8F31B3249F01D3241F4689405C05F
:104D800044D1610F711D811D911D119110531A3075
:104D9000B8F33EF490958095709561957F4F8F4F55
:104DA0009F4F1F910895283008F027E03327DA013C
:104DB000990F311D87FD916000966105710539F4E9
:104DC00032602E5F3D9330E32A95E1F708959F3FCF
:104DD00030F080387105610509F03C5F3C5F3D9320
:104DE000913008F08068911DDF93CF931F930F934C
:104DF000FF92EF92192F987F9695E92F96959695A9
:104E0000E90FFF27E752F74F99273327EE24FF24B6
:104E1000A701E70105900894079428F4360FE71ED0
:104E2000F81E491F511D660F771F881F991F069492
:104E3000A1F70590079428F4E70EF81E491F561FA6
:104E4000C11D770F881F991F661F0694A1F7059053
:104E5000079428F4F80E491F561FC71FD11D880F4D
:104E6000991F661F771F0694A1F70590079420F4F9
:104E7000490F561FC71FD81F990F661F771F881F1E
:104E80000694A9F784911095177041F0D695C795AF
:104E900057954795F794E7941A95C1F7EFE7F8E02F
:104EA00068941590159135916591959105907FE2E3
:104EB0007395E118F10A430B560BC90BD009C0F7E3
:104EC000E10CF11E431F561FC91FD01D7EF4703325
:104ED00011F48A95E6CFE894015030F0080F0AF4F7
:104EE0000027021708F4202F2395022F7A3328F089
:104EF00079E37D932A95E9F710C07D932A9589F689
:104F0000069497956795379517951794E118F10AC8
:104F1000430B560BC90BD00998F023957E917395DE
:104F20007A3308F070E37C932013B8F77E917061B8
:104F30007D9330F0839571E37D9370E32A95E1F7DB
:104F40001124EF90FF900F911F91CF91DF9199273E
:104F500087FD90950895FB01DC0102C005900D923C
:104F600041505040D8F70895FB01DC0141505040BA
:104F700088F08D9181341CF08B350CF4805E659146
:104F800061341CF06B350CF4605E861B611171F3AB
:104F9000990B0895881BFCCFFB01DC014150504068
:104FA00030F08D910590801919F40020B9F7881B15
:104FB000990B0895FC010590615070400110D8F7DD
:104FC000809590958E0F9F1F0895DC0101C06D9311
:104FD00041505040E0F70895FC016150704001904D
:104FE0000110D8F7809590958E0F9F1F0895BB27CD
:104FF0002A3051F4992342F4BDE290958095709542
:1050000061957F4F8F4F9F4F1EC0592F482F372FCD
:10501000262F660F771F881F991F660F771F881F1F
:10502000991F620F731F841F951F660F771F881FBC
:10503000991F08957AE0979F902D879F802D910D5D
:1050400011240895BB27FA01A62F62177105810567
:105050009105330B30FB66F0AA27660F771F881F78
:10506000991FAA1FA21710F0A21B63953850A9F729
:10507000A05DAA3308F0A95DA19336F7B111B193F1
:105080001082CA0198C2A0E0B0E0E8E4F8E271CA78
:105090000F811885F801838188608383AE01455FA5
:1050A0005F4F69857A85C8010E940405F801238154
:1050B000277F2383E4E079CA0F931F93CF93DF9375
:1050C000182F092FEB018B8181FD03C08FEF9FEF1C
:1050D00020C082FF10C04E815F812C813D8142172C
:1050E00053077CF4E881F9819F012F5F3F4F39839B
:1050F0002883108306C0E885F985812F0995892BBF
:1051000029F72E813F812F5F3F4F3F832E83812FD1
:10511000902FDF91CF911F910F910895AEE0B0E0F5
:10512000E3E9F8E226CA0D891E898F89988D2EE061
:105130002C831A83098397FF02C080E090E80197CF
:105140009E838D83AE01455E5F4F698D7A8DCE0162
:1051500001960E9404054D815E8157FD0AC02F8192
:105160003885421753070CF49A01F801E20FF31F38
:1051700010822E96E4E019CAFA01AA27283051F1CC
:10518000203181F1E8946F936E7F6E5F7F4F8F4F78
:105190009F4FAF4FB1E03ED0B4E03CD0670F781FD7
:1051A000891F9A1FA11D680F791F8A1F911DA11DBC
:1051B0006A0F711D811D911DA11D20D009F46894F5
:1051C0003F912AE0269F11243019305D3193DEF69D
:1051D000CF010895462F4770405D4193B3E00FD053
:1051E000C9F7F6CF462F4F70405D4A3318F0495D3E
:1051F00031FD4052419302D0A9F7EACFB4E0A69521
:105200009795879577956795BA95C9F70097610542
:10521000710508959B01AC010A2E06945795479598
:1052200037952795BA95C9F7620F731F841F951F8D
:10523000A01D0895DC01CB01FC01F999FECF06C049
:10524000F2BDE1BDF89A319600B40D924150504044
:10525000B8F70895F999FECF92BD81BDF89A9927C4
:1052600080B50895A6E1B0E044E050E0E5CFA8E1C4
:10527000B0E042E050E0E0CFDC01A40FB51F4150A8
:10528000504040F0CB01840F951F2E9105D0415026
:105290005040D8F70895262FF999FECF92BD81BDD1
:1052A000F89A019700B4021639F01FBA20BD0FB664
:1052B000F894FA9AF99A0FBE08950396272FECDF17
:1052C000EADF252FE9DF242FE7CF0196272FE4DF40
:1052D000E2CF262FF999FECF1FBA92BD81BD20BD26
:1052E0000FB6F894FA9AF99A0FBE01960895F1DF75
:1052F000272FF0CFA0E0B0E0EFE7F9E232C98B0151
:105300006115710521F0DB018C9311969C93EC01E2
:105310005E01BFEFAB1ABB0A7501C8808C2D90E00F
:1053200042D1892B11F0E501F3CFEDE2CE1208C096
:105330007E01F2E0EF0EF11CC980DD24D39409C098
:105340002BE2C21205C07E0142E0E40EF11CC980CE
:10535000D12CE701219743E050E061E879E0CE01EC
:1053600003DE892BB9F4239645E050E06CE779E041
:10537000CE01FADD892B09F425960115110519F0E6
:10538000D801CD93DC93D11000C160E070E080E8DB
:105390009FE704C143E050E069E779E0CE01E4DD36
:1053A000892B59F40115110509F4F4C0B2E0EB0E94
:1053B000F11CF801F182E082EDC0F70160E070E0DD
:1053C000CB01C0E0D0E07F01A0EDAA2EAC0C29E01B
:1053D0002A1528F14D2D4260B42E2D2D2870D2FEB5
:1053E00004C0211124C0219622C021112197A5E0DB
:1053F000B0E09B01AC01F2D0660F771F881F991FA8
:105400006A0D711D811D911D6839A9E97A078A0706
:10541000A9E19A0760F0BD2DB660BB2E08C02EEF43
:10542000A2120AC0D3FC50C04D2D4860B42E319654
:10543000D701CC90DB2CC7CF2C2D2F7D253409F044
:1054400043C0A081AD3241F4BD2DB061DB2E7F01A0
:1054500022E0E20EF11C0CC07F01AB3231F04FEFC5
:10546000E41AF40A21E030E006C0A2E0EA0EF11CE2
:10547000A18122E030E0A053AA3018F0E21AF30A2A
:1054800023C0F70120E030E02038BCE03B075CF4AB
:10549000A901440F551F440F551F240F351F220F1C
:1054A000331F2A0F311DAF014F5F5F4F7A01A0817B
:1054B000A053AA3010F4FA01E7CFD4FE03C031950F
:1054C00021953109C20FD31FD1FE09C00115110565
:1054D00031F0E1E0EE1AF108D801ED92FC92D9D951
:1054E0002D2D2370233019F04B015C0106C04B01B8
:1054F0005C01B7FAB094B7F8B09420E030E0A901AD
:10550000C501B40126D9882309F43CC0D7FF06C0E1
:10551000D195C195D10908E919E002C000EB19E065
:105520006801B8E1CB1AD10890E2E92EF12CCE1532
:10553000DF056CF0F8012591359145915491C50135
:10554000B401C2DA4B015C01CE19DF09F0CF04507F
:105550001109F594E7940C151D0549F78A2D880F5C
:105560008B2D881F8F3F41F020E030E0A901C5015D
:10557000B401EFD8811106C082E290E090932A0531
:1055800080932905C501B40109C060E070E080E89E
:105590009FEF04C060E070E080EC9FE7CDB7DEB71E
:1055A000ECE00C94CD22911116C0803219F0895094
:1055B0008550D0F70895DC01FC01672F71917723A6
:1055C000E1F7329704C07C916D9370836291AE17BE
:1055D000BF07C8F3089599278827089509D0A59F84
:1055E000900DB49F900DA49F800D911D11240895DE
:1055F000A29FB001B39FC001A39F700D811D112414
:10560000911DB29F700D811D1124911D0895F89474
:02561000FFCFCA
:105612000000604066668640CDCC6C40CDCC4C40EC
:085622002D2D2D2D2D00031884
:00000001FF
