:1000000029C500000C94371A4DC500004BC50000EF
:1000100049C5000047C5000045C5000043C50000B4
:1000200041C500003FC500003DC500003BC50000C4
:1000300039C5000037C500000C94221733C50000F5
:1000400031C500002FC500000C9425160C945316E2
:1000500029C5000027C5000025C5000023C50000F4
:1000600021C500001FC50000901190119A11AA111E
:10007000A311B211BA11C511DA11F511F511084A1F
:10008000D73B3BCE016E84BCBFFDC12F3D6C7431AC
:100090009ABD56833DDA3D00C77F11BED9E4BB4C03
:1000A0003E916BAAAABE000000803F05A84CCDB2CD
:1000B000D44EB93836A9020C50B9918688083CA6AE
:1000C000AAAA2ABE000000803F0664EC1B3C04BCC8
:1000D000163E3BE5B93CC93C37C29E5A3D66049882
:1000E000083EEA69AAAA3E000000803F6E616E00E9
:1000F000696E6600496E76616C696420636F6D6D30
:10010000616E6400202D2000253033753A200050A8
:10011000414E454C533A0D0A004D4F44554C455302
:100120003A200056455253494F4E3A2025303475F7
:100130000D0A00417267733A2064202D2064756DAA
:10014000702C2072202D20726561642C2077202D68
:100150002077726974652C2073202D207365742CB0
:100160002067202D2067657400417267733A203C38
:10017000627C697C777C6C7C663E203C6164647246
:100180003E002566002575002569002575004D6136
:1001900078206164647220257500417267733A208B
:1001A0003C627C697C777C6C7C663E203C6164644C
:1001B000723E203C76616C75653E004D6178206131
:1001C0006464722025750025303278200025303493
:1001D000783A2000526573657420746F20646566F8
:1001E00061756C74732E2E2E2000417267733A2055
:1001F00075202D2075706C6F61642C2064202D207B
:10020000646F776E6C6F61640053656E64204D435C
:100210004D2D66696C650D0A004D415837343536F1
:100220000D0A0055706C6F616420616E6420646F0C
:10023000776E6C6F6164206D636D2D66696C65000F
:10024000666F6E74005265736574207365747469AB
:100250006E677320746F2064656661756C747300DB
:10026000726573657400526561642F777269746595
:1002700020454550524F4D2C206765742F7365748F
:100280002076616C75657300656570726F6D0046F0
:1002900069726D776172652076657273696F6E2C15
:1002A000206D6F64756C65732C2070616E656C7366
:1002B00000696E666F00436F6D6D616E6473206CD4
:1002C0006973740068656C70004578697420636FA9
:1002D0006E736F6C650065786974005265626F6F4C
:1002E00074204F5344007265626F6F7400446F6EE8
:1002F000652E0D0A0040022302650A60024502FADB
:1003000008880266022C0CB1028F020409C402B6EE
:1003100002DD08D602C902CE08E602DB02D1084D92
:1003200041564C696E6B001F034515201581123232
:100330007C8900EDD96877000000590000000000BA
:10034000000000D69FDCA81817AA90437327F6B9BF
:1003500068EDF4DED409FEE61C1C84DDE80B992967
:10036000274E0000000F03000000000099B7333B48
:1003700076941500F37C000026149E988F000000F0
:100380006A31168F8C059600E7B73F3600000000F3
:10039000000000AF669ED0385D8A6C20B95422AE52
:1003A0007CED044C80387486EDCBFA57CBDC19E237
:1003B0002E1DDF5506E5CB01C36DA8B5000000007A
:1003C00000009AB2FF86DBD0BC5416131586004E8F
:1003D00044BD7F9A15159001EA49B51653A78AEADC
:1003E000F02FBD34AEE555000048000000005C244D
:1003F0004762000000000086CD5E80363F70C9DD98
:10040000E2EE00000000F19B2B95000000000000D0
:1004100000000000000000000000000000000000DC
:100420000000000000000008CC31AA2C532E005B15
:1004300004560451044C04470442043D044D414E0B
:10044000550048494C200053544142004755494407
:10045000004155544F0054455354004355535400E4
:10046000CF04CA04C504C004BB04B604B104AC0480
:100470000000A704A2049D040000980493048E04C5
:100480008904840442524B200050484C440041549B
:10049000554E00464C495000535052540044524669
:1004A00054004F464C54004C414E44004352434C80
:1004B0000052544C20004C4F4954004755494400C9
:1004C0004155544F0041484C44004143524F005362
:1004D00054414200370532052D05280523051E0528
:1004E000190514050F0500000A05050500050000A3
:1004F0000000FB04F604494E4954004755494400A6
:100500004C4F49540052544C20004155544F004127
:1005100054554E0043525549004642574200464208
:100520005741004143524F0054524E200053544112
:1005300042004352434C004D414E550053054E0579
:1005400049054405484F4D45004E4156200053543F
:100550004142004D414E55006F056A056505600535
:10056000484F4D4500415554320041555431004DDE
:10057000414E55000000A2059D05980593058E0586
:100580008905840552544753004C414E440052544F
:100590004C20004D49534E004C4F495400544B4F92
:1005A000460052445920000000D005CB05C6050086
:1005B00000C105BC05B70553544142004F464642B1
:1005C000004143524F00504F534300414C544300AD
:1005D0004D414E5500010A0219030506050A140B88
:1005E000050C05424F4F540D0A004D756C74694F50
:1005F000534420762E253034750D0A00FC20434FDD
:100600004E46494700082008006F73642320000D00
:100610000A00040000030300161401021800070179
:100620000600010806010A05010D0E160EFFFFFF68
:10063000040000030300140701161501021800004E
:1006400001080B080605010D12010E0E160EFFFF24
:10065000FF0801010908010A130104000203030253
:100660001615030218020701060B08060C17060DE3
:10067000010800170806010A01170A05010D1709EC
:100680000C12010E13080E0E160C0F160D10160E7E
:10069000FFFFFFFD252E31668A0025758D00252E72
:1006A00031668B002553000909098D00455252001F
:1006B000FB25758200FA252E32668F00252E3266C4
:1006C0008E008025648100872564252500842530DF
:1006D000322E366600832530322E36660045525261
:1006E00000101100256400B12564B000B22564B08B
:1006F00000B3253032753A253032750009090909F1
:10070000002563252E31668C008525648D00D8D99F
:10071000DADBDCDDDEDFD0D1D2D3D4D5D6D753744B
:1007200061626C65416C7400436C696D6200466C7B
:10073000696768744D6F64650041726D6564466CED
:10074000616700436F6E537461746500466C69673E
:10075000687454696D6500526F6C6C005069746305
:100760006800475053004C6174004C6F6E00C82005
:100770002020202020202020202020C900B8202058
:1007800020202020202020202020B900486F7269DE
:100790007A6F6E005468726F74746C650047726F84
:1007A000756E64537065656400426174566F6C7455
:1007B0006167650042617443757272656E740042D0
:1007C0006174436F6E73756D65640052535349468F
:1007D0006C616700486F6D6544697374616E636531
:1007E00000486F6D65446972656374696F6E00439C
:1007F000616C6C5369676E0054656D7065726174ED
:1008000075726500240820081C08180814081008D0
:10081000E2E3E400E2E3E700E2E3E800E2E6E80026
:10082000E2E8E800E5E8E8005253534900C2C0C1DD
:10083000C0C4C0C1C0C3C0C1C0C5C0C1C0436F6DCA
:1008400070617373001E07461BF81A2807EF1CFC23
:100850001A2E07F31AB81F3907F41AD61F4307F5E3
:100860001AF31F4C076A1B001B57078D1B041B5CE8
:1008700007B01B081B6207D31BAF1E6607F31B0CD8
:100880001B6A07171C101B8C071820141B94073BAE
:100890001C2E1B9D075B1C321BA9073F1DDB1DB4D3
:1008A00007841C361BBF07A81C3A1BCB07F61AE7A8
:1008B0001ED4072C1EED1DE107111EEF1EEF07F7DA
:1008C0001A3E1BF807CB1C421B28087C1DD51D3D7A
:1008D00008A31DFF1D636F6E6669670052454144A2
:1008E000590D0A0053656E642022636F6E66696756
:1008F00022206F7220776169742025757300FC20B7
:100900006D6F64756C65733A00BDBEBF004D756C4C
:1009100074694F534420762E253034750000407A98
:1009200010F35A00A0724E18090010A5D4E8000078
:10093000E87648170000E40B54020000CA9A3B0016
:100940000000E1F505000080969800000040420F8D
:10095000000000A08601000000102700000000E851
:1009600003000000006400000000000A0000000016
:10097000000100000000002C76D888DC674F0823B7
:10098000DFC1DFAE59E1B1B796E5E3E453C63AE61D
:1009900051997696E8E6C28426EB898C9B62ED40FD
:1009A0007C6FFCEFBC9C9F40F2BAA56FA5F490054C
:1009B0005A2AF75C936B6CF9676DC11BFCE0E40D80
:1009C00047FEF520E6B500D0ED902E030094357774
:1009D000050080841E080000204E0A000000C80C9C
:1009E000333333330F986E12831141EF8D21148905
:1009F0003BE65516CFFEE6DB18D1844B381BF77C5F
:100A00001D901DA4BBE424203284725E228100C9A3
:100A1000F124ECA1E53D274E414E494E4954594938
:100A20004E46CDCCCC3D0AD7233C17B7D13877CC36
:100A30002B329595E6241FB14F0A0000204100009B
:100A4000C84200401C4620BCBE4CCA1B0E5AAEC554
:100A50009D74A50C11241FBECFEFD8E0DEBFCDBF23
:100A600011E0A0E0B1E0E4E0F5E502C005900D92F0
:100A7000AC31B107D9F726E0ACE1B1E001C01D927D
:100A8000A833B207E1F71AE0C4E5DAE004C0229720
:100A9000FE010E942022C235D107C9F70E94991594
:100AA0000C94802AADCAA3E1B0E0E9E5F5E00C942E
:100AB00024227C011B016A01FC01178216828381BA
:100AC00081FF66C3BE016F5F7F4F4B01F7019381CA
:100AD000F10193FD859193FF81911F01882309F412
:100AE00053C3853239F493FD859193FF81911F01A2
:100AF000853239F4B70190E00E94D527560165018F
:100B0000E5CF10E0512C20E02032A0F48B3269F0C8
:100B100030F4803259F0833269F420612CC08D3278
:100B200039F0803339F4216026C02260246023C06C
:100B3000286021C027FD27C030ED380F3A3078F407
:100B400026FF06C0FAE01F9F300D1124132F13C09B
:100B50006AE0569E300D1124532E20620CC08E3256
:100B600021F426FD11C3206406C08C3611F42068E0
:100B700002C0883641F4F10193FD859193FF819184
:100B80001F018111C1CF9BEB980F933018F42061A6
:100B9000805E06C09BE9980F933008F0AAC12F7EB3
:100BA00026FF16E02F73722E853621F4F22FF064A3
:100BB0007F2E08C0863621F4622F6068762E02C030
:100BC0001111115077FE07C01C3348F4442443949C
:100BD000410E27E00BC0183030F4212F06C027E06B
:100BE0004CE3442E03C027E017E0412C560174E08B
:100BF000A70EB11CF6016081718182819381042D61
:100C0000A4010E944C266C01098100FF02C003FF71
:100C100006C071FC07C072FC08C0612C08C03DE230
:100C2000632E05C02BE2622E02C090E2692E802F57
:100C30008C7099F1662011F084E001C083E0851585
:100C400010F0512C0BC0581A73FC08C0B70180E299
:100C500090E00E94D5275A94C9F7F3CF662029F077
:100C6000B701862D90E00E94D52703FD03C000EF59
:100C700010E002C00CEE10E0F72DF0717F2EF801AD
:100C80008491882309F476C271108052B70190E0F4
:100C90000E94D5270F5F1F4FF2CF77FE0FC04C0C7D
:100CA00004FF04C08A81813309F44A94141474F552
:100CB000F8E0F41578F588E0482E2CC076FC2AC0C0
:100CC000812F90E08C159D059CF06CEFC6166FEFA0
:100CD000D60674F0772D7068772E0AC0E2E0F0E057
:100CE000EC0FFD1FE10FF11D8081803319F41150CD
:100CF0001111F4CF77FE0EC044244394410E812F8E
:100D000090E0C816D9062CF41C1904C0442443945E
:100D100001C010E077FE07C01C141D043CF49601CE
:100D20002F5F3F4F05C025E030E002C021E030E0FA
:100D3000662011F02F5F3F4F112331F0412F50E01B
:100D40004F5F5F4F240F351F452D50E024173507A7
:100D500014F4521A01C0512C872D897049F4552082
:100D600039F0B70180E290E00E94D5275A94F7CF7E
:100D7000662029F0B701862D90E00E94D52773FCEC
:100D800009C0552039F0B70180E390E00E94D527D3
:100D90005A94F7CF77FE5FC09C2D8D2DD7FE02C0F1
:100DA00090E080E0692E782E40E050E0C601841982
:100DB00091099D878C87960126193709280D391DC1
:100DC000812F90E0EE27FF27E81BF90BFF87EE87C6
:100DD000FFEF6F167F0669F4B7018EE290E02B8B70
:100DE0003A8B488B598B0E94D527598948893A8973
:100DF0002B89C614D70454F06C857D85661577055C
:100E00002CF4F901E40FF51F818101C080E371E04A
:100E1000671A71084F5F5F4FEE85FF856E167F067C
:100E20006CF0B70190E02B8B3A8B488B598B0E946A
:100E3000D5272B893A8948895989CACF6C147D04F2
:100E400039F49A81963318F4953311F404FF81E351
:100E5000B70190E04BC08A81813309F00F7EB70162
:100E600090E00E94D527111105C074FE18C085E4DA
:100E700090E017C0B7018EE290E00E94D52782E093
:100E800066246394680EF401E80FF11D8081B701B8
:100E900090E00E94D527115041F3862DF1CF85E6D1
:100EA00090E0B7010E94D527D7FC05C0C114D1043A
:100EB00039F404FF05C0D194C194D1088DE201C07A
:100EC0008BE2B70190E00E94D52780E36AE0C61666
:100ED000D1042CF08F5FFAE0CF1AD108F7CFB70119
:100EE00090E00E94D527B701C601C0960E94D52781
:100EF00041C1833631F0833779F0833509F058C02A
:100F000021C0560172E0A70EB11CF60180818983D1
:100F100001E010E0640114C05601F2E0AF0EB11C14
:100F2000F601C080D18026FF03C0612F70E002C0AF
:100F30006FEF7FEFC6012B8B0E9465278C012B89F9
:100F40002F7715C05601F2E0AF0EB11CF601C0803C
:100F5000D18026FF03C0612F70E002C06FEF7FEFEA
:100F6000C6012B8B0E9453278C012B892068722E7F
:100F700023FD1AC0852D90E008171907A8F4B701C2
:100F800080E290E00E94D5275A94F4CFF60177FCD6
:100F9000859177FE81916F01B70190E00E94D5277E
:100FA00051105A94015011090115110579F7E2C049
:100FB000843611F0893651F5560127FF09C0F4E057
:100FC000AF0EB11CF60160817181828193810AC0EC
:100FD000F2E0AF0EB11CF60160817181882777FDC8
:100FE0008095982F022F0F7697FF08C090958095D7
:100FF000709561957F4F8F4F9F4F00682AE030E0DA
:10100000A4010E943528C82EC8183EC0022F85377B
:1010100021F40F7E2AE030E01DC0097F8F3691F069
:1010200018F4883559F0B0C0803719F0883711F0BE
:10103000ABC0006104FF09C0046007C024FF08C002
:10104000066006C028E030E005C020E130E002C0C4
:1010500020E132E0560107FF09C0F4E0AF0EB11CF9
:10106000F601608171818281938108C0F2E0AF0E48
:10107000B11CF6016081718180E090E0A4010E94C2
:101080003528C82EC8180F7706FF0BC0202F2E7FDB
:10109000C11650F404FF0AC002FD08C0202F2E7EA6
:1010A00005C0DC2C202F03C0DC2C01C0D12E24FF76
:1010B0000DC0FE01EC0DF11D8081803311F4297EFD
:1010C00009C022FF06C0D394D39404C0822F86782F
:1010D00009F0D39423FD13C020FF06C01C2DD514A6
:1010E00018F4150D1D19D52CD51468F4B70180E23C
:1010F00090E02B8B0E94D527D3942B89F5CFD51464
:1011000010F45D1801C0512C24FF12C0B70180E318
:1011100090E02B8B0E94D5272B8922FF17C021FF3F
:1011200003C088E590E002C088E790E0B7010CC0FA
:10113000822F867859F021FD02C080E201C08BE247
:1011400027FD8DE2B70190E00E94D527C11638F443
:10115000B70180E390E00E94D5271150F7CFCA94E1
:10116000F401EC0DF11D8081B70190E00E94D527BC
:10117000C110F5CF552009F4C2CCB70180E290E050
:101180000E94D5275A94F6CFF7018681978102C035
:101190008FEF9FEF6396E2E10C9440221092FB03E5
:1011A00008952CE088E190E00FB6F894A89580931C
:1011B00060000FBE20936000FFCFCF93DF93C5EF99
:1011C000D2E0FE01859194910E94EC1684E091E0BA
:1011D0000E94EC16FE013296859194910E94EC16C5
:1011E0000E949E15269683E0CF31D80751F7DF91F4
:1011F000CF91089584ED91E00E94EC160E94B721F2
:101200008DEE92E00C94EC16BF92CF92DF92EF92AB
:10121000FF920F931F93CF93DF931F9287E08F93DB
:1012200083E291E09F938F938FE194E09F938F935C
:101230000E94BC2789E191E00E94EC160F900F906C
:101240000F900F900F900F90C0E0D0911A01CD1722
:1012500078F488E0C89FF0011124E95DFC4F859186
:1012600094910E94EC1680E20E94C816CF5FEFCFE7
:101270000E949E158FE091E00E94EC16D12CB09058
:101280001B01C8E0D1E00FE114E086E0C82EDB14BA
:10129000F8F4ED2CF12C1F92DF92DF93CF931F9384
:1012A0000F930E94BC27CE9CF001CF9CF00D11241F
:1012B000EB5BF74F859194910E94EC160E949E156E
:1012C000D3940F900F900F900F900F900F90DFCF4F
:1012D000DF91CF911F910F91FF90EF90DF90CF9012
:1012E000BF9008950E94A9169C012227232BD1F7B5
:1012F0000895EF92FF920F931F93CF93DF93009186
:10130000080508500E946D18C0E0D0E0EC2EFC2EBD
:10131000F29490EFF92210E0412F4F2920E06E2D3A
:10132000802F810F0E947A181F5F1031A9F7219634
:10133000C031D10559F7DF91CF911F910F91FF90E7
:10134000EF9008950F931F93CF93DF93C0E0D0E009
:10135000082F10E0C8010C2E02C0959587950A94BD
:10136000E2F780FF02C081E301C080E30E94C8165B
:101370002196C830D10571F7DF91CF911F910F9160
:101380000C949E15CF92DF92EF92FF920F931F93D2
:10139000CF93DF93CDB7DEB7E6970FB6F894DEBFF5
:1013A0000FBECDBFA6DF89E192E00E94EC1600E0FF
:1013B00010E06E0187E3C80ED11CBE016F5F7F4F46
:1013C000802F0E942018FE0131967F01F701819144
:1013D0007F01B8DFEC14FD04C9F72AE0F22E80E0AB
:1013E000B1DFFA94E1F70F5F1F4F0115F1E01F071E
:1013F00021F7E6960FB6F894DEBF0FBECDBFDF91A2
:10140000CF911F910F91FF90EF90DF90CF900895B3
:10141000CF93DF93D8E0C0E065DF8170CC0FC82B9D
:10142000D150D1F75FDF5EDF8C2FDF91CF91089530
:10143000CF92DF92EF92FF920F931F93CF93DF93A0
:10144000CDB7DEB7E6970FB6F894DEBF0FBECDBFBF
:1014500050DF89E092E00E94EC1619E043DF115062
:10146000E9F700E010E06E0187E3C80ED11CCE0161
:1014700001967C01CDDFF70181937F01EC15FD051D
:10148000C9F73AE0F32EC4DFFA94E9F7BE016F5FC3
:101490007F4F802F0E94E7170F5F1F4F0115F1E06C
:1014A0001F0729F78DEE92E00E94EC16E6960FB624
:1014B000F894DEBF0FBECDBFDF91CF911F910F918A
:1014C000FF90EF90DF90CF90089560E070E081E0B2
:1014D0000E94A815009771F0FC018081853541F0CC
:1014E00018F4843431F00895843619F0853731F4D6
:1014F0009FCF48CF8AEE91E00C94EC1608958F921E
:101500009F92AF92BF92CF92DF92EF92FF920F9392
:101510001F93CF93DF93C0E0D0E05DECA52E51E0A8
:10152000B52E0FE114E067EC862E61E0962E6E0179
:1015300044E0CC0CDD1C4A95E1F7DF92CF92BF92DC
:10154000AF921F930F930E94BC270F900F900F90A4
:101550000F900F900F90E12CF12CC7018C299D2941
:101560000E94A3281F928F939F928F921F930F9395
:101570000E94BC278FEFE81AF80A0F900F900F9087
:101580000F900F900F9080E1E816F10431F70E9460
:101590009E152196C034D10551F6DF91CF911F9150
:1015A0000F91FF90EF90DF90CF90BF90AF909F9002
:1015B0008F900895CF93DF93C0E0D0E0CE010E94DA
:1015C000A3280E94C8162196C11584E0D807B1F758
:1015D000DF91CF910895CF93DF93C0E0D0E082DE1A
:1015E000682FCE010E94C4282196C11584E0D80737
:1015F000B1F7DF91CF9108950F931F93CF93DF93AE
:1016000060E070E083E00E94A815EC0160E070E00B
:1016100084E00E94A8158C01209709F477C00097F8
:1016200009F474C0CE010E940926EC01C11584E0C2
:10163000D807C0F084E08F931F928BEB91E09F93CB
:101640008F938FE194E09F938F930E94BC270F901C
:101650000F900F900F900F900F90DF91CF911F91EF
:101660000F91089560E070E082E00E94A815FC01EF
:101670008081873549F158F48634E1F118F48234D9
:1016800099F044C08934D9F08C3441F13FC0893697
:10169000B1F028F4823641F0863661F137C08C36DD
:1016A000E9F0873789F032C0C8010E940926682F07
:1016B000CE01DF91CF911F910F910C94C428C801E6
:1016C0000E940926BC0103C0C8010E942626CE0143
:1016D000DF91CF911F910F910C94DE28C8010E94D9
:1016E0002626AB01BC01CE01DF91CF911F910F9156
:1016F0000C94D628C8010E940626AB01BC01CE017D
:10170000DF91CF911F910F910C94D6288AE991E037
:10171000DF91CF911F910F910C94EC160F931F93B3
:10172000CF93DF93CDB7DEB72D970FB6F894DEBF1A
:101730000FBECDBF60E070E083E00E94A815009767
:1017400009F47BC00E9409268C01011584E018076A
:1017500030F084E08F931F928EE891E02AC060E021
:1017600070E082E00E94A815FC0180818735C1F1FC
:1017700060F4863409F44AC018F4823499F05DC0EC
:10178000893431F18C34A1F158C0893609F128F43B
:10179000823641F08636D1F150C08C3649F1873718
:1017A000F9F04BC0C8010E94A3281F928F938BE8C9
:1017B00091E09F938F938FE194E09F938F930E948A
:1017C000BC270F900F900F900F900F900F9039C083
:1017D000C8010E94B0289F938F9388E891E0E9CFD9
:1017E000C8010E94B0289F938F9385E891E0E1CFD4
:1017F000C8010E94AB282AE0AE014F5F5F4F0E94F4
:101800007027CE0101960E94E1161BC0C8010E94FC
:10181000AB289F938F937F936F9382E891E09F9380
:101820008F938FE194E09F938F930E94BC270FB614
:10183000F894DEBF0FBECDBF04C089E691E00E94E0
:10184000EC162D960FB6F894DEBF0FBECDBFDF911C
:10185000CF911F910F91089560E070E081E00E94A8
:10186000A815009711F1FC0180818735D9F058F453
:101870008734D1F018F4843499F017C0823589F098
:10188000833589F012C0823761F028F4843641F044
:10189000873651F00AC0833731F0873719F005C019
:1018A0002ECE88CE98CEA8CE39CF83E391E00C948B
:1018B000EC16CF92DF92EF92FF920F931F93CF938C
:1018C000DF937C0105EF12E0C0E0D0E0C62ED12C02
:1018D000F80165917491A601C7010E942D27892BFB
:1018E00071F486E08C9FF0018D9FF00D1124E7507C
:1018F000FD4F85919491FC01099581E007C02196E7
:101900000A5F1F4FC730D10519F780E0DF91CF91F3
:101910001F910F91FF90EF90DF90CF90089560E0BE
:1019200070E080E00E94A81560E0FC01E60FF11D68
:1019300020812F7D11F06F5FF8CFBBDF811104C0D4
:1019400084EF90E00C94EC1608958CE380931C01D6
:1019500010921D018AE090E090931F0180931E0178
:101960001092200110922101109222011092230165
:10197000109225011092240108954DEC5CEC6CE46A
:1019800070E481E490E00E94D6284DEC5CEC6CE6BB
:1019900070E485E490E00E94D62846E656E666E8C4
:1019A00070E489E490E00E94D62840E050E060E6D0
:1019B00070E48DE490E00C94D628CF92DF92EF9201
:1019C000FF92CF93DF9300D000D0CDB7DEB781E494
:1019D00090E00E94AB289B01AC0160930C017093D6
:1019E0000D0180930E0190930F0185E490E029830F
:1019F0003A834B835C830E94AB2860930801709309
:101A0000090180930A0190930B0189E490E00E9400
:101A1000AB286B017C0160930401709305018093F6
:101A20000601909307018DE490E00E94AB2860933B
:101A300000017093010180930201909303012981B9
:101A40003A814B815C81C701B6010E945B226093A1
:101A5000490270934A0280934B0290934C020F907C
:101A60000F900F900F90DF91CF91FF90EF90DF904C
:101A7000CF9008958F929F92AF92BF92CF92DF92B4
:101A8000EF92FF92CF9380915202811118C0209162
:101A900008013091090140910A0150910B016091B8
:101AA0005B0270915C0280915D0290915E020E94E7
:101AB00029230E9440250E94962360935202609140
:101AC0005202662349F170E080E090E00E94C42356
:101AD0009B01AC0160915B0270915C0280915D02A0
:101AE00090915E020E94292360934E0270934F02F0
:101AF0008093500290935102C1E0209100013091F7
:101B0000010140910201509103010E942223181605
:101B10000CF4C0E0C0933F02C0904E02D0904F0240
:101B2000E0905002F090510280900C0190900D01D5
:101B3000A0900E01B0900F01A5019401C701B6015C
:101B40000E94D2241816DCF4A5019401C701B60145
:101B50000E945B222091490230914A0240914B023F
:101B600050914C020E94292320E030E048EC52E4DE
:101B70000E94DD240E949623653628F401C060E0AF
:101B800060934D0203C084E680934D02CF91FF9095
:101B9000EF90DF90CF90BF90AF909F908F9008957F
:101BA0008F929F92AF92BF92CF92DF92EF92FF926D
:101BB000CF93DF9320915702309158024091590200
:101BC00050915A02609145027091460280914702FD
:101BD000909148020E945C224B015C016093450297
:101BE00070934602809347029093480260914402AA
:101BF0006F5F60934402C090C702D090C802E0902B
:101C0000C902F090CA028091400290914102E6011F
:101C1000C81BD90BC43F81E0D80708F444C070E06A
:101C200080E090E00E94C4239B01AC01C501B40197
:101C30000E9429234B015C01BE0180E090E00E94DC
:101C4000C2239B01AC01C501B4010E94DD2420E048
:101C500030E041E655E40E9429239B01AC016091EC
:101C600053027091540280915502909156020E9445
:101C70005C226093530270935402809355029093B8
:101C8000560210924502109246021092470210929C
:101C9000480210924402C0924002D0924102E09267
:101CA0004202F0924302DF91CF91FF90EF90DF90DC
:101CB000CF90BF90AF909F908F90089581E08093D8
:101CC0003D0208954F925F926F927F928F929F9202
:101CD000AF92BF92CF92DF92EF92FF92CF93DF93BA
:101CE00000D000D0CDB7DEB780913D02882309F443
:101CF000E8C08130E1F5809183028823B1F183301F
:101D0000B1F582E080933D0280918D0290918E0228
:101D1000A0918F02B091900280933302909334028D
:101D2000A0933502B0933602809191029091920275
:101D3000A0919302B091940280932F02909330026D
:101D4000A0933102B09332028091690290916A02AD
:101D5000A0916B02B0916C0280932B0290932C02A5
:101D6000A0932D02B0932E0202C010923D028091EA
:101D70003D02823009F0A5C0C0902F02D090300201
:101D8000E0903102F0903202C701B6019F7725E35F
:101D90003AEF4EE85CE30E94DD240E9426234B01CB
:101DA0005C0120918D0230918E0240918F02509102
:101DB00090026091330270913402809135029091CB
:101DC00036020E945B222B013C012091910230914E
:101DD00092024091930250919402C701B6010E9471
:101DE0005B226B017C01C301B2019F7720EC3BE6D3
:101DF00049ED57E40E94DD24A50194010E94DD24F1
:101E00000E94A22569837A838B839C83C701B601D4
:101E10009F7720EC3BE649ED57E40E94DD240E94C9
:101E2000A2259B01AC0169817A818B819C810E94F2
:101E30005C220E9464256093390270933A02809379
:101E40003B0290933C0277FA709477F87094A50166
:101E5000940160E070E080E89FE30E9429239B01E9
:101E6000AC01C701B6010E94DD24A30192010E94CA
:101E7000CF2220EE3EE245E652E40E94DD2420E03F
:101E800030E044EB52E40E945C220E9491239B01CB
:101E900077FF02C028593E4FC901845B910997FF23
:101EA00002C088599E4F20915F0230916002821BD0
:101EB000930B97FF02C088599E4F909338028093EE
:101EC00037020F900F900F900F90DF91CF91FF90FE
:101ED000EF90DF90CF90BF90AF909F908F907F90CA
:101EE0006F905F904F90089597FF02C088599E4F62
:101EF000883621E0920710F088569140909327028F
:101F000080932602089580E490E00E94A3288D34F7
:101F100011F00E94B72145E050E061E570E081ECEE
:101F200092E00E9493281092C60247DDEBE2F3E0B4
:101F300025913491F9010994AAD76093C70270934F
:101F4000C8028093C9029093CA02EDE2F3E0859142
:101F50009491FC0109946DE480E490E00E94C4280F
:101F600045E050E061E570E084E191E00E94B52831
:101F700004DDE9E2F3E025913491F9010994FB01D4
:101F80009081982780E1989F900111242927822F22
:101F900090E0382F2227AC0163E0440F551F6A956B
:101FA000E1F724273527418150E02427352774E0C5
:101FB000959587957A95E1F72827392731832083EE
:101FC00008950F931F93CF93DF938B01EC01080FBC
:101FD000191FC017D10719F08991DAD6FACFDF910E
:101FE000CF911F910F91089521EE3EE245E652E414
:101FF0000C94DD24E0911001F09111018685882375
:1020000021F081E08093BD0202C01092BD02E091F8
:10201000BD02F0E0EE0FFF1FE15DFB4F8591949153
:102020009093BC028093BB020895E0911001F0915F
:10203000110190859093BD028485843049F028F485
:10204000813051F08230B1F403C08D50833090F470
:1020500082E1E0E6F4E003C081E1E4EDF4E03097F2
:1020600049F0981738F4E90FF11DE90FF11D85913A
:10207000949102C080E090E09093BC028093BB02F8
:102080000895E0911001F0911101868594859130B9
:1020900019F4E8E5F5E002C0ECE3F5E084FF02C0E6
:1020A00081E00EC086FF03C01092BD020BC083FF0B
:1020B00002C082E005C082FF02C083E001C08FEF52
:1020C0008093BD02309759F08091BD02843038F47E
:1020D000E80FF11DE80FF11D8591949102C080E099
:1020E00090E09093BC028093BB020895A0911001F0
:1020F000B09111011896EC9118978E2F19969C911A
:102100009C0144E0369527954A95E1F7207F3E2FC4
:102110003F70232B2093BD02892F9927883028F008
:102120001092BC021092BB020895843031F0FC0181
:10213000EE0FFF1FE955FA4F07C0E83088F7F0E0CF
:10214000EE0FFF1FEC58FA4F859194919093BC02CB
:102150008093BB020895E0911001F09111018585F3
:10216000893029F08C3021F0833019F45ECF89CF8B
:10217000BDCF40CF5F926F927F928F929F92AF922E
:10218000BF92CF92DF92EF92FF920F931F93CF9364
:10219000DF93CDB7DEB760970FB6F894DEBF0FBE02
:1021A000CDBF05ED15E0772473946EEF662E76E0D3
:1021B000572E88248A94982C6E0187E0C80ED11C73
:1021C000FE013D965F01F80131968491F8019491EA
:1021D0002091F1023091F002E82FF0E0F887EF83D0
:1021E00039872A879B877C8669825A828091D102AF
:1021F0008B8392E59C837D8292E49E838F5F8093A4
:10220000D1029E868D86CE0102967C01EC14FD04DF
:1022100031F0B501F70181917F01B1DEF7CF8D85F6
:102220009E85988B8F877601BE01615F7F4FEA1490
:10223000FB0429F0F70181917F01A1DEF5CF84E94C
:102240009EDE9F8588899D878E8766E070E0CE013F
:102250000196B7DE66E070E0C601B3DE62E070E0D2
:10226000C701AFDE0E5F1F4FF5E0033E1F0709F009
:10227000AACF60960FB6F894DEBF0FBECDBFDF9138
:10228000CF911F910F91FF90EF90DF90CF90BF9073
:10229000AF909F908F907F906F905F9008952F9256
:1022A0003F924F925F926F927F928F929F92AF92E6
:1022B000BF92CF92DF92EF92FF920F931F93CF9333
:1022C000DF9377247394B0E18B2E99249394C2E02A
:1022D0006C2ED8E05D2E13E0312E04E0202EAA24CF
:1022E000AA94BA2C36D58C018827892B09F0EDC029
:1022F000E0901001F0901101402EC0911201D09198
:1023000013011092CB022091CE02822F90E08B30ED
:10231000910508F085C0FC01EC5CFF4F0C941E2277
:102320008EEF08137DC06092CE021B820A83B982B1
:10233000A88276C00B831092CF02BE01802F1FDED1
:102340002092CE026DC00C83BE01802F18DE309229
:10235000CE0266C00D83BE01802F11DEE5E0E09362
:10236000CE025EC00E83BE01802F09DEF6E0F09340
:10237000CE0256C00F83BE01802F01DE8B818823E1
:10238000B1F087E08093CE024BC08091CF0291E004
:10239000980F9093CF02FE01E80FF11D0087BE0158
:1023A000802FEDDD9091CF028B81981339C0509230
:1023B000CE0236C0EF81F0E0E15DFC4F8491BE01BA
:1023C000DEDD8881998199270817190721F0EAE055
:1023D000E093CE0203C0F9E0F093CE028091CF02E9
:1023E000FE01E80FF11D00871BC02A3029F0C980CB
:1023F000D12C0C151D0519F06092CB0202C0709211
:10240000CB027092CE028091CF02FE01E80FF11D47
:102410000187FE01D701C40101900D920197E1F7F8
:102420002091CB02213091F48C818093D002809155
:10243000D2029091D302009721F41092D50210920B
:10244000D40201969093D3028093D2028B81F7013C
:1024500083838091CE028093DD023091CF0230934E
:10246000DE028091D0028F5F8093DF028091D202E2
:102470009091D3029093E2028093E1028091CD0289
:1024800090E09093E4028093E3021092CD02223018
:1024900009F52896C30FD11D898190E0982F8827D0
:1024A0003881832B91838083E0911201F091130195
:1024B0007092CD021092CB028EEF481208C020938A
:1024C000CE021382B182A0820DCF80E007C070924D
:1024D000CE0208CF222309F405CF81E0DF91CF910E
:1024E0001F910F91FF90EF90DF90CF90BF90AF9032
:1024F0009F908F907F906F905F904F903F902F9024
:1025000008957F928F929F92AF92BF92CF92DF9267
:10251000EF92FF920F931F93CF93DF93912C882418
:10252000839424E6A22EB12C0FEF10E038EEC32ED8
:1025300033E0D32EE12CF12C42E0742EB0DE882360
:1025400009F452C2C0911001D09111018F818E31D6
:1025500009F4DFC008F044C0823009F48DC038F4BB
:10256000882309F45FC0813009F493C03AC28831EE
:1025700009F4F7C08D3109F034C26C897D89882750
:1025800077FD8095982F0E94C42320E030E048EC2E
:1025900052E40E94292360937F027093800280930B
:1025A0008102909382026093710270937202809311
:1025B00073029093740220E030E048EC52E46C85A2
:1025C0007D858E859F850E94DD240E9496236093E1
:1025D0007B0270937C0280937D0290937E024AC0BE
:1025E0008A3209F4FAC138F4823209F44CC18332D8
:1025F00009F477C1F6C18A3409F40BC1883A09F4A9
:10260000D5C18E3309F0EDC18E8D9F8D6DDCE091CB
:102610001001F091110180A191A190932902809362
:10262000280228C09091BA028E85881F8827881FAB
:102630008093BA02911102C0811140DB8CDD409180
:10264000C7025091C8026091C9027091CA024053FA
:10265000584F6F4F7F4F4093D6025093D7026093ED
:10266000D8027093D9028091C002823019F0709222
:10267000C00280DD81E0B6C1688979898A899B8939
:10268000A70196010E94FC213093BF022093BE0255
:10269000F1CF6E897F8980E090E00E94C22320E024
:1026A00030E04AE754E40E94292360935B02709370
:1026B0005C0280935D0290935E028091EA02811138
:1026C00009C08EA18F3F19F080934D0204C0109273
:1026D0004D0201C0CFD9E0911001F0911101608D40
:1026E000718D77FDC7CF882777FD8095982F0E9441
:1026F000C42320E030E048EC52E40E942923609398
:102700005702709358028093590290935A0248DA04
:10271000B1CF6C857D858E859F8566DC6093B60222
:102720007093B7028093B8029093B902688979894F
:102730008A899B8959DC6093B2027093B3028093BB
:10274000B4029093B5026C897D898E899F894CDC97
:102750006093AE027093AF028093B0029093B10287
:1027600089CF8CA1809383028DA180938402688994
:1027700079898A899B890E94C42320E836E948E147
:102780005BE40E94292360939102709392028093EC
:102790009302909394026C897D898E899F890E940F
:1027A000C42320E836E948E15BE40E9429236093D2
:1027B0008D0270938E0280938F0290939002688DA9
:1027C000798D8A8D9B8D0E94C42320E030E04AE7FA
:1027D00054E40E9429236093890270938A028093B3
:1027E0008B0290938C0268A179A180E090E00E9416
:1027F000C22320E030E048EC52E40E942923609399
:1028000085027093860280938702909388025ADA39
:1028100031CF8C859D85AE85BF8580936502909371
:102820006602A0936702B093680288859985AA859D
:10283000BB858093610290936202A0936302B09380
:10284000640288899989AA89BB89809369029093D7
:102850006A02A0936B02B0936C028C899D89AE8949
:10286000BF8980936D0290936E02A0936F02B09324
:102870007002888D998D9093600280935F028A8D9B
:102880008093AB02F7CE2C853D852F3F8FE738072D
:1028900019F480E090E001C0C901B5010E94E9216E
:1028A0006093AA022E853F852F3F8FE7380719F4E2
:1028B00080E090E001C0C901B5010E94E921609368
:1028C000A9022A893B892F3F8FE7380719F480E056
:1028D00090E001C0C901B5010E94E9216093A802FE
:1028E000C9CE8092AC028C859D8590939602809390
:1028F00095028E859F859093980280939702888990
:10290000998990939A02809399028A899B899093DE
:102910009C0280939B028C899D8990939E02809358
:102920009D028E899F899093A00280939F02888D3B
:10293000998D9093A2028093A1028A8D9B8D909392
:10294000A4028093A3028091E802811113C08D8DAF
:1029500024E6829FC0011124B8010E94E9216093FE
:10296000AD0281E09091E902691708F080E0809360
:102970003E0280CEE091E702F0E0EE0FFF1FEB5643
:10298000FD4F41E0208131818091E5029091E60286
:102990002817390708F040E040933E02442311F025
:1029A00084E601C080E08093AD0264CE68857985BD
:1029B0008A859B850E94962370937A0260937902A0
:1029C0008C859D85AE85BF85809375029093760238
:1029D000A0937702B09378024DCE888580932A0227
:1029E00049CE80E0982AAACD4091C7025091C802F2
:1029F0006091C9027091CA028091D6029091D7026B
:102A0000A091D802B091D902481759076A077B07ED
:102A100040F08091C002882321F01092C0029924D6
:102A20009394892DDF91CF911F910F91FF90EF909B
:102A3000DF90CF90BF90AF909F908F907F90089540
:102A400080E390E00E94A3288093EA0281E390E073
:102A50000E94A3288093E90282E390E00E94A328C9
:102A600091E0811101C090E09093E80283E390E04F
:102A70000E94A3288093E70284E390E00E94B0289C
:102A80009093E6028093E502089561E080E390E090
:102A90000E94C4286AE081E390E00E94C42860E0BC
:102AA00082E390E00E94C42862E083E390E00E9409
:102AB000C42868E973E084E390E00C94DE280E9467
:102AC000C821B2D12FEF83ED90E321508040904098
:102AD000E1F700C0000080E190E00FD18BD140D23F
:102AE0000E941E21882301F1F8D28091080520E080
:102AF0004CEF55E060910705845071D31F9287E039
:102B00008F938AEE95E09F938F938FE194E09F934C
:102B10008F930E94BC278FE89CE083D00F900F908A
:102B20000F900F900F900F9083EE95E055D1EBD959
:102B300004C5C5DFD1D480E090E008958FE096E031
:102B40004BC1FCDF89E096E047D110921E04089546
:102B5000E0E0AE2FB0E0A450BC4F9C91903211F455
:102B6000EF5FF7CF20E02817A1F0AE2FB0E0A45020
:102B7000BC4F3C913F7D11F0EF5FF7CFAE2FB0E03F
:102B8000A450BC4F9C91903211F4EF5FF7CF2F5FB0
:102B9000EACFF0E0E450FC4F8081882311F0CF01B0
:102BA0000895CB010895D5D09C012227232BC1F590
:102BB0008D30910539F08F379105B9F08830910546
:102BC000F1F413C0E0911E04EE2371F0F0E0E45044
:102BD000FC4F1082B3DFE0911C04F0911D0430978C
:102BE00019F08CEF93E00995ACCF80911E048823F7
:102BF000B9F0815080931E0485E096E0EDC08032EC
:102C000020F0E0911E04EF3111F487E008C091E05C
:102C10009E0F90931E04F0E0E450FC4F8083B8C0F8
:102C20000895CF93DF93EC018CDF81E08093FB0369
:102C3000D0931D04C0931C048091FB03882311F0E2
:102C4000B2DFFACFDF91CF9108951F920F920FB6A6
:102C50000F9211242F938F939F93EF93FF93809163
:102C6000C0009091C6008871E0912F04EF5FEF776C
:102C700020912E04E21739F0E0932F04F0E0EE5C8F
:102C8000FB4F908301C082E090912D04982B90938C
:102C90002D04FF91EF919F918F912F910F900FBE77
:102CA0000F901F9018951F920F920FB60F9211243C
:102CB0008F939F93EF93FF93909131048091300411
:102CC000981306C08091C1008F7D8093C1000CC015
:102CD000E0913004EF5FEF73E0933004F0E0EE54E6
:102CE000FB4F80818093C600FF91EF919F918F9160
:102CF0000F900FBE0F901F901895109231041092F4
:102D0000300410922F0410922E0497FF04C022E08A
:102D10002093C0009F779093C5008093C40088E9FA
:102D20008093C10086E08093C2008DED96E1909380
:102D300028048093270482EC96E190932A048093E0
:102D4000290483E08093220410922C0410922B0417
:102D5000089590912F0480912E04981781F0E091AE
:102D60002E04EF5FEF77E0932E04F0E0EE5CFB4F74
:102D7000808190912D0410922D0490E0089580E0C0
:102D800091E00895E6DF9C012227232BD9F70895CF
:102D9000909131049F5F9F73209130049217E1F36B
:102DA000E92FF0E0EE54FB4F808390933104809143
:102DB000C10080628093C1000895EADF80E090E066
:102DC0000895CF93DF93EC018991882311F0E0DF20
:102DD000FBCFDF91CF910895CF93DF93FC018491D6
:102DE000EF012196882319F0D3DFFE01F8CFDF91A0
:102DF000CF91089584B1837C8C6284B980E58CBDC9
:102E000008958EBD0DB407FEFDCF8EB5089563E025
:102E100085E090E00E94C4284DEC5CEC6CE87FE318
:102E200086E090E00C94D62882E084BD83E085BDE6
:102E300016BC8AEF87BDEEE6F0E080818260808379
:102E4000789408951F920F920FB60F9211248F93CA
:102E50009F93AF93BF938091F2049091F304A0915C
:102E6000F404B091F5040196A11DB11D8093F20404
:102E70009093F304A093F404B093F504BF91AF9141
:102E80009F918F910F900FBE0F901F901895F894FF
:102E90006091F2047091F3048091F4049091F50430
:102EA000789408958068ADDF8FEFABCFCF93DF9339
:102EB0001F92CDB7DEB76983A4DF6981862F0F909B
:102EC000DF91CF919ECF8F3F11F460E001C0682F5A
:102ED00087E0ECDF80E090E0089580930B0581307F
:102EE00069F4109206058DE180930A058CE08093C9
:102EF00009058FE08093080586E00CC080E480938C
:102F000006058DE180930A058FE080930905809383
:102F1000080588E08093070508955B9B02C080E068
:102F20001EC05E9880E2BEDF5E9A80FDF8CF81FF12
:102F300012C081E080930B05109206058DE180930D
:102F40000A058CE0809309058FE08093080586E0F0
:102F500080930705089580E190E00E94A328BDCFEB
:102F6000CF93DF935398569A52985A9AD6DF5E9829
:102F70008CE698DF682F6F7E8CE698DF6FE781E044
:102F800095DF609106056C6080E090DF81E190E064
:102F90000E94A328D82FC0E16D2F8C2F87DFCF5F31
:102FA000C032D1F75E9A83E697E190930005809353
:102FB000FF04109202051092010582E08093FA044A
:102FC0001092040510920305DF91CF910895EF92BE
:102FD000FF921F93CF93DF931F92CDB7DEB7F82EEA
:102FE000162F5E9860E080E0798360DF85E38A9544
:102FF000F1F700006F2D89E059DFE12E7981F72E7E
:1030000010E0612F8AE052DFF70161917F018BE0D0
:103010004DDF1F5F1633A9F760EA88E047DF80E2E3
:1030200041DF85FDFCCF609106056C6080E03EDFEE
:103030005E9A0F90DF91CF911F91FF90EF900895CE
:103040000F931F93CF93DF93C82F162F072F5E98F0
:1030500060E080E02BDF85E38A95F1F700006C2FBC
:1030600089E024DF60E588E021DF80E21BDF85FD69
:10307000FCCFC12FD02F10E0612F8AE017DF80E452
:1030800011DF89931F5F1633B9F7609106056C60F5
:1030900080E00CDF5E9ADF91CF911F910F91089530
:1030A000CF93DF93C82FD0E08EE1689FC00DD11D74
:1030B0001124D1706D2F85E0F9DE6C2F86E0DF9151
:1030C000CF91F4CE80910505882331F06FEF87E032
:1030D000EDDE5E9A10920505089580910505811137
:1030E000F1DF5E9864E084E0E1DE5E9A80EA8A9532
:1030F000F1F708950F931F93CF93DF9300D0CDB7CF
:10310000DEB7142F022F90910505992329F06A83C9
:103110008983D8DF89816A815E98C2DF602F6770FA
:10312000660F660F660F84E0C1DE612F87E0BEDEAA
:103130005E9A0F900F90DF91CF911F910F9108959C
:103140001F93CF93DF9300D0CDB7DEB7142F9091AC
:103150000505992329F06A838983B4DF89816A810F
:103160001093F60491E0909305055E9890910905FF
:10317000961708F460E090910A05981708F480E02B
:103180008FDF177088E0189FB0011124616084E020
:103190000F900F90DF91CF911F9188CEEF92FF9209
:1031A0001F93CF93DF931F92CDB7DEB7142F422F1B
:1031B0005983C6DFE12E5981F52EF70161917F0118
:1031C000662331F06F3F09F460E087E06FDEF5CFF2
:1031D0000F90DF91CF911F91FF90EF9073CFEF92FF
:1031E000FF921F93CF93DF931F92CDB7DEB7142FBB
:1031F000422F5983A5DFE12E5981F52EF701649105
:10320000662349F06F3F09F460E087E04FDE8FEFFF
:10321000E81AF80AF3CF0F90DF91CF911F91FF903A
:10322000EF9050CF60E080E190E00E94E22860E003
:1032300081E190E00C94E228EF92FF920F931F93AC
:10324000CF93DF93883008F080E098E4899F800175
:10325000112400581F4FE0901B01C0E1D5E0F12C74
:10326000C8010E94A328FE01329780838E1598F42E
:10327000C80101960E94A328FE0131978083C801EE
:1032800002960E94A32888830D5F1F4FF394239614
:1032900088E1F812E5CFF0920D05DF91CF911F91F3
:1032A0000F91FF90EF9019CFCF93DF93C0E0D6E05E
:1032B00080910D05C817A8F48C2F90E0FC01EE0F4B
:1032C000FF1FE80FF91FE25FFA4FE081DE9FF00178
:1032D0001124E95BF74F85919491FC010995CF5F2B
:1032E000E7CF81E080930C05DF91CF910895CF93D4
:1032F000DF9380910C05882351F1EFDEC0E0D6E02A
:1033000080910D05C81708F58C2F90E0FC01EE0F99
:10331000FF1FE80FF91FE25FFA4FE081DE9FF00127
:103320001124E75BF74F25913491DC01AA0FBB1FF5
:10333000A80FB91FA25FBA4F12966C9112971196FF
:103340008C91F9010995CF5FDBCF10920C05DF91CD
:10335000CF910895CF92DF92FF920F931F93CF9357
:10336000DF931F92CDB7DEB728E4829FC0011124FE
:103370008C0100581F4F6B01F12CF416E1F0F6019F
:103380006491C80149830E94C428F6013196649172
:10339000C80101960E94C428F60132966491C801C2
:1033A00002960E94C4280D5F1F4FF394F3E0CF0EE6
:1033B000D11C4981E2CF0F90DF91CF911F910F91E6
:1033C000FF90DF90CF90089546E161E576E080E0E0
:1033D000C1DF4BE060E376E081E0BCDF4AE062E120
:1033E00076E082E0B7CF20915E0530915F058217CD
:1033F000930708F4C90140915C0550915D05481799
:10340000590708F4CA01821B930B60915A05709109
:103410005B05CBD7862F0895CF93809161058823D4
:1034200019F19091AC029923F9F0C09159058130BE
:1034300019F48091A7020AC0E0916005F0E0EE0F58
:10344000FF1FEB56FD4F80819181CDDF80935905A1
:1034500090915805891718F091509093590581E083
:10346000909159059C1301C080E0CF910895789404
:103470001F920F920FB60F9211242F933F934F93E9
:103480005F936F937F938F939F93AF93BF93EF93CC
:10349000FF9380915705882371F080910C05882354
:1034A00051F080915605811106C081E08093560548
:1034B0001EDF10925605FF91EF91BF91AF919F9142
:1034C0008F917F916F915F914F913F912F910F90CD
:1034D0000FBE0F901F90189580E0AEDEE5DE82E013
:1034E0008093690081E08DBB809357052CE088E1D3
:1034F00090E00FB6F894A895809360000FBE2093DB
:103500006000C1E0A8950E949C0FD82F80915805BB
:10351000823080F081DF882369F0809159058CDE4C
:10352000809156058111FCCFC0935605BDDE1092E7
:103530005605E8CFDD2331F3F3CF1F93CF93DF930D
:1035400080E790E00E94A3288093610581E790E0E6
:103550000E94A3288093600582E790E00E94A32840
:10356000182F8093580583E790E00E94B028EC0163
:1035700090935F0580935E0585E790E00E94B028F8
:1035800090935D0580935C05193018F028E0209336
:1035900058058C1B9D0B6091580570E006D7709301
:1035A0005B0560935A05DF91CF911F91089562E00A
:1035B00080E790E00E94C42865E081E790E00E94E7
:1035C000C42868E082E790E00E94C42868EE73E0B7
:1035D00083E790E00E94DE2860ED77E085E790E0E9
:1035E0000E94DE28F1CE0895089508950895089563
:1035F00020E04EE256E0D2CD20E046E256E0CECDCD
:1036000020E04EE156E0CACD20E047E156E0C6CDCD
:1036100020E040E156E0C2CD20E041E056E0BECDE2
:1036200020E046EF55E0BACDFF920F931F93CF9362
:10363000DF93082FF62ECBEAD5E010E0612F6F0D57
:1036400020E0AE01802FAADD1F5F2F961530B1F765
:10365000DF91CF911F910F91FF90089520E044EAF0
:1036600055E09CCD20E04DE955E098CD20E04CE8B8
:1036700055E094CD20E044E855E090CD20E041ECC9
:1036800052E08CCD20E040E755E088CD60916902A2
:1036900070916A0280916B0290916C020E9491235A
:1036A0007F936F9389E097E09F938F931F9288E0B9
:1036B0008F938EE296E09F938F930E94072810923B
:1036C00035068DB79EB708960FB6F8949EBF0FBE0D
:1036D0008DBF08958091BE029091BF026CE370E0AF
:1036E00064D69F938F937F936F9381EF96E09F9320
:1036F0008F931F9288E08F938EE196E09F938F9334
:103700000E940728109225068DB79EB70A960FB61D
:10371000F8949EBF0FBE8DBF08956091B602709160
:10372000B7028091B8029091B902FBD77F936F9353
:103730008CEE96E09F938F931F9287E08F9387E1A3
:1037400096E09F938F930E94072810921D068DB7D5
:103750009EB708960FB6F8949EBF0FBE8DBF089512
:103760006091B2027091B3028091B4029091B5025F
:10377000D8D77F936F9387EE96E09F938F931F9296
:1037800087E08F9380E196E09F938F930E940728B4
:10379000109216068DB79EB708960FB6F8949EBF86
:1037A0000FBE8DBF089520918402822F992787FD37
:1037B00090959F932F9384EE96E09F938F931F9203
:1037C00084E08F938CE096E09F938F930E9407286C
:1037D00010920F068DB79EB708960FB6F8949EBF4D
:1037E0000FBE8DBF0895809194028F9380919302B4
:1037F0008F93809192028F93809191028F9385EDA8
:1038000096E09F938F931F928BE08F9381E096E0D9
:103810009F938F930E94072810920B068DB79EB737
:103820000A960FB6F8949EBF0FBE8DBF0895809183
:1038300090028F9380918F028F9380918E028F934D
:1038400080918D028F938DEC96E09F938F931F92C2
:103850008BE08F9386EF95E09F938F930E940728CC
:10386000109200068DB79EB70A960FB6F8949EBFC9
:103870000FBE8DBF08952091AB02822F992787FD3F
:1038800090959F932F9387EC96E09F938F931F9231
:1038900087E08F9384EA95E09F938F930E94072897
:1038A0001092AA058DB79EB708960FB6F8949EBFE2
:1038B0000FBE8DBF089526E636E646E650E46091D9
:1038C00065027091660280916702909168020E9481
:1038D000DD2427D77F936F9382EC96E09F938F939D
:1038E0001F9287E08F938DE995E09F938F930E94BD
:1038F00007281092A3058DB79EB708960FB6F894C7
:103900009EBF0FBE8DBF089580915A028F93809104
:1039100059028F93809158028F93809157028F9311
:1039200085EB96E09F938F931F9288E08F938CE8AE
:1039300095E09F938F930E940728109293058DB76F
:103940009EB70A960FB6F8949EBF0FBE8DBF08951E
:1039500060915302709154028091550290915602E9
:10396000E5D67F936F9380EB96E09F938F931F92A2
:1039700088E08F9384E895E09F938F930E940728B7
:1039800010928B058DB79EB708960FB6F8949EBF20
:103990000FBE8DBF0895809174028F938091730242
:1039A0008F93809172028F93809171028F9383E93C
:1039B00096E09F938F931F9289E08F9380E795E025
:1039C0009F938F930E940728109278058DB79EB71A
:1039D0000A960FB6F8949EBF0FBE8DBF08950F9341
:1039E0001F93CF93DF93C0916D02D0916E0210911F
:1039F0006F020091700220E030E040E251E4F801F3
:103A00006C2F7D2F8F2F9E2FD8D70E94402589D6CF
:103A1000643154F46A3054F467FF0AC06D3E54F0C8
:103A2000673F54F484E009C088E007C087E005C020
:103A300086E003C085E001C083E00F931F93DF930E
:103A4000CF931F928F9381E097E09F938F931F9264
:103A500088E08F9386E296E09F938F930E940728D9
:103A600010922D068DB79EB70C960FB6F8949EBF98
:103A70000FBE8DBFDF91CF911F910F91089580915F
:103A80005E028F9380915D028F9380915C028F9391
:103A900080915B028F938CEB96E09F938F931F92A4
:103AA00087E08F9386E995E09F938F930E94072884
:103AB00010929C0560914D0270E080E090E064D629
:103AC00020E030E040EA51E4C4D5DAD72FD66C507C
:103AD000609395058DB79EB70A960FB6F8949EBF72
:103AE0000FBE8DBF80913F02882311F082E001C09C
:103AF00080E0809394050895CF93C091AD026C2F20
:103B000070E080E090E040D620E030E040EA51E410
:103B1000A0D5B6D70BD6611105C061E0C11105C0B3
:103B200060E003C0663008F065E0E62FF0E0EE0FDD
:103B3000FF1FEC5FF74F8591949190936F058093F1
:103B40006E05CF91089560915F027091600294E0DC
:103B5000660F771F9A95E1F780E090E013D620E09A
:103B600030E044EB53E475D58BD720E030E040EAF9
:103B700050E4A1D4D6D59B0177FF02C0205F3F4F10
:103B8000A2E6B5E0F901E35DF74FE491ED932F5F15
:103B90003F4F2031310514F020E030E085E0AD36B4
:103BA000B80781F710926D05089540916E05509108
:103BB0006F0520E014CBCF93DF93C82FD62F209131
:103BC00094054091950596DA20E046E955E06D2F81
:103BD00081E08C0FDF91CF91E1CACF93DF93C82FA3
:103BE000D62F20917A0542E185DA20917B054CE7BA
:103BF00055E06D2F81E08C0FDF91CF91CFCACF932D
:103C0000DF93C82FD62F20E046EC85E08C0F72DAC8
:103C100061E06D0F20E042E655E08C2FDF91CF91FF
:103C2000BDCA80913D028230B1F46091370270913B
:103C3000380280E090E0A6D520E030E044EB53E489
:103C400008D520E030E040E851E4B7D66FD5660FE4
:103C50006057609379050895CF92DF92EF92FF92BB
:103C600020913D0281E0211180E080937B0591E06D
:103C7000223009F490E090937A059923F9F0882393
:103C800019F08CEA96E002C087EA96E09F938F9342
:103C900084EA96E09F938F931F9288E08F938CE73E
:103CA00095E09F938F930E9407288DB79EB7089643
:103CB0000FB6F8949EBF0FBE8DBF4CC0C0903902A6
:103CC000D0903A02E0903B02F0903C0220E030E4D9
:103CD0004CE156E4C701B60165D687FD21C020E05E
:103CE00030E04AE754E4C701B601B3D49F938F9301
:103CF0007F936F938EE996E09F938F931F9288E056
:103D00008F938CE795E09F938F930E9407288DB740
:103D10009EB70A960FB6F8949EBF0FBE8DBF1AC00D
:103D2000C701B60103D57F936F938AE996E09F930D
:103D30008F931F9288E08F938CE795E09F938F93EA
:103D40000E9407288DB79EB708960FB6F8949EBFBD
:103D50000FBE8DBFFF90EF90DF90CF9008951F931F
:103D6000CF93DF93182FC62FD1E08091830281116A
:103D7000D0E02D2F41EE56E06C2F812F30DA80916C
:103D80008302D11104C0823020F422E003C021E07C
:103D900001C020E0833010F441E001C042E06C2F0C
:103DA00082E0810FA7D983E0810FDD2341F021E07C
:103DB0004DED56E06C2FDF91CF911F9110CA20E09E
:103DC0004CE056E06C2FDF91CF911F91E7C99091A5
:103DD0003E02992319F022E044EB8CC90895CF9359
:103DE000DF93C82FD62F80913D02823079F420E0F6
:103DF000409179058C2F7ED9409179054F5F20E065
:103E00006D2F81E08C0FDF91CF9174C9DF91CF913D
:103E100008952F923F924F925F926F927F928F926E
:103E20009F92AF92BF92CF92DF92EF92FF920F9349
:103E30001F93CF93DF93CDB7DEB72B970FB6F894D0
:103E4000DEBF0FBECDBF482E362EF42E522ECDB67D
:103E5000DEB621E0241708F068C0251508F065C01B
:103E6000BB24BA94B40E3FEF350D3987002319F007
:103E70006EE077E002C066E177E048E050E0CE0116
:103E80000196E2D78F2D90E09C012F5F3F4F4DB7F9
:103E90005EB7421B530B0FB6F8945EBF0FBE4DBF0B
:103EA0000DB71EB70F5F1F4F212CF801EB0DF11D51
:103EB0005F014C01F2E08F1A910838012FEF621A6E
:103EC000720AA801480F591F5B874A87211008C052
:103ED0008981F80180838B81F50180836A8112C01A
:103EE0003985231208C08D81F80180838F81F50107
:103EF00080836E8107C08C81F80180838885F501FD
:103F0000808360E2F2E0FF1621F070E0A401C301BB
:103F1000D5D7EA85FB851082622D630D2E2DA80171
:103F2000842D3CD923942510D1CF0FB6F894DEBE52
:103F30000FBECDBE0FB6F894DEBE0FBECDBE2B9623
:103F40000FB6F894DEBF0FBECDBFDF91CF911F91AA
:103F50000F91FF90EF90DF90CF90BF90AF909F9028
:103F60008F907F906F905F904F903F902F9008952B
:103F7000EF920F93CF93DF93C82FD62FE12C00E061
:103F800023E046E046DF4091BB025091BC02411560
:103F9000510511F44CEF56E061E06D0F20E081E037
:103FA0008C0FDF91CF910F91EF9019C9EF920F9382
:103FB0001F93CF93DF93D82F162FC091BA0281E0C1
:103FC000C827EC2E01E023E043E08D2F22DF61E0E3
:103FD000610F2C2F40EE81E08D0FDF91CF911F916B
:103FE0000F91EF9087C8EF920F931F93CF93DF93BA
:103FF000D82F162FC1E08091C002823009F4C0E0B2
:10400000EC2E01E023E043E0612F8D2F02DF61E021
:10401000610F2C2F41EE81E08D0FDF91CF911F9129
:104020000F91EF9067C825E33AEF4EE85CE3C5C413
:104030002F923F924F925F926F927F928F929F92B8
:10404000AF92BF92CF92DF92EF92FF920F931F93A6
:10405000CF93DF93C9EBD5E010E06DE777E04EE05A
:1040600050E0CE010E97F0D618821F5F153049F050
:10407000123019F06DE777E002C06EE677E02F9618
:10408000EECF6091B2027091B3028091B402909130
:10409000B502C9DF5AD520E030E044E352E48DD4C4
:1040A00040D32B016091B6027091B7028091B802A3
:1040B0009091B902B8DF49D56B017C0101E010E0B5
:1040C000CEEBDFEF662457FC6094762C3EEE232E79
:1040D00033243A94BE01882777FD8095982F54D3D6
:1040E0009B01AC01C701B60168D44B015C01C3015F
:1040F000B2014AD39B01AC01C501B401DDD120E07E
:1041000030E044E352E4D8D10CD38FEF860F8935E9
:10411000B8F5262F332727FD3095C9010197B10146
:1041200058D16B5F862F90E042E1649F200D311DD6
:1041300011242B55310937FF02C02F5F3F4FA901D2
:1041400055954795483079F49C01225031096FE02C
:10415000629FF001639FF00D1124E00FF11FE55500
:10416000FA4F2EE0208301976FE0689FF001699F6E
:10417000F00D1124E00FF11FE555FA4F4A5E408320
:104180002C960F5F1F4FCE34D10509F0A3CFDF91DE
:10419000CF911F910F91FF90EF90DF90CF90BF9044
:1041A000AF909F908F907F906F905F904F903F90D7
:1041B0002F900895AF92BF92CF92DF92EF92FF922D
:1041C0000F931F93CF93DF938C01C62F5A010E9448
:1041D00047176B017C01CA0CDB1CE11CF11CB12CE4
:1041E000D0E021970E9447176C157D058E059F052D
:1041F00018F40E94A91602C080E090E09C012227DA
:10420000232B81F72B2D30E08D30910519F02C17E1
:104210003D0711F480E090E0B394F801E20FF31F42
:104220008083892BF9F6DF91CF911F910F91FF9039
:10423000EF90DF90CF90BF90AF900895EF920F93E3
:104240001F93CF93DF93CDB7DEB728970FB6F894BF
:10425000DEBF0FBECDBF0E946D1841E061E081E07E
:104260000E94A0181F9287E08F938DE099E09F93A2
:104270008F9387EF94E09F938F937ED60F900F904C
:104280000F900F900F900F9011E080910A0520E0A1
:10429000181738F44AE162E0812F0E947A181F5FF4
:1042A000F4CF49E059E061E083500E94EF1820E02C
:1042B0004EEF58E064E082E00E94EF1810E00091B9
:1042C0001A01101780F488E0189FF0011124E95DAD
:1042D000FC4F4591549164E0610F20E08DE00E9415
:1042E000EF181F5FEECF609109056350E12C00E0ED
:1042F00023E04AE182E08DDD60910905625040E0F3
:1043000083E00E94A0181F9288E08F9384EE98E0CB
:104310009F938F9387EF94E09F938F932DD68CED8F
:1043200098E00E94EC1640E45FE168E0CE0101965F
:1043300041DF48E050E065ED78E0CE010196A5D57B
:1043400021E00F900F900F900F900F900F90892BFE
:1043500009F020E0822F28960FB6F894DEBF0FBE3A
:10436000CDBFDF91CF911F910F91EF9008950E94E3
:1043700007170E9412190E94AB0F19D962E575E563
:1043800080E090E02DD767E070E082E090E028C701
:1043900080E090E0E5D68235954529F482E090E012
:1043A000DFD6079709F0E3CF0895AA1BBB1B51E1A5
:1043B00007C0AA1FBB1FA617B70710F0A61BB70B95
:1043C000881F991F5A95A9F780959095BC01CD013A
:1043D000089597FB072E16F4009406D077FD08D0B9
:1043E000E4DF07FC05D03EF4909581959F4F08953A
:1043F000709561957F4F0895A1E21A2EAA1BBB1BF1
:10440000FD010DC0AA1FBB1FEE1FFF1FA217B307A0
:10441000E407F50720F0A21BB30BE40BF50B661FB6
:10442000771F881F991F1A9469F76095709580957A
:1044300090959B01AC01BD01CF010895EE0FFF1FC8
:104440000590F491E02D09942F923F924F925F9244
:104450006F927F928F929F92AF92BF92CF92DF9294
:10446000EF92FF920F931F93CF93DF93CDB7DEB7F9
:10447000CA1BDB0B0FB6F894DEBF0FBECDBF09948D
:104480002A88398848885F846E847D848C849B84E4
:10449000AA84B984C884DF80EE80FD800C811B81F2
:1044A000AA81B981CE0FD11D0FB6F894DEBF0FBE21
:1044B000CDBFED0108955058BB27AA270ED027C2C3
:1044C000F0D130F0F5D120F031F49F3F11F41EF41B
:1044D000C0C10EF4E095E7FBB6C1E92F3AD280F3F4
:1044E000BA17620773078407950718F071F49EF5F1
:1044F00052C20EF4E0950B2EBA2FA02D0B01B9017C
:1045000090010C01CA01A0011124FF27591B99F049
:10451000593F50F4503E68F11A16F040A22F232F55
:10452000342F4427585FF3CF469537952795A795A5
:10453000F0405395C9F77EF41F16BA0B620B730B4C
:10454000840BBAF09150A1F0FF0FBB1F661F771FBD
:10455000881FC2F70EC0BA0F621F731F841F48F472
:10456000879577956795B795F7959E3F08F0B3CFF8
:104570009395880F08F09927EE0F979587950895E2
:1045800090D158F080E891E009F49EEF91D128F0A5
:1045900040E851E059F45EEF09C05BC1FCC1E92F6E
:1045A000E078D7D168F3092E052AC1F3261737071B
:1045B0004807590738F00E2E07F8E02569F0E02586
:1045C000E0640AC0EF6307F8009407FADB01B90161
:1045D0009D01DC01CA01AD01EF934AD098D10AD008
:1045E0005F91552331F02BED3FE049E450FD49EC5C
:1045F00063CF0895DF93DD27B92FBF7740E85FE3EE
:104600001616170648075B0710F4D92FCFD19F93D2
:104610008F937F936F9396D2EEE7F0E01DD177D121
:104620002F913F914F915F91D4D1DD2349F0905864
:10463000A2EA2AED3FE049EC5FE3D0785D274DDF49
:10464000DF9165C1DCD008F481E0089539D1E395AC
:104650006FC10CD05CC12CD140F023D130F021F4DB
:104660005F3F19F0F0C0511197C1F3C072D198F3B8
:104670009923C9F35523B1F3951B550BBB27AA27E3
:1046800062177307840738F09F5F5F4F220F331F55
:10469000441FAA1FA9F333D00E2E3AF0E0E830D021
:1046A00091505040E695001CCAF729D0FE2F27D024
:1046B000660F771F881FBB1F261737074807AB07F2
:1046C000B0E809F0BB0B802DBF01FF2793585F4F67
:1046D0002AF09E3F510568F0B6C05EC15F3FECF323
:1046E000983EDCF3869577956795B795F7959F5F2C
:1046F000C9F7880F911D9695879597F90895E1E080
:10470000660F771F881FBB1F621773078407BA07DE
:1047100020F0621B730B840BBA0BEE1F88F7E09539
:10472000089504D06894B11137C108951AD188F062
:104730009F5790F0B92F9927B751A0F0D1F0660F8D
:10474000771F881F991F1AF0BA95C9F712C0B130A8
:1047500081F021D1B1E008951EC1672F782F8827FD
:10476000B85F39F0B93FCCF3869577956795B395E7
:10477000D9F73EF490958095709561957F4F8F4F56
:104780009F4F0895E89409C097FB3EF4909580955B
:10479000709561957F4F8F4F9F4F9923A9F0F92F07
:1047A00096E9BB279395F695879577956795B79585
:1047B000F111F8CFFAF4BB0F11F460FF1BC06F5F6B
:1047C0007F4F8F4F9F4F16C0882311F096E911C07D
:1047D000772321F09EE8872F762F05C0662371F09E
:1047E00096E8862F70E060E02AF09A95660F771FB2
:1047F000881FDAF7880F9695879597F90895990F8E
:104800000008550FAA0BE0E8FEEF16161706E8079A
:10481000F907C0F012161306E407F50798F0621BBB
:10482000730B840B950B39F40A2661F0232B242B90
:10483000252B21F408950A2609F4A140A6958FEFAF
:10484000811D811D089597F99F6780E870E060E001
:1048500008959FEF80EC0895DF93CF931F930F93FC
:10486000FF92EF92DF927B018C01689405C0DA2EF3
:10487000EF01AFD0FE01E894A591259135914591C6
:104880005591AEF3EF0129DEFE019701A801DA94FC
:1048900079F7DF90EF90FF900F911F91CF91DF910B
:1048A000089500240A941616170618060906089596
:1048B00000240A9412161306140605060895C9CF9B
:1048C00050D0E8F3E894E0E0BB279F57F0F02AEDE2
:1048D0003FE049EC06C0EE0FBB0F661F771F881F35
:1048E00028F0B23A62077307840728F0B25A620BC5
:1048F000730B840BE3959A9572F7803830F49A9590
:10490000BB0F661F771F881FD2F790485BC1092E27
:104910000394000C11F4882352F0BB0F40F4BF2B1A
:1049200011F460FF04C06F5F7F4F8F4F9F4F08955A
:10493000EF93E0FF06C0A2EA2AED3FE049EC5FEB0F
:10494000CCDDE5DF0F90039401FC9058EBEAF0E03A
:104950004CC157FD9058440F551F59F05F3F71F0FF
:104960004795880F97FB991F61F09F3F79F08795D6
:104970000895121613061406551FF2CF4695F1DF5F
:1049800008C0161617061806991FF1CF86957105EF
:10499000610508940895E894BB2766277727CB0123
:1049A00097F908952CDF08F48FEF08959B01AC016F
:1049B00060E070E080E89FE34CCE0BD0A8CF71DFC1
:1049C00028F076DF18F0952309F03DCF42CF11246F
:1049D000E3CFBFDFA0F3959FD1F3950F50E0551FB4
:1049E000629FF001729FBB27F00DB11D639FAA2744
:1049F000F00DB11DAA1F649F6627B00DA11D661F93
:104A0000829F2227B00DA11D621F739FB00DA11DB3
:104A1000621F839FA00D611D221F749F3327A00D6D
:104A2000611D231F849F600D211D822F762F6A2F09
:104A300011249F5750408AF0E1F088234AF0EE0F8E
:104A4000FF1FBB1F661F771F881F91505040A9F79B
:104A50009E3F510570F0F7CE9FCF5F3FECF3983E3D
:104A6000DCF3869577956795B795F795E7959F5F02
:104A7000C1F7FE2B880F911D9695879597F908959C
:104A800070DFE0F09E37D8F09639B8F49E3848F4DD
:104A9000672F782F8827985FF9CF86957795679548
:104AA00093959539D0F3B62FB1706B0F711D811DA1
:104AB00020F4879577956795939567C081C06CCFF3
:104AC00011F40EF4C6CE7CC04CDFD0F39923D9F399
:104AD000CEF39F57550B87FF81D00024A0E640EA14
:104AE000900180585695979528F4805C660F771F43
:104AF000881F20F026173707480730F4621B730B16
:104B0000840B202931294A2BA69517940794202538
:104B100031254A2758F7660F771F881F20F0261780
:104B20003707480730F4620B730B840B200D311DDF
:104B3000411DA09581F7B901842F9158880F969552
:104B4000879508959B01AC0138CFDF93D92FB8DE4C
:104B5000E695D7952AED3FE049E45FE3B33A620773
:104B6000730784079507D7952AF0A2EA49EC906865
:104B7000B4DCCDDEE9ECF0E038D0DD0F0BF016DF71
:104B8000DD0F0BF49058DF910895882371F477239B
:104B900021F09850872B762F07C0662311F49927B0
:104BA0000DC09051862B70E060E02AF09A95660F58
:104BB000771F881FDAF7880F9695879597F90895DC
:104BC0009F3F31F0915020F4879577956795B79581
:104BD000880F911D9695879597F9089591505040AB
:104BE000660F771F881FD2F708959F938F937F9347
:104BF0006F93FF93EF939B01AC01DFDEEF91FF9189
:104C00002BDE2F913F914F915F91D7CE662777276B
:104C1000EAC2FC0188279927E89421912032E9F320
:104C2000293010F02E30C8F32B3239F02D3231F408
:104C3000689403C078D1820F911D219120532A30AE
:104C4000C8F31EF4909581959F4F08951F93FC0122
:104C500099278827BC01E89411911032E9F31930A3
:104C600010F01E30C8F31B3249F01D3241F4689435
:104C700005C044D1610F711D811D911D119110530B
:104C80001A30B8F33EF490958095709561957F4FFA
:104C90008F4F9F4F1F910895283008F027E033274A
:104CA000DA01990F311D87FD91600096610571054C
:104CB00039F432602E5F3D9330E32A95E1F7089591
:104CC0009F3F30F080387105610509F03C5F3C5F23
:104CD0003D93913008F08068911DDF93CF931F932F
:104CE0000F93FF92EF92192F987F9695E92F969543
:104CF0009695E90FFF27E958F64F99273327EE24B9
:104D0000FF24A701E70105900894079428F4360FC3
:104D1000E71EF81E491F511D660F771F881F991F38
:104D20000694A1F70590079428F4E70EF81E491F92
:104D3000561FC11D770F881F991F661F0694A1F784
:104D40000590079428F4F80E491F561FC71FD11D60
:104D5000880F991F661F771F0694A1F70590079487
:104D600020F4490F561FC71FD81F990F661F771FC2
:104D7000881F0694A9F784911095177041F0D69575
:104D8000C79557954795F794E7941A95C1F7EDE1C4
:104D9000F9E068941590159135916591959105907C
:104DA0007FE27395E118F10A430B560BC90BD0094A
:104DB000C0F7E10CF11E431F561FC91FD01D7EF422
:104DC000703311F48A95E6CFE894015030F0080F63
:104DD0000AF40027021708F4202F2395022F7A33B4
:104DE00028F079E37D932A95E9F710C07D932A9501
:104DF00089F6069497956795379517951794E11856
:104E0000F10A430B560BC90BD00998F023957E91FC
:104E100073957A3308F070E37C932013B8F77E9192
:104E200070617D9330F0839571E37D9370E32A95F3
:104E3000E1F71124EF90FF900F911F91CF91DF9137
:104E4000992787FD90950895FB01DC0102C005902C
:104E50000D9241505040D8F70895FB01DC014150BC
:104E6000504088F08D9181341CF08B350CF4805EBD
:104E7000659161341CF06B350CF4605E861B61112A
:104E800071F3990B0895881BFCCFFB01DC014150A5
:104E9000504030F08D910590801919F40020B9F739
:104EA000881B990B0895FC0105906150704001101A
:104EB000D8F7809590958E0F9F1F0895DC0101C053
:104EC0006D9341505040E0F70895FC0161507040EF
:104ED00001900110D8F7809590958E0F9F1F08952F
:104EE000BB272A3051F4992342F4BDE29095809576
:104EF000709561957F4F8F4F9F4F1EC0592F482F40
:104F0000372F262F660F771F881F991F660F771F71
:104F1000881F991F620F731F841F951F660F771FCD
:104F2000881F991F08957AE0979F902D879F802D65
:104F3000910D11240895BB27FA01A62F6217710560
:104F400081059105330B30FB66F0AA27660F771FAA
:104F5000881F991FAA1FA21710F0A21B6395385033
:104F6000A9F7A05DAA3308F0A95DA19336F7B111A6
:104F7000B1931082CA0198C2A0E0B0E0E1ECF7E280
:104F800071CA0F811885F801838188608383AE011F
:104F9000455F5F4F69857A85C8010E945305F80116
:104FA0002381277F2383E4E079CA0F931F93CF9354
:104FB000DF93182F092FEB018B8181FD03C08FEF49
:104FC0009FEF20C082FF10C04E815F812C813D8108
:104FD000421753077CF4E881F9819F012F5F3F4F0F
:104FE00039832883108306C0E885F985812F0995C8
:104FF000892B29F72E813F812F5F3F4F3F832E83DF
:10500000812F902FDF91CF911F910F910895AEE0E6
:10501000B0E0ECE0F8E226CA0D891E898F89988DF0
:105020002EE02C831A83098397FF02C080E090E86A
:1050300001979E838D83AE01455E5F4F698D7A8DAA
:10504000CE0101960E9453054D815E8157FD0AC035
:105050002F813885421753070CF49A01F801E20FAB
:10506000F31F10822E96E4E019CAFA01AA2728300D
:1050700051F1203181F1E8946F936E7F6E5F7F4F25
:105080008F4F9F4FAF4FB1E03ED0B4E03CD0670FA1
:10509000781F891F9A1FA11D680F791F8A1F911DF4
:1050A000A11D6A0F711D811D911DA11D20D009F444
:1050B00068943F912AE0269F11243019305D319386
:1050C000DEF6CF010895462F4770405D4193B3E06F
:1050D0000FD0C9F7F6CF462F4F70405D4A3318F016
:1050E000495D31FD4052419302D0A9F7EACFB4E0C7
:1050F000A6959795879577956795BA95C9F700977F
:105100006105710508959B01AC010A2E069457951F
:10511000479537952795BA95C9F7620F731F841F76
:10512000951FA01D0895DC01CB01FC01F999FECF6C
:1051300006C0F2BDE1BDF89A319600B40D9241501F
:105140005040B8F70895F999FECF92BD81BDF89A05
:10515000992780B50895A6E1B0E044E050E0E5CF9E
:10516000A8E1B0E042E050E0E0CFDC01A40FB51FC1
:105170004150504040F0CB01840F951F2E9105D037
:1051800041505040D8F70895262FF999FECF92BD8F
:1051900081BDF89A019700B4021639F01FBA20BDFC
:1051A0000FB6F894FA9AF99A0FBE08950396272F2E
:1051B000ECDFEADF252FE9DF242FE7CF0196272F49
:1051C000E4DFE2CF262FF999FECF1FBA92BD81BD51
:1051D00020BD0FB6F894FA9AF99A0FBE0196089579
:1051E000F1DF272FF0CFA0E0B0E0E8EFF8E232C91E
:1051F0008B016115710521F0DB018C9311969C9355
:10520000EC015E01BFEFAB1ABB0A7501C8808C2DA3
:1052100090E042D1892B11F0E501F3CFEDE2CE12FF
:1052200008C07E01F2E0EF0EF11CC980DD24D394AA
:1052300009C02BE2C21205C07E0142E0E40EF11C5F
:10524000C980D12CE701219743E050E06FE17AE07B
:10525000CE0103DE892BB9F4239645E050E06AE1E4
:105260007AE0CE01FADD892B09F4259601151105A6
:1052700019F0D801CD93DC93D11000C160E070E04B
:1052800080E89FE704C143E050E067E17AE0CE01A7
:10529000E4DD892B59F40115110509F4F4C0B2E0DD
:1052A000EB0EF11CF801F182E082EDC0F70160E045
:1052B00070E0CB01C0E0D0E07F01A0EDAA2EAC0CE5
:1052C00029E02A1528F14D2D4260B42E2D2D28708D
:1052D000D2FE04C0211124C0219622C021112197A1
:1052E000A5E0B0E09B01AC01F2D0660F771F881FEC
:1052F000991F6A0D711D811D911D6839A9E97A07F1
:105300008A07A9E19A0760F0BD2DB660BB2E08C0E0
:105310002EEFA2120AC0D3FC50C04D2D4860B42E0F
:105320003196D701CC90DB2CC7CF2C2D2F7D253487
:1053300009F043C0A081AD3241F4BD2DB061DB2E38
:105340007F0122E0E20EF11C0CC07F01AB3231F094
:105350004FEFE41AF40A21E030E006C0A2E0EA0EC2
:10536000F11CA18122E030E0A053AA3018F0E21A2B
:10537000F30A23C0F70120E030E02038BCE03B070F
:105380005CF4A901440F551F440F551F240F351F0E
:10539000220F331F2A0F311DAF014F5F5F4F7A017C
:1053A000A081A053AA3010F4FA01E7CFD4FE03C0C5
:1053B000319521953109C20FD31FD1FE09C00115C6
:1053C000110531F0E1E0EE1AF108D801ED92FC92FE
:1053D000D9D92D2D2370233019F04B015C0106C063
:1053E0004B015C01B7FAB094B7F8B09420E030E01C
:1053F000A901C501B40126D9882309F43CC0D7FF0F
:1054000006C0D195C195D10906E31AE002C00EE4A9
:105410001AE06801B8E1CB1AD10890E2E92EF12C2C
:10542000CE15DF056CF0F801259135914591549129
:10543000C501B401C2DA4B015C01CE19DF09F0CF1E
:1054400004501109F594E7940C151D0549F78A2DB0
:10545000880F8B2D881F8F3F41F020E030E0A9019D
:10546000C501B401EFD8811106C082E290E09093AB
:10547000370680933606C501B40109C060E070E0CC
:1054800080E89FEF04C060E070E080EC9FE7CDB75C
:10549000DEB7ECE00C944622911116C0803219F070
:1054A00089508550D0F70895DC01FC01672F719178
:1054B0007723E1F7329704C07C916D9370836291FA
:1054C000AE17BF07C8F3089599278827089509D014
:1054D000A59F900DB49F900DA49F800D911D112448
:1054E0000895A29FB001B39FC001A39F700D811DBD
:1054F0001124911DB29F700D811D1124911D0895DD
:04550000F894FFCF4D
:105504000000604066668640CDCC6C40CDCC4C40FB
:0C551400EB02EB022D2D2D2D2D000118B7
:00000001FF
