:10000000C9C400000C94A618EDC40000EBC40000A5
:10001000E9C40000E7C40000E5C40000E3C4000038
:10002000E1C40000DFC40000DDC40000DBC4000048
:10003000D9C40000D7C400000C949115D3C40000AB
:10004000D1C40000CFC400000C9494140C94C214CA
:10005000C9C40000C7C40000C5C40000C3C4000078
:10006000C1C40000BFC400002E0D490D580D8E0DF7
:10007000C50DF70D120E1F0FED0E3310C60E331007
:10008000FA0E480FAF0F33102210084AD73B3BCE71
:10009000016E84BCBFFDC12F3D6C74319ABD568387
:1000A0003DDA3D00C77F11BED9E4BB4C3E916BAA3F
:1000B000AABE000000803F05A84CCDB2D44EB9388E
:1000C00036A9020C50B9918688083CA6AAAA2ABE75
:1000D000000000803F0664EC1B3C04BC163E3BE580
:1000E000B93CC93C37C29E5A3D660498083EEA694D
:1000F000AAAA3E000000803F6E616E00696E660035
:10010000496E76616C696420636F6D6D616E640029
:10011000202D2000253033753A200050414E454CAB
:10012000533A0D0A004D4F44554C45533A20005662
:10013000455253494F4E3A20253034750D0A00413F
:100140007267733A2064202D2064756D702C2072C4
:10015000202D20726561642C2077202D2077726914
:1001600074652C2073202D207365742C2067202D3E
:100170002067657400417267733A203C627C697C39
:10018000777C6C7C663E203C616464723E00256630
:10019000002575002569002575004D617820616492
:1001A000647220257500417267733A203C627C6955
:1001B0007C777C6C7C663E203C616464723E203CB3
:1001C00076616C75653E004D6178206164647220D3
:1001D000257500253032782000253034783A20000B
:1001E000526573657420746F2064656661756C7404
:1001F000732E2E2E2000417267733A2075202D2019
:1002000075706C6F61642C2064202D20646F776E94
:100210006C6F61640053656E64204D434D2D6669BB
:100220006C650D0A004D4158373435360D0A0055BE
:10023000706C6F616420616E6420646F776E6C6FA8
:100240006164206D636D2D66696C6500666F6E7408
:100250000052657365742073657474696E677320EA
:10026000746F2064656661756C7473007265736584
:100270007400526561642F7772697465204545503A
:10028000524F4D2C206765742F7365742076616C16
:1002900075657300656570726F6D004669726D7784
:1002A0006172652076657273696F6E2C206D6F6464
:1002B000756C65732C2070616E656C7300696E6679
:1002C0006F00436F6D6D616E6473206C69737400B1
:1002D00068656C70004578697420636F6E736F6C2D
:1002E000650065786974005265626F6F74204F53C2
:1002F00044007265626F6F7400446F6E652E0D0A64
:10030000004C022F02050A6C0251029A08940272F4
:1003100002CC0BBD029B02A408D002C2027D08E2FF
:1003200002D5026E08F202E702710800070E091CEE
:100330001B1215383F363124232A2D70777E796CB5
:100340006B6265484F464154535A5DE0E7EEE9FC65
:10035000FBF2F5D8DFD6D1C4C3CACD90979E998C55
:100360008B8285A8AFA6A1B4B3BABDC7C0C9CEDB86
:10037000DCD5D2FFF8F1F6E3E4EDEAB7B0B9BEABF5
:10038000ACA5A28F88818693949D9A2720292E3B25
:100390003C35321F18111603040D0A5750595E4B95
:1003A0004C45426F68616673747D7A898E8780954B
:1003B000929B9CB1B6BFB8ADAAA3A4F9FEF7F0E535
:1003C000E2EBECC1C6CFC8DDDAD3D4696E676075E5
:1003D000727B7C51565F584D4A4344191E171005D5
:1003E000020B0C21262F283D3A33344E4940475208
:1003F000555C5B7671787F6A6D64633E3930372275
:10040000252C2B0601080F1A1D1413AEA9A0A7B2A4
:10041000B5BCBB9691989F8A8D8483DED9D0D7C214
:10042000C5CCCBE6E1E8EFFAFDF4F39D0498049324
:10043000048E04890484047F047A04750470046BB8
:1004400004660461045C04570452044D04414352A1
:100450005500504F492000504C414E004C414E44F5
:100460000052544820005056414E005056414C0016
:10047000505641460050484C44004154554E00539C
:1004800054423600535442350053544234005354BE
:10049000423300535442320053544231004D414ED6
:1004A0005500542DFFC5FCFEBF40A4009BBA5ABBAB
:1004B00037670ADCD1CA64D9E0D7982C1A16E6A6A9
:1004C000267D848047D45474C50B52239626A60EED
:1004D00012486EDC856158B6FD4A52EA808AFCFEFD
:1004E000BF40EC39766B5ABB37670ADCD1CA64D996
:1004F000E0D7982C1A16E6A6267D848047D454743B
:10050000C50B52239626A60E12486EDC856158B69E
:10051000FD4A55415654616C6B001205730E5C0E1A
:100520009A0E424F4F540D0A004D756C74694F532B
:100530004420762E253034750D0A00FC20434F4EA2
:1005400046494700082008006F73642320000D0A05
:10055000000400000303001614010218000701063E
:1005600000010806010A05010D0E160EFFFFFF042B
:100570000000030300140701161501021800000112
:10058000080B080605010D12010E0E160EFFFFFFE7
:100590000801010908010A130104000203030216FD
:1005A00015030218020701060B08060C17060D01B9
:1005B0000800170806010A01170A05010D17090CA2
:1005C00012010E13080E0E160C0F160D10160EFF4C
:1005D000FFFFFD252E31668A0025758D00252E3101
:1005E000668B002553000909098D0045525200FB16
:1005F00025758200FA252E32668F00252E32668EF2
:1006000000802564810087256425250084253032FB
:100610002E366600832530322E3666004552520053
:10062000101100256400B12564B000B22564B0004B
:10063000B3253032753A25303275000909090900B1
:100640002563252E31668C008525648D00D8D9DA86
:10065000DBDCDDDEDFD0D1D2D3D4D5D6D753746185
:10066000626C65416C7400436C696D6200466C6934
:100670006768744D6F64650041726D6564466C61B6
:100680006700436F6E537461746500466C696768F8
:100690007454696D6500526F6C6C005069746368C6
:1006A00000475053004C6174004C6F6E00C820200E
:1006B00020202020202020202020C900B820202019
:1006C000202020202020202020B900486F72697A45
:1006D0006F6E005468726F74746C650047726F754A
:1006E0006E64537065656400426174566F6C74612A
:1006F00067650042617443757272656E7400426191
:1007000074436F6E73756D65640052535349466C44
:10071000616700486F6D6544697374616E6365005D
:10072000486F6D65446972656374696F6E004361FB
:100730006C6C5369676E0054656D70657261747599
:1007400072650063075F075B07570753074F07E2B0
:10075000E3E400E2E3E700E2E3E800E2E6E800E2E7
:10076000E8E800E5E8E8005253534900C2C0C1C0C0
:10077000C4C0C1C0C3C0C1C0C5C0C1C0436F6D70DB
:10078000617373005D06B419661967065D1B6A190B
:100790006D066119261E78066219441E82066319C9
:1007A000611E8B06D8196E199606FB1972199B06E5
:1007B0001E1A7619A106411A1D1DA506611A7A197D
:1007C000A906851A7E19CB06861E8219D306A91A98
:1007D0009C19DC06C91AA019E806AD1B491CF306D2
:1007E000F21AA419FE06161BA8190A076419551D4A
:1007F00013079A1C5B1C20077F1C5D1D2E076519C3
:10080000AC193707391BB0196707EA1B431C7C0773
:10081000111C6D1C636F6E66696700524541445937
:100820000D0A0053656E642022636F6E666967224D
:10083000206F7220776169742025757300FC206D2C
:100840006F64756C65733A00BDBEBF004D756C7406
:10085000694F534420762E253034750000407A10BD
:10086000F35A00A0724E18090010A5D4E80000E861
:100870007648170000E40B54020000CA9A3B0000BF
:1008800000E1F505000080969800000040420F004E
:100890000000A08601000000102700000000E8030F
:1008A000000000006400000000000A0000000000DA
:1008B0000100000000002C76D888DC674F0823DF99
:1008C000C1DFAE59E1B1B796E5E3E453C63AE6516C
:1008D000997696E8E6C28426EB898C9B62ED407C93
:1008E0006FFCEFBC9C9F40F2BAA56FA5F490055A2F
:1008F0002AF75C936B6CF9676DC11BFCE0E40D4754
:10090000FEF520E6B500D0ED902E03009435770576
:100910000080841E080000204E0A000000C80C332E
:100920003333330F986E12831141EF8D2114893BBD
:10093000E65516CFFEE6DB18D1844B381BF77C1D3D
:10094000901DA4BBE424203284725E228100C9F190
:1009500024ECA1E53D274E414E494E495459494E9C
:1009600046CDCCCC3D0AD7233C17B7D13877CC2B1A
:10097000329595E6241FB14F0A000020410000C8BF
:100980004200401C4620BCBE4CCA1B0E5AAEC59D40
:100990007400EC1011241FBECFEFD8E0DEBFCDBF36
:1009A00011E0A0E0B1E0E0EEF1E502C005900D92AB
:1009B000A831B107D9F724E0A8E1B1E001C01D9248
:1009C000AF3FB207E1F719E0C4E9D9E004C02297CC
:1009D000FE010E948E20C239D107C9F70E94081477
:1009E0000C94EE280DCBA3E1B0E0E9EFF4E00C9419
:1009F00092207C011B016A01FC011782168283810F
:100A000081FF66C3BE016F5F7F4F4B01F70193818A
:100A1000F10193FD859193FF81911F01882309F4D2
:100A200053C3853239F493FD859193FF81911F0162
:100A3000853239F4B70190E00E94432656016501E2
:100A4000E5CF10E0512C20E02032A0F48B3269F089
:100A500030F4803259F0833269F420612CC08D3239
:100A600039F0803339F4216026C02260246023C02D
:100A7000286021C027FD27C030ED380F3A3078F4C8
:100A800026FF06C0FAE01F9F300D1124132F13C05C
:100A90006AE0569E300D1124532E20620CC08E3217
:100AA00021F426FD11C3206406C08C3611F42068A1
:100AB00002C0883641F4F10193FD859193FF819145
:100AC0001F018111C1CF9BEB980F933018F4206167
:100AD000805E06C09BE9980F933008F0AAC12F7E74
:100AE00026FF16E02F73722E853621F4F22FF06464
:100AF0007F2E08C0863621F4622F6068762E02C0F1
:100B00001111115077FE07C01C3348F4442443945C
:100B1000410E27E00BC0183030F4212F06C027E02B
:100B20004CE3442E03C027E017E0412C560174E04B
:100B3000A70EB11CF6016081718182819381042D21
:100B4000A4010E94BA246C01098100FF02C003FFC6
:100B500006C071FC07C072FC08C0612C08C03DE2F1
:100B6000632E05C02BE2622E02C090E2692E802F18
:100B70008C7099F1662011F084E001C083E0851546
:100B800010F0512C0BC0581A73FC08C0B70180E25A
:100B900090E00E9443265A94C9F7F3CF662029F0CB
:100BA000B701862D90E00E94432603FD03C00CEFA1
:100BB00010E002C008EF10E0F72DF0717F2EF80171
:100BC0008491882309F476C271108052B70190E0B5
:100BD0000E9443260F5F1F4FF2CF77FE0FC04C0CD1
:100BE00004FF04C08A81813309F44A94141474F513
:100BF000F8E0F41578F588E0482E2CC076FC2AC081
:100C0000812F90E08C159D059CF06CEFC6166FEF60
:100C1000D60674F0772D7068772E0AC0E2E0F0E017
:100C2000EC0FFD1FE10FF11D8081803319F411508D
:100C30001111F4CF77FE0EC044244394410E812F4E
:100C400090E0C816D9062CF41C1904C0442443941F
:100C500001C010E077FE07C01C141D043CF496018F
:100C60002F5F3F4F05C025E030E002C021E030E0BB
:100C7000662011F02F5F3F4F112331F0412F50E0DC
:100C80004F5F5F4F240F351F452D50E02417350768
:100C900014F4521A01C0512C872D897049F4552043
:100CA00039F0B70180E290E00E9443265A94F7CFD2
:100CB000662029F0B701862D90E00E94432673FC40
:100CC00009C0552039F0B70180E390E00E94432627
:100CD0005A94F7CF77FE5FC09C2D8D2DD7FE02C0B2
:100CE00090E080E0692E782E40E050E0C601841943
:100CF00091099D878C87960126193709280D391D82
:100D0000812F90E0EE27FF27E81BF90BFF87EE8786
:100D1000FFEF6F167F0669F4B7018EE290E02B8B30
:100D20003A8B488B598B0E944326598948893A89C6
:100D30002B89C614D70454F06C857D85661577051C
:100D40002CF4F901E40FF51F818101C080E371E00B
:100D5000671A71084F5F5F4FEE85FF856E167F063D
:100D60006CF0B70190E02B8B3A8B488B598B0E942B
:100D700043262B893A8948895989CACF6C147D0446
:100D800039F49A81963318F4953311F404FF81E312
:100D9000B70190E04BC08A81813309F00F7EB70123
:100DA00090E00E944326111105C074FE18C085E42E
:100DB00090E017C0B7018EE290E00E94432682E0E7
:100DC00066246394680EF401E80FF11D8081B70179
:100DD00090E00E944326115041F3862DF1CF85E625
:100DE00090E0B7010E944326D7FC05C0C114D1048E
:100DF00039F404FF05C0D194C194D1088DE201C03B
:100E00008BE2B70190E00E94432680E36AE0C616B9
:100E1000D1042CF08F5FFAE0CF1AD108F7CFB701D9
:100E200090E00E944326B701C601C0960E94432667
:100E300041C1833631F0833779F0833509F058C0EA
:100E400021C0560172E0A70EB11CF6018081898392
:100E500001E010E0640114C05601F2E0AF0EB11CD5
:100E6000F601C080D18026FF03C0612F70E002C070
:100E70006FEF7FEFC6012B8B0E94D3258C012B894E
:100E80002F7715C05601F2E0AF0EB11CF601C080FD
:100E9000D18026FF03C0612F70E002C06FEF7FEFAB
:100EA000C6012B8B0E94C1258C012B892068722ED4
:100EB00023FD1AC0852D90E008171907A8F4B70183
:100EC00080E290E00E9443265A94F4CFF60177FC2A
:100ED000859177FE81916F01B70190E00E944326D2
:100EE00051105A94015011090115110579F7E2C00A
:100EF000843611F0893651F5560127FF09C0F4E018
:100F0000AF0EB11CF60160817181828193810AC0AC
:100F1000F2E0AF0EB11CF60160817181882777FD88
:100F20008095982F022F0F7697FF08C09095809597
:100F3000709561957F4F8F4F9F4F00682AE030E09A
:100F4000A4010E94A326C82EC8183EC0022F8537D0
:100F500021F40F7E2AE030E01DC0097F8F3691F02A
:100F600018F4883559F0B0C0803719F0883711F07F
:100F7000ABC0006104FF09C0046007C024FF08C0C3
:100F8000066006C028E030E005C020E130E002C085
:100F900020E132E0560107FF09C0F4E0AF0EB11CBA
:100FA000F601608171818281938108C0F2E0AF0E09
:100FB000B11CF6016081718180E090E0A4010E9483
:100FC000A326C82EC8180F7706FF0BC0202F2E7F30
:100FD000C11650F404FF0AC002FD08C0202F2E7E67
:100FE00005C0DC2C202F03C0DC2C01C0D12E24FF37
:100FF0000DC0FE01EC0DF11D8081803311F4297EBE
:1010000009C022FF06C0D394D39404C0822F8678EF
:1010100009F0D39423FD13C020FF06C01C2DD51466
:1010200018F4150D1D19D52CD51468F4B70180E2FC
:1010300090E02B8B0E944326D3942B89F5CFD514B7
:1010400010F45D1801C0512C24FF12C0B70180E3D9
:1010500090E02B8B0E9443262B8922FF17C021FF93
:1010600003C088E590E002C088E790E0B7010CC0BB
:10107000822F867859F021FD02C080E201C08BE208
:1010800027FD8DE2B70190E00E944326C11638F497
:10109000B70180E390E00E9443261150F7CFCA9435
:1010A000F401EC0DF11D8081B70190E00E94432610
:1010B000C110F5CF552009F4C2CCB70180E290E011
:1010C0000E9443265A94F6CFF7018681978102C089
:1010D0008FEF9FEF6396E2E10C94AE201092C20274
:1010E00008952CE088E190E00FB6F894A8958093DD
:1010F00060000FBE20936000FFCFCF93DF93C1E06D
:10110000D3E0FE01859194910E945B1580E191E00E
:101110000E945B15FE013296859194910E945B15A9
:101120000E940D14269683E0CB32D80751F7DF9149
:10113000CF91089580EE91E00E945B150E942520DA
:1011400089EF92E00C945B15BF92CF92DF92EF9201
:10115000FF920F931F93CF93DF931F9287E08F939C
:101160008FE291E09F938F9386EE92E09F938F930F
:101170000E942A2685E291E00E945B150F900F9055
:101180000F900F900F900F90C0E0D0911601CD17E7
:1011900078F488E0C89FF0011124E65EFA4F85914B
:1011A00094910E945B1580E20E943715CF5FEFCFCC
:1011B0000E940D148BE191E00E945B15D12CB09040
:1011C0001701C4E1D1E006EE12E086E0C82EDB1480
:1011D000F8F4ED2CF12C1F92DF92DF93CF931F9345
:1011E0000F930E942A26CE9CF001CF9CF00D112473
:1011F000EC57F84F859194910E945B150E940D1455
:10120000D3940F900F900F900F900F900F90DFCF0F
:10121000DF91CF911F910F91FF90EF90DF90CF90D2
:10122000BF9008950E9418159C012227232BD1F707
:101230000895EF92FF920F931F93CF93DF93009146
:10124000CF0308500E94DC16C0E0D0E0EC2EFC2E4C
:10125000F29490EFF92210E0412F4F2920E06E2DFB
:10126000802F810F0E94E9161F5F1031A9F7219688
:10127000C031D10559F7DF91CF911F910F91FF90A8
:10128000EF9008950F931F93CF93DF93C0E0D0E0CA
:10129000082F10E0C8010C2E02C0959587950A947E
:1012A000E2F780FF02C081E301C080E30E943715AE
:1012B0002196C830D10571F7DF91CF911F910F9121
:1012C0000C940D14CF92DF92EF92FF920F931F9325
:1012D000CF93DF93CDB7DEB7E6970FB6F894DEBFB6
:1012E0000FBECDBFA6DF85E292E00E945B1500E055
:1012F00010E06E0187E3C80ED11CBE016F5F7F4F07
:10130000802F0E948F16FE0131967F01F701819197
:101310007F01B8DFEC14FD04C9F72AE0F22E80E06B
:10132000B1DFFA94E1F70F5F1F4F0115F1E01F07DE
:1013300021F7E6960FB6F894DEBF0FBECDBFDF9162
:10134000CF911F910F91FF90EF90DF90CF90089574
:10135000CF93DF93D8E0C0E065DF8170CC0FC82B5E
:10136000D150D1F75FDF5EDF8C2FDF91CF910895F1
:10137000CF92DF92EF92FF920F931F93CF93DF9361
:10138000CDB7DEB7E6970FB6F894DEBF0FBECDBF80
:1013900050DF85E192E00E945B1519E043DF1150B8
:1013A000E9F700E010E06E0187E3C80ED11CCE0122
:1013B00001967C01CDDFF70181937F01EC15FD05DE
:1013C000C9F73AE0F32EC4DFFA94E9F7BE016F5F84
:1013D0007F4F802F0E9456160F5F1F4F0115F1E0BF
:1013E0001F0729F789EF92E00E945B15E6960FB67A
:1013F000F894DEBF0FBECDBFDF91CF911F910F914B
:10140000FF90EF90DF90CF90089560E070E081E072
:101410000E941714009771F0FC018081853541F01E
:1014200018F4843431F00895843619F0853731F496
:101430009FCF48CF86EF91E00C945B1508958F9273
:101440009F92AF92BF92CF92DF92EF92FF920F9353
:101450001F93CF93DF93C0E0D0E059EDA52E51E06C
:10146000B52E06EE12E063ED862E61E0962E6E013B
:1014700044E0CC0CDD1C4A95E1F7DF92CF92BF929D
:10148000AF921F930F930E942A260F900F900F90F8
:101490000F900F900F90E12CF12CC7018C299D2902
:1014A0000E9411271F928F939F928F921F930F93E9
:1014B0000E942A268FEFE81AF80A0F900F900F90DB
:1014C0000F900F900F9080E1E816F10431F70E9421
:1014D0000D142196C034D10551F6DF91CF911F91A3
:1014E0000F91FF90EF90DF90CF90BF90AF909F90C3
:1014F0008F900895CF93DF93C0E0D0E0CE010E949B
:1015000011270E9437152196C11584E0D807B1F73D
:10151000DF91CF910895CF93DF93C0E0D0E082DEDA
:10152000682FCE010E9432272196C11584E0D8078A
:10153000B1F7DF91CF9108950F931F93CF93DF936E
:1015400060E070E083E00E941714EC0160E070E05E
:1015500084E00E9417148C01209709F477C000974B
:1015600009F474C0CE010E947724EC01C11584E017
:10157000D807C0F084E08F931F9287EC91E09F938F
:101580008F9386EE92E09F938F930E942A260F906E
:101590000F900F900F900F900F90DF91CF911F91B0
:1015A0000F91089560E070E082E00E941714FC0142
:1015B0008081873549F158F48634E1F118F482349A
:1015C00099F044C08934D9F08C3441F13FC0893658
:1015D000B1F028F4823641F0863661F137C08C369E
:1015E000E9F0873789F032C0C8010E947724682F5C
:1015F000CE01DF91CF911F910F910C943227C8013A
:101600000E947724BC0103C0C8010E949424CE012B
:10161000DF91CF911F910F910C944C27C8010E942C
:101620009424AB01BC01CE01DF91CF911F910F91AA
:101630000C944427C8010E947424AB01BC01CE0164
:10164000DF91CF911F910F910C94442786EA91E08E
:10165000DF91CF911F910F910C945B150F931F9306
:10166000CF93DF93CDB7DEB72D970FB6F894DEBFDB
:101670000FBECDBF60E070E083E00E9417140097BA
:1016800009F47BC00E9477248C01011584E01807BF
:1016900030F084E08F931F928AE991E02AC060E0E5
:1016A00070E082E00E941714FC0180818735C1F14F
:1016B00060F4863409F44AC018F4823499F05DC0AD
:1016C000893431F18C34A1F158C0893609F128F4FC
:1016D000823641F08636D1F150C08C3649F18737D9
:1016E000F9F04BC0C8010E9411271F928F9387E920
:1016F00091E09F938F9386EE92E09F938F930E9449
:101700002A260F900F900F900F900F900F9039C0D6
:10171000C8010E941E279F938F9384E991E0E9CF2F
:10172000C8010E941E279F938F9381E991E0E1CF2A
:10173000C8010E9419272AE0AE014F5F5F4F0E9447
:10174000DE25CE0101960E9450151BC0C8010E94E3
:1017500019279F938F937F936F938EE891E09F93C8
:101760008F9386EE92E09F938F930E942A260FB666
:10177000F894DEBF0FBECDBF04C085E791E00E94A4
:101780005B152D960FB6F894DEBF0FBECDBFDF916F
:10179000CF911F910F91089560E070E081E00E9469
:1017A0001714009711F1FC0180818735D9F058F4A6
:1017B0008734D1F018F4843499F017C0823589F059
:1017C000833589F012C0823761F028F4843641F005
:1017D000873651F00AC0833731F0873719F005C0DA
:1017E0002ECE88CE98CEA8CE39CF8FE391E00C9440
:1017F0005B15CF92DF92EF92FF920F931F93CF93DF
:10180000DF937C0101E013E0C0E0D0E0C62ED12CD4
:10181000F80165917491A601C7010E949B25892B4F
:1018200071F486E08C9FF0018D9FF00D1124EB5F29
:10183000FC4F85919491FC01099581E007C02196A8
:101840000A5F1F4FC730D10519F780E0DF91CF91B4
:101850001F910F91FF90EF90DF90CF90089560E07F
:1018600070E080E0E4D760E0FC01E60FF11D20812C
:101870002F7D11F06F5FF8CFBCDF811104C080E0D5
:1018800091E00C945B150895E82FF0E0E55DFC4FC6
:10189000849108950F931F93CF93A0912D0228E375
:1018A000A29FD001112440E050E0C0E0AE55BB4FF4
:1018B000FD01E40FF51F059115912591349106174F
:1018C00017072807390739F0CF5F4C5F5F4FCE30DD
:1018D00079F78FEF01C08C2FCF911F910F91089551
:1018E000E0912D029EE0E99FF0011124E80FF11D27
:1018F000EE0FFF1FEE0FFF1FEE55FB4F6591759129
:10190000859194910895CF92DF92EF92FF920F9379
:101910001F93CF93DF938B01C42E7C012AE0E20E4C
:10192000F11CEC01D12C88818D25AEDFD82E899158
:101930000E943715CE15DF05B1F7E02EC02FD12F4D
:101940008C2F8E198C1578F40115110511F0F88083
:1019500001C0F12C8F2D8D2597DFD82E8F2D0E9461
:1019600037152196EDCF8D2DDF91CF911F910F91DE
:10197000FF90EF90DF90CF900C943715CF93DF93CB
:10198000CDB7DEB7AF970FB6F894DEBF0FBECDBFB1
:101990009CE39EA31AA61BA61CA61DA61FA61EA6F8
:1019A0008DA382E28FA38FE290E099A788A784E0BD
:1019B00097DF6AA77BA78CA79DA745E2BE016F5F53
:1019C0007F4FCE0186969FDFAF960FB6F894DEBFAD
:1019D0000FBECDBFDF91CF910895CF93DF93CDB7E9
:1019E000DEB72A970FB6F894DEBF0FBECDBF2CE34B
:1019F00029832AE030E03C832B831A86198621E272
:101A00002A836D837E838F83988740E060E070E057
:101A1000CE01019678DF2A960FB6F894DEBF0FBE8E
:101A2000CDBFDF91CF910895FF920F931F93CF9376
:101A3000DF93CDB7DEB72A970FB6F894DEBF0FBE9F
:101A4000CDBFF82E40912C0250E04730510508F0F0
:101A5000EEC0FA01EC5CFF4F0C948C202CE3821357
:101A600059C08CE311DF80932B02F0922001109279
:101A7000230110922201109224011092250110924C
:101A8000260110922701109229011092280181E06D
:101A9000CCC0887F8032E1F580912B028F25F4DE67
:101AA00080932B02F092210110922A0282E0BDC0A5
:101AB00010912A02482F50E060E070E028E0129F69
:101AC000C001112404C0440F551F661F771F8A955B
:101AD000D2F78091220190912301842B952B909332
:101AE0002301809322011F5F10932A0280912B0211
:101AF0008F25CADE80932B02123009F098C08091A6
:101B00002201909123010A978F3F910529F020F03F
:101B100010922C0280E0B9C083E066C0E0912A02F6
:101B2000482F50E060E070E028E0E29FC0011124FF
:101B300004C0440F551F661F771F8A95D2F7009186
:101B40002401109125012091260130912701402B7D
:101B5000512B622B732B40932401509325016093EA
:101B600026017093270111E01E0F10932A02809125
:101B70002B028F2589DE80932B02143009F057C089
:101B800010932C0210922A0252C010912A02482F60
:101B900050E060E070E028E0129FC001112404C012
:101BA000440F551F661F771F8A95D2F78091280131
:101BB00090912901842B952B9093290180932801E2
:101BC0001F5F10932A0280912B028F255DDE809388
:101BD0002B02123061F580912201909123010A9726
:101BE00011F486E001C085E080932C02CBCF809178
:101BF0002B028F2549DE80932B0220912A02E22FAF
:101C0000F0E0E05EFE4FF2862F5F20932A0230E084
:101C100080912201909123010A972817390738F003
:101C200086E003C08093290287E080932C02809194
:101C30002C02873009F06ECF10922C02909129026D
:101C400080912B02981366CF809121018232E1F4BA
:101C50008CE389838AE090E09C838B831A861986C3
:101C60008091240190912501A0912601B091270136
:101C70008D839E83AF83B88783E28A8340E060E0F0
:101C800070E0CE0101963FDE81E02A960FB6F8940F
:101C9000DEBF0FBECDBFDF91CF911F910F91FF909F
:101CA0000895C6D69C012227232B21F4BDDE88236C
:101CB000C1F3089580E0089580E390E00E94112729
:101CC00080932F0281E390E00E94112780932D02E0
:101CD00082E390E00E94112791E0811101C090E021
:101CE00090932E02089560E080E390E00E943227F6
:101CF00061E081E390E00E94322760E082E390E0BF
:101D00000C943227860F911DFC01628573858485B2
:101D100095850895860F911DFC01628573858485E4
:101D200095850895860F911DFC01628573858485D4
:101D3000958508958F929F92AF92BF92CF92DF9236
:101D4000EF92FF920F931F93CF93DF93C0E0D1E008
:101D500012E128EEC22E23E0D22EE12CF12CA1DFDD
:101D6000882309F4E8C160912401709125018091D4
:101D70002601909127018EDD90E08A30910508F0D0
:101D800072C1FC01E55CFF4F0C948C2080914E01E8
:101D9000811104C081E0F2DD81E008C0823011F4DD
:101DA00083E0ECDD80E09CDD18DE82E08093B7020A
:101DB0004091BE025091BF026091C0027091C10279
:101DC00048575C4E6F4F7F4F409318015093190155
:101DD00060931A0170931B0144C160E080E291E0BE
:101DE00091DFA70196010E946A203093B6022093EA
:101DF000B50237C160E180E291E08CDF6093AD0213
:101E00007093AE028093AF029093B00264E180E2DF
:101E100091E080DF6093A9027093AA028093AB02E5
:101E20009093AC0268E180E291E074DF6093A502D8
:101E30007093A6028093A7029093A80212C13091DA
:101E4000B10221E080912A01823008F420E0209341
:101E5000B102E0912B01E093B402F0E0EE0FFF1F1E
:101E6000E55DFB4F859194919093B3028093B2020C
:101E700080912F02882329F080912E02882309F473
:101E8000F0C03111EEC0222309F4EBC035D3E9C014
:101E900060E080E291E03EDF20E030E048EC52E498
:101EA0000E944B230E94FF216093A20264E080E223
:101EB00091E030DF20E030E048EC52E40E944B2318
:101EC0000E94FF216093A10268E080E291E022DF9E
:101ED00020E030E048EC52E40E944B230E94FF21B6
:101EE0006093A0026CE080E291E014DF20E030E03B
:101EF00048EC52E40E944B230E94FF2160939F0212
:101F000060E180E291E006DF20E030E048EC52E45E
:101F10000E944B230E94FF2160939E0281E09091DA
:101F20005401911101C080E08093A302909155016A
:101F300090939D02982F9D2790934302882311F040
:101F400084E601C080E08093A402E2E4F1E0ABE823
:101F5000B2E0812F01900D928A95E1F782C060E096
:101F600080E291E0DFDE0E94322220E836E948E19B
:101F70005BE40E94972160938702709388028093AC
:101F8000890290938A0264E080E291E0CBDE0E94B5
:101F9000322220E836E948E15BE40E949721609311
:101FA000830270938402809385029093860268E096
:101FB00080E291E0AFDE4B015C0160937F027093A1
:101FC0008002809381029093820260E180E291E03E
:101FD000A1DE0E94AE230E94042270937A026093D5
:101FE00079027093600260935F0264E180E291E0A5
:101FF00091DE60937B0270937C0280937D029093CC
:102000007E026093610270936202809363029093F8
:10201000640280914E018093770280914F018093FA
:10202000780280912F02811103C0C501B401ECD068
:1020300080912F02882321F080912E02882389F03D
:102040005FD20FC068E080E291E064DEDC01CB018A
:10205000B0588093730290937402A0937502B0936A
:10206000760201E001C000E080912F02813009F08A
:1020700060C040912401509125016091260170912A
:1020800027014B3051056105710509F43CC04D3005
:1020900051056105710509F448C04A3051056105D3
:1020A000710509F045C060E080E291E033DE6093A5
:1020B0005702709358028093590290935A0280916C
:1020C000460180934E0282D164E080E291E022DEFC
:1020D000609353027093540280935502909356027A
:1020E00064E180E291E016DE0E94042280E090E04C
:1020F0000E94302260934F027093500280935102ED
:102100009093520216C060E080E291E003DE0E94EC
:10211000FF217093720260937102882777FD80958A
:10212000982F0E94322270D004C080912E0281111B
:1021300000E0C02B14CE8091BE029091BF02A0910E
:10214000C002B091C10240911801509119016091F3
:102150001A0170911B0184179507A607B70738F07D
:102160002091B702222319F01092B702C1E04091EA
:102170001C0150911D0160911E0170911F01841777
:102180009507A607B707D0F08091B7028230B1F467
:1021900083E0F4DB4091BE025091BF026091C00227
:1021A0007091C1024C505E4F6F4F7F4F40931C01A6
:1021B00050931D0160931E0170931F018C2FDF91BE
:1021C000CF911F910F91FF90EF90DF90CF90BF9034
:1021D000AF909F908F9008958CE380932001109290
:1021E00021018AE090E090932301809322011092D4
:1021F00024011092250110922601109227011092BD
:1022000029011092280108954F925F926F927F9258
:102210008F929F92AF92BF92CF92DF92EF92FF92F6
:102220004B015C01C090BE02D090BF02E090C002A2
:10223000F090C102209165023091660240916702E0
:10224000509168020E94C9202B013C0180915B02E1
:1022500090915C02A0915D02B0915E02A70196018F
:10226000281B390B4A0B5B0BCA01B9010E943022B3
:102270009B01AC01C301B2010E94972120E030E034
:102280004AE754E40E944B236093690270936A0208
:1022900080936B0290936C0280926502909266022A
:1022A000A0926702B0926802C0925B02D0925C0278
:1022B000E0925D02F0925E02FF90EF90DF90CF908F
:1022C000BF90AF909F908F907F906F905F904F9056
:1022D00008954DEC5CEC6CE470E481E490E00E94C5
:1022E00044274DEC5CEC6CE670E485E490E00E94E1
:1022F000442746E656E666E870E489E490E00E94EA
:10230000442740E050E060E670E48DE490E00C94F7
:102310004427CF92DF92EF92FF92CF93DF9300D0CA
:1023200000D0CDB7DEB781E490E00E9419279B0171
:10233000AC0160930C0170930D0180930E0190939A
:102340000F0185E490E029833A834B835C830E94EC
:102350001927609308017093090180930A019093F3
:102360000B0189E490E00E9419276B017C016093C6
:1023700004017093050180930601909307018DE499
:1023800090E00E94192760930001709301018093EF
:1023900002019093030129813A814B815C81C7013D
:1023A000B6010E94C9206093450270934602809353
:1023B0004702909348020F900F900F900F90DF917B
:1023C000CF91FF90EF90DF90CF9008958F929F92E2
:1023D000AF92BF92CF92DF92EF92FF92CF93809114
:1023E0004E02811118C020910801309109014091DD
:1023F0000A0150910B01609157027091580280912F
:10240000590290915A020E9497210E94AE230E9485
:10241000042260934E0260914E02662349F170E0FF
:1024200080E090E00E9432229B01AC016091570253
:10243000709158028091590290915A020E949721FE
:1024400060934A0270934B0280934C0290934D022A
:10245000C1E02091000130910101409102015091B1
:1024600003010E94902118160CF4C0E0C0934402AE
:10247000C0904A02D0904B02E0904C02F0904D0286
:1024800080900C0190900D01A0900E01B0900F0172
:10249000A5019401C701B6010E9440231816DCF47F
:1024A000A5019401C701B6010E94C92020914502EF
:1024B0003091460240914702509148020E94972174
:1024C00020E030E048EC52E40E944B230E940422BA
:1024D000653628F401C060E06093490203C084E6D9
:1024E00080934902CF91FF90EF90DF90CF90BF9003
:1024F000AF909F908F90089581E08093420208955D
:102500004F925F926F927F928F929F92AF92BF9203
:10251000CF92DF92EF92FF92CF93DF9300D000D063
:10252000CDB7DEB780914202882309F4E8C081303C
:10253000E1F5809177028823B1F18330B1F582E033
:10254000809342028091830290918402A09185023F
:10255000B09186028093380290933902A0933A0298
:10256000B0933B028091870290918802A0918902EA
:10257000B0918A028093340290933502A093360280
:10258000B09337028091650290916602A091670234
:10259000B09168028093300290933102A09332028E
:1025A000B093330202C01092420280914202823004
:1025B00009F0A5C0C0903402D0903502E0903602F8
:1025C000F0903702C701B6019F7725E33AEF4EE856
:1025D0005CE30E944B230E9494214B015C012091FB
:1025E000830230918402409185025091860260916D
:1025F00038027091390280913A0290913B020E9418
:10260000C9202B013C012091870230918802409122
:10261000890250918A02C701B6010E94C9206B014C
:102620007C01C301B2019F7720EC3BE649ED57E402
:102630000E944B23A50194010E944B230E94102469
:1026400069837A838B839C83C701B6019F7720ECD3
:102650003BE649ED57E40E944B230E9410249B0166
:10266000AC0169817A818B819C810E94CA200E9481
:10267000D22360933E0270933F0280934002909376
:10268000410277FA709477F87094A501940160E0A4
:1026900070E080E89FE30E9497219B01AC01C70195
:1026A000B6010E944B23A30192010E943D2120EE1E
:1026B0003EE245E652E40E944B2320E030E044EB4A
:1026C00052E40E94CA200E94FF219B0177FF02C0B2
:1026D00028593E4FC901845B910997FF02C0885970
:1026E0009E4F20915F0230916002821B930B97FFF7
:1026F00002C088599E4F90933D0280933C020F90F8
:102700000F900F900F90DF91CF91FF90EF90DF909F
:10271000CF90BF90AF909F908F907F906F905F9081
:102720004F90089580E490E00E941127853511F0C4
:102730000E94252045E050E061E570E088EB92E0E2
:102740000E9401271092BD02E4DDEEE1F5E0259143
:102750003491F90109940AD26093BE027093BF02CA
:102760008093C0029093C102E0E2F5E085919491DC
:10277000FC01099465E580E490E00E94322745E081
:1027800050E061E570E080E191E00E942327A1DD47
:10279000ECE1F5E025913491F90109940E9436208D
:1027A000B2D12FEF83ED90E3215080409040E1F7CC
:1027B00000C0000080E190E00FD18BD140D20E9498
:1027C0008C1F882301F1F8D28091CF0320E04BE3E6
:1027D00055E06091CE03845071D31F9287E08F93B0
:1027E00089E295E09F938F9386EE92E09F938F937B
:1027F0000E942A268FE29CE083D00F900F900F90CA
:102800000F900F900F9082E295E055D18BDF03C5BA
:10281000C5DFD1D480E090E008958EE495E04BC10F
:10282000FCDF88E495E047D11092E5020895E0E0EE
:10283000AE2FB0E0AD53BD4F9C91903211F4EF5FDD
:10284000F7CF20E02817A1F0AE2FB0E0AD53BD4F79
:102850003C913F7D11F0EF5FF7CFAE2FB0E0AD536D
:10286000BD4F9C91903211F4EF5FF7CF2F5FEACF0D
:10287000F0E0ED53FD4F8081882311F0CF010895E2
:10288000CB010895D5D09C012227232BC1F58D3093
:10289000910539F08F379105B9F088309105F1F441
:1028A00013C0E091E502EE2371F0F0E0ED53FD4F2F
:1028B0001082B3DFE091E302F091E402309719F067
:1028C00083EC92E00995ACCF8091E5028823B9F0C2
:1028D00081508093E50284E495E0EDC0803220F0E1
:1028E000E091E502EF3111F487E008C091E09E0F1E
:1028F0009093E502F0E0ED53FD4F8083B8C008955A
:10290000CF93DF93EC018CDF81E08093C202D09300
:10291000E402C093E3028091C202882311F0B2DF87
:10292000FACFDF91CF9108951F920F920FB60F92B9
:1029300011242F938F939F93EF93FF938091C00067
:102940009091C6008871E091F602EF5FEF772091D9
:10295000F502E21739F0E093F602F0E0E750FD4FA0
:10296000908301C082E09091F402982B9093F4023E
:10297000FF91EF919F918F912F910F900FBE0F902C
:102980001F9018951F920F920FB60F9211248F93DC
:102990009F93EF93FF939091F8028091F702981321
:1029A00006C08091C1008F7D8093C1000CC0E09172
:1029B000F702EF5FEF73E093F702F0E0E758FC4FA8
:1029C00080818093C600FF91EF919F918F910F902E
:1029D0000FBE0F901F9018951092F8021092F702F8
:1029E0001092F6021092F50297FF04C022E02093A5
:1029F000C0009F779093C5008093C40088E98093BE
:102A0000C10086E08093C2008CE495E19093EF02D0
:102A10008093EE0281E395E19093F1028093F002BE
:102A200083E08093E9021092F3021092F20208957B
:102A30009091F6028091F502981781F0E091F502ED
:102A4000EF5FEF77E093F502F0E0E750FD4F808114
:102A50009091F4021092F40290E0089580E091E0E9
:102A60000895E6DF9C012227232BD9F70895909142
:102A7000F8029F5F9F732091F7029217E1F3E92F0D
:102A8000F0E0E758FC4F80839093F8028091C100FA
:102A900080628093C1000895EADF80E090E00895AD
:102AA000CF93DF93EC018991882311F0E0DFFBCF16
:102AB000DF91CF910895CF93DF93FC018491EF01D3
:102AC0002196882319F0D3DFFE01F8CFDF91CF9153
:102AD000089584B1837C8C6284B980E58CBD0895AF
:102AE0008EBD0DB407FEFDCF8EB5089563E085E081
:102AF00090E00E9432274DEC5CEC6CE87FE386E0CE
:102B000090E00C94442782E084BD83E085BD16BC30
:102B10008AEF87BDEEE6F0E0808182608083789462
:102B200008951F920F920FB60F9211248F939F93C7
:102B3000AF93BF938091B9039091BA03A091BB0367
:102B4000B091BC030196A11DB11D8093B903909370
:102B5000BA03A093BB03B093BC03BF91AF919F9105
:102B60008F910F900FBE0F901F901895F894609161
:102B7000B9037091BA038091BB039091BC03789420
:102B800008958068ADDF8FEFABCFCF93DF931F92B7
:102B9000CDB7DEB76983A4DF6981862F0F90DF91FF
:102BA000CF919ECF8F3F11F460E001C0682F87E086
:102BB000ECDF80E090E008958093D203813069F4E7
:102BC0001092CD038DE18093D1038CE08093D003EC
:102BD0008FE08093CF0386E00CC080E48093CD0328
:102BE0008DE18093D1038FE08093D0038093CF0356
:102BF00088E08093CE0308955B9B02C080E01EC0F6
:102C00005E9880E2BEDF5E9A80FDF8CF81FF12C041
:102C100081E08093D2031092CD038DE18093D103A4
:102C20008CE08093D0038FE08093CF0386E0809385
:102C3000CE03089580E190E00E941127BDCFCF938D
:102C4000DF935398569A52985A9AD6DF5E988CE63C
:102C500098DF682F6F7E8CE698DF6FE781E095DF65
:102C60006091CD036C6080E090DF81E190E00E9494
:102C70001127D82FC0E16D2F8C2F87DFCF5FC03297
:102C8000D1F75E9A82ED95E19093C7038093C603D6
:102C90001092C9031092C80382E08093C10310927E
:102CA000CB031092CA03DF91CF910895EF92FF9268
:102CB0001F93CF93DF931F92CDB7DEB7F82E162F59
:102CC0005E9860E080E0798360DF85E38A95F1F7C4
:102CD00000006F2D89E059DFE12E7981F72E10E099
:102CE000612F8AE052DFF70161917F018BE04DDFB8
:102CF0001F5F1633A9F760EA88E047DF80E241DF13
:102D000085FDFCCF6091CD036C6080E03EDF5E9A74
:102D10000F90DF91CF911F91FF90EF9008950F9347
:102D20001F93CF93DF93C82F162F072F5E9860E075
:102D300080E02BDF85E38A95F1F700006C2F89E0B6
:102D400024DF60E588E021DF80E21BDF85FDFCCF2A
:102D5000C12FD02F10E0612F8AE017DF80E411DF50
:102D600089931F5F1633B9F76091CD036C6080E0E3
:102D70000CDF5E9ADF91CF911F910F910895CF9351
:102D8000DF93C82FD0E08EE1689FC00DD11D1124C4
:102D9000D1706D2F85E0F9DE6C2F86E0DF91CF9149
:102DA000F4CE8091CC03882331F06FEF87E0EDDE25
:102DB0005E9A1092CC0308958091CC038111F1DFCB
:102DC0005E9864E084E0E1DE5E9A80EA8A95F1F73D
:102DD00008950F931F93CF93DF9300D0CDB7DEB745
:102DE000142F022F9091CC03992329F06A838983B1
:102DF000D8DF89816A815E98C2DF602F6770660FB5
:102E0000660F660F84E0C1DE612F87E0BEDE5E9A4A
:102E10000F900F90DF91CF911F910F9108951F9305
:102E2000CF93DF9300D0CDB7DEB7142F9091CC03B2
:102E3000992329F06A838983B4DF89816A81109399
:102E4000BD0391E09093CC035E989091D0039617C8
:102E500008F460E09091D103981708F480E08FDFC8
:102E6000177088E0189FB0011124616084E00F9012
:102E70000F90DF91CF911F9188CEEF92FF921F9319
:102E8000CF93DF931F92CDB7DEB7142F422F598314
:102E9000C6DFE12E5981F52EF70161917F0166238E
:102EA00031F06F3F09F460E087E06FDEF5CF0F90FF
:102EB000DF91CF911F91FF90EF9073CFEF92FF9230
:102EC0001F93CF93DF931F92CDB7DEB7142F422FFE
:102ED0005983A5DFE12E5981F52EF7016491662310
:102EE00049F06F3F09F460E087E04FDE8FEFE81AAA
:102EF000F80AF3CF0F90DF91CF911F91FF90EF90E1
:102F000050CF60E080E190E00E94502760E081E1D6
:102F100090E00C945027EF92FF920F931F93CF9362
:102F2000DF93883008F080E098E4899F80011124C5
:102F300000581F4FE0901701C7EDD3E0F12CC801F6
:102F40000E941127FE01329780838E1598F4C801E4
:102F500001960E941127FE0131978083C8010296D5
:102F60000E94112788830D5F1F4FF394239688E1F9
:102F7000F812E5CFF092D403DF91CF911F910F911A
:102F8000FF90EF9019CFCF93DF93C0E0D6E0809110
:102F9000D403C817A8F48C2F90E0FC01EE0FFF1F9C
:102FA000E80FF91FEB52FC4FE081DE9FF001112486
:102FB000EA57F84F85919491FC010995CF5FE7CFCF
:102FC00081E08093D303DF91CF910895CF93DF9376
:102FD0008091D303882351F1EFDEC0E0D6E08091E9
:102FE000D403C81708F58C2F90E0FC01EE0FFF1FEB
:102FF000E80FF91FEB52FC4FE081DE9FF001112436
:10300000E857F84F25913491DC01AA0FBB1FA80F98
:10301000B91FAB52BC4F12966C91129711968C91BE
:10302000F9010995CF5FDBCF1092D303DF91CF91E8
:103030000895CF92DF92FF920F931F93CF93DF9368
:103040001F92CDB7DEB728E4829FC00111248C0106
:1030500000581F4F6B01F12CF416E1F0F60164915A
:10306000C80149830E943227F60131966491C80154
:1030700001960E943227F60132966491C8010296A9
:103080000E9432270D5F1F4FF394F3E0CF0ED11C47
:103090004981E2CF0F90DF91CF911F910F91FF9067
:1030A000DF90CF90089546E160E975E080E0C1DFF0
:1030B0004BE06FE675E081E0BCDF4AE061E575E07A
:1030C00082E0B7CF20912504309126048217930720
:1030D00008F4C9014091230450912404481759076A
:1030E00008F4CA01821B930B6091210470912204A1
:1030F000CAD7862F0895CF9380912804882319F189
:103100009091A3029923F9F0C0912004813019F421
:1031100080919D020AC0E0912704F0E0EE0FFF1FAE
:10312000E557FD4F80819181CDDF80932004909100
:103130001F04891718F091509093200481E090911A
:1031400020049C1301C080E0CF91089578941F92D1
:103150000F920FB60F9211242F933F934F935F93CB
:103160006F937F938F939F93AF93BF93EF93FF934F
:1031700080911E04882371F08091D303882351F03D
:1031800080911D04811106C081E080931D041EDF23
:1031900010921D04FF91EF91BF91AF919F918F917C
:1031A0007F916F915F914F913F912F910F900FBE43
:1031B0000F901F90189580E0AEDEE5DE82E08093F0
:1031C000690081E08DBB80931E042CE088E190E0D3
:1031D0000FB6F894A895809360000FBE209360000E
:1031E000C1E0A895B8DAD82F80911F04823080F012
:1031F00082DF882369F0809120048DDE80911D0498
:103200008111FCCFC0931D04BEDE10921D04E9CFD6
:10321000DD2339F3F3CF1F93CF93DF9380E790E063
:103220000E9411278093280481E790E00E941127D3
:103230008093270482E790E00E941127182F809343
:103240001F0483E790E00E941E27EC019093260460
:103250008093250485E790E00E941E279093240424
:1032600080932304193018F028E020931F048C1B4E
:103270009D0B60911F0470E006D770932204609349
:103280002104DF91CF911F91089562E080E790E0E3
:103290000E94322765E081E790E00E94322768E0D3
:1032A00082E790E00E94322768EE73E083E790E0C7
:1032B0000E944C2760ED77E085E790E00E944C2764
:1032C000F2CE0895089508950895089520E045EFF9
:1032D00054E0D3CD20E04DEE54E0CFCD20E045EEDC
:1032E00054E0CBCD20E04EED54E0C7CD20E047EDDB
:1032F00054E0C3CD20E048EC54E0BFCD20E04DEBDE
:1033000054E0BBCDFF920F931F93CF93DF93082F11
:10331000F62EC2E7D4E010E0612F6F0D20E0AE0181
:10332000802FABDD1F5F2F961530B1F7DF91CF9166
:103330001F910F91FF90089520E04BE654E09DCD42
:1033400020E044E654E099CD20E043E554E095CDFB
:1033500020E04BE454E091CD20E048EB52E08DCDED
:1033600020E047E354E089CD6091650270916602E8
:1033700080916702909168020E94FF217F936F9372
:1033800088E496E09F938F931F9288E08F9385EF58
:1033900094E09F938F930E9475261092FC048DB742
:1033A0009EB708960FB6F8949EBF0FBE8DBF0895C6
:1033B0008091B5029091B6026CE370E064D69F9361
:1033C0008F937F936F9380E396E09F938F931F92E9
:1033D00088E08F9385EE94E09F938F930E947526EB
:1033E0001092EC048DB79EB70A960FB6F8949EBF64
:1033F0000FBE8DBF08956091AD027091AE028091B5
:10340000AF029091B002FBD77F936F938BE296E06F
:103410009F938F931F9287E08F938EED94E09F93FD
:103420008F930E9475261092E4048DB79EB708967C
:103430000FB6F8949EBF0FBE8DBF08956091A9028C
:103440007091AA028091AB029091AC02D8D77F9381
:103450006F9386E296E09F938F931F9287E08F93FE
:1034600087ED94E09F938F930E9475261092DD0460
:103470008DB79EB708960FB6F8949EBF0FBE8DBF4E
:10348000089520917802822F992787FD90959F9328
:103490002F9383E296E09F938F931F9284E08F9304
:1034A00083ED94E09F938F930E9475261092D6042B
:1034B0008DB79EB708960FB6F8949EBF0FBE8DBF0E
:1034C000089580918A028F93809189028F938091D1
:1034D00088028F93809187028F9384E196E09F9377
:1034E0008F931F928BE08F9388EC94E09F938F9340
:1034F0000E9475261092D2048DB79EB70A960FB619
:10350000F8949EBF0FBE8DBF0895809186028F9361
:10351000809185028F93809184028F9380918302A2
:103520008F938CE096E09F938F931F928BE08F9305
:103530008DEB94E09F938F930E9475261092C704A1
:103540008DB79EB70A960FB6F8949EBF0FBE8DBF7B
:1035500008952091A202822F992787FD90959F932D
:103560002F9386E096E09F938F931F9287E08F932F
:103570008BE694E09F938F930E94752610927104BE
:103580008DB79EB708960FB6F8949EBF0FBE8DBF3D
:10359000089526E636E646E650E4609161027091B1
:1035A000620280916302909164020E944B2327D7AC
:1035B0007F936F9381E096E09F938F931F9287E0B4
:1035C0008F9384E694E09F938F930E9475261092C8
:1035D0006A048DB79EB708960FB6F8949EBF0FBECB
:1035E0008DBF0895809156028F93809155028F93DD
:1035F000809154028F93809153028F9384EF95E0D2
:103600009F938F931F9288E08F9383E594E09F931D
:103610008F930E94752610925A048DB79EB70A9612
:103620000FB6F8949EBF0FBE8DBF089560914F02F4
:10363000709150028091510290915202E5D67F9391
:103640006F938FEE95E09F938F931F9288E08F93F7
:103650008BE494E09F938F930E94752610925204FE
:103660008DB79EB708960FB6F8949EBF0FBE8DBF5C
:103670000895809170028F9380916F028F93809153
:103680006E028F9380916D028F9382ED95E09F93F0
:103690008F931F9289E08F9387E394E09F938F939A
:1036A0000E94752610923F048DB79EB70A960FB6FA
:1036B000F8949EBF0FBE8DBF08950F931F93CF93B5
:1036C000DF93C0916902D0916A0210916B02009160
:1036D0006C0220E030E040E251E4F8016C2F7D2FD5
:1036E0008F2F9E2FD8D70E94AE2389D6643154F4F1
:1036F0006A3054F467FF0AC06D3E54F0673F54F4DB
:1037000084E009C088E007C087E005C086E003C008
:1037100085E001C083E00F931F93DF93CF931F9247
:103720008F9380E496E09F938F931F9288E08F930E
:103730008DEE94E09F938F930E9475261092F4046F
:103740008DB79EB70C960FB6F8949EBF0FBE8DBF77
:10375000DF91CF911F910F91089580915A028F931D
:10376000809159028F93809158028F9380915702D4
:103770008F938BEF95E09F938F931F9287E08F93AA
:103780008DE594E09F938F930E94752610926304B9
:103790006091490270E080E090E064D620E030E083
:1037A00040EA51E4C4D5DAD72FD66C5060935C045C
:1037B0008DB79EB70A960FB6F8949EBF0FBE8DBF09
:1037C00080914402882311F082E001C080E0809360
:1037D0005B040895CF93C091A4026C2F70E080E049
:1037E00090E040D620E030E040EA51E4A0D5B6D7E2
:1037F0000BD6611105C061E0C11105C060E003C0D6
:10380000663008F065E0E62FF0E0EE0FFF1FED5B9D
:10381000F84F859194919093360480933504CF911D
:10382000089560915F027091600294E0660F771FC7
:103830009A95E1F780E090E013D620E030E044EB89
:1038400053E475D58BD720E030E040EA50E4A1D4B2
:10385000D6D59B0177FF02C0205F3F4FA9E2B4E0BD
:10386000F901E459F84FE491ED932F5F3F4F203178
:10387000310514F020E030E084E0A433B80781F78C
:10388000109234040895409135045091360420E09C
:1038900015CBCF93DF93C82FD62F20915B04409197
:1038A0005C0497DA20E04DE554E06D2F81E08C0F49
:1038B000DF91CF91E2CACF93DF93C82FD62F20910B
:1038C000410442E186DA2091420443E454E06D2F42
:1038D00081E08C0FDF91CF91D0CACF93DF93C82FB7
:1038E000D62F20E046EC85E08C0F73DA61E06D0F97
:1038F00020E049E254E08C2FDF91CF91BECA809145
:1039000042028230B1F460913C0270913D0280E04D
:1039100090E0A6D520E030E044EB53E408D520E069
:1039200030E040E851E4B7D66FD5660F605760933A
:1039300040040895CF92DF92EF92FF9220914202CD
:1039400081E0211180E08093420491E0223009F46B
:1039500090E0909341049923F9F0882319F08BEEBD
:1039600095E002C086EE95E09F938F9383EE95E0FD
:103970009F938F931F9288E08F9383E494E09F93AB
:103980008F930E9475268DB79EB708960FB6F89450
:103990009EBF0FBE8DBF4CC0C0903E02D0903F0274
:1039A000E0904002F090410220E030E44CE156E427
:1039B000C701B60165D687FD21C020E030E04AE7A7
:1039C00054E4C701B601B3D49F938F937F936F9351
:1039D0008DED95E09F938F931F9288E08F9383E402
:1039E00094E09F938F930E9475268DB79EB70A9699
:1039F0000FB6F8949EBF0FBE8DBF1AC0C701B601A7
:103A000003D57F936F9389ED95E09F938F931F92DA
:103A100088E08F9383E494E09F938F930E947526B0
:103A20008DB79EB708960FB6F8949EBF0FBE8DBF98
:103A3000FF90EF90DF90CF9008951F93CF93DF9387
:103A4000182FC62FD1E0809177028111D0E02D2F61
:103A500040E256E06C2F812F31DA80917702D1114C
:103A600004C0823020F422E003C021E001C020E045
:103A7000833010F441E001C042E06C2F82E0810FFE
:103A8000A8D983E0810FDD2341F021E04CE156E02D
:103A90006C2FDF91CF911F9111CA20E043ED54E0CC
:103AA0006C2FDF91CF911F91E8C990914302992328
:103AB00019F022E044EB8DC90895CF93DF93C82F0E
:103AC000D62F80914202823079F420E04091400468
:103AD0008C2F7FD9409140044F5F20E06D2F81E013
:103AE0008C0FDF91CF9175C9DF91CF9108952F92FF
:103AF0003F924F925F926F927F928F929F92AF927E
:103B0000BF92CF92DF92EF92FF920F931F93CF93CA
:103B1000DF93CDB7DEB72B970FB6F894DEBF0FBE9D
:103B2000CDBF482E362EF42E522ECDB6DEB621E075
:103B3000241708F068C0251508F065C0BB24BA94A6
:103B4000B40E3FEF350D3987002319F06DE476E0B0
:103B500002C065E576E048E050E0CE010196E2D78C
:103B60008F2D90E09C012F5F3F4F4DB75EB7421BFA
:103B7000530B0FB6F8945EBF0FBE4DBF0DB71EB707
:103B80000F5F1F4F212CF801EB0DF11D5F014C0160
:103B9000F2E08F1A910838012FEF621A720AA80119
:103BA000480F591F5B874A87211008C08981F80197
:103BB00080838B81F50180836A8112C0398523124D
:103BC00008C08D81F80180838F81F50180836E812B
:103BD00007C08C81F80180838885F501808360E2CD
:103BE000F2E0FF1621F070E0A401C301D5D7EA8509
:103BF000FB851082622D630D2E2DA801842D3DD9E9
:103C000023942510D1CF0FB6F894DEBE0FBECDBEE3
:103C10000FB6F894DEBE0FBECDBE2B960FB6F8944D
:103C2000DEBF0FBECDBFDF91CF911F910F91FF90EF
:103C3000EF90DF90CF90BF90AF909F908F907F904C
:103C40006F905F904F903F902F900895EF920F9359
:103C5000CF93DF93C82FD62FE12C00E023E046E07E
:103C600046DF4091B2025091B3024115510511F463
:103C70004BE356E061E06D0F20E081E08C0FDF91B7
:103C8000CF910F91EF901AC9EF920F931F93CF939B
:103C9000DF93D82F162FC091B10281E0C827EC2EF8
:103CA00001E023E043E08D2F22DF61E0610F2C2F44
:103CB00040EE81E08D0FDF91CF911F910F91EF903A
:103CC00088C8EF920F931F93CF93DF93D82F162FAF
:103CD000C1E08091B702823009F4C0E0EC2E01E02F
:103CE00023E043E0612F8D2F02DF61E0610F2C2F75
:103CF00041EE81E08D0FDF91CF911F910F91EF90F9
:103D000068C825E33AEF4EE85CE3C5C42F923F92C2
:103D10004F925F926F927F928F929F92AF92BF92DB
:103D2000CF92DF92EF92FF920F931F93CF93DF9387
:103D3000C0E8D4E010E06CEB76E04EE050E0CE015D
:103D40000E97F0D618821F5F153049F0123019F027
:103D50006CEB76E002C06DEA76E02F96EECF6091D4
:103D6000A9027091AA028091AB029091AC02C9DFC6
:103D70005AD520E030E044E352E48DD440D32B0107
:103D80006091AD027091AE028091AF029091B0024D
:103D9000B8DF49D56B017C0101E010E0CEEBDFEF2D
:103DA000662457FC6094762C3EEE232E33243A94FE
:103DB000BE01882777FD8095982F54D39B01AC01D5
:103DC000C701B60168D44B015C01C301B2014AD3FB
:103DD0009B01AC01C501B401DDD120E030E044E33A
:103DE00052E4D8D10CD38FEF860F8935B8F5262F42
:103DF000332727FD3095C9010197B10158D16B5F79
:103E0000862F90E042E1649F200D311D11242B5537
:103E1000310937FF02C02F5F3F4FA90155954795E4
:103E2000483079F49C01225031096FE0629FF00123
:103E3000639FF00D1124E00FF11FEE58FB4F2EE0B1
:103E4000208301976FE0689FF001699FF00D1124B6
:103E5000E00FF11FEE58FB4F4A5E40832C960F5F38
:103E60001F4FCE34D10509F0A3CFDF91CF911F9121
:103E70000F91FF90EF90DF90CF90BF90AF909F9009
:103E80008F907F906F905F904F903F902F9008950C
:103E9000AF92BF92CF92DF92EF92FF920F931F9358
:103EA000CF93DF938C01C62F5A010E94B6156B0188
:103EB0007C01CA0CDB1CE11CF11CB12CD0E0219769
:103EC0000E94B6156C157D058E059F0518F40E949D
:103ED000181502C080E090E09C012227232B81F777
:103EE0002B2D30E08D30910519F02C173D0711F482
:103EF00080E090E0B394F801E20FF31F8083892BF8
:103F0000F9F6DF91CF911F910F91FF90EF90DF9025
:103F1000CF90BF90AF900895EF920F931F93CF93E0
:103F2000DF93CDB7DEB728970FB6F894DEBF0FBE8C
:103F3000CDBF0E94DC1641E061E081E00E940F17D6
:103F40001F9287E08F938CE498E09F938F938EEB82
:103F500093E09F938F937ED60F900F900F900F90CA
:103F60000F900F9011E08091D10320E0181738F4E2
:103F70004AE162E0812F0E94E9161F5FF4CF48E416
:103F800058E061E083500E945E1720E04DE358E066
:103F900064E082E00E945E1710E0009116011017A5
:103FA00080F488E0189FF0011124E65EFA4F4591F5
:103FB000549164E0610F20E08DE00E945E171F5F66
:103FC000EECF6091D0036350E12C00E023E04AE1A2
:103FD00082E08DDD6091D003625040E083E00E947A
:103FE0000F171F9288E08F9383E298E09F938F933F
:103FF0008EEB93E09F938F932DD68BE198E00E94F8
:104000005B1540E45FE168E0CE01019641DF48E0E6
:1040100050E064E178E0CE010196A5D521E00F9053
:104020000F900F900F900F900F90892B09F020E0C8
:10403000822F28960FB6F894DEBF0FBECDBFDF915A
:10404000CF911F910F91EF9008950E9476150E94D5
:1040500081170E94BA1319D962E575E580E090E0F6
:104060002DD767E070E082E090E028C780E090E024
:10407000E5D68235954529F482E090E0DFD60797B2
:1040800009F0E3CF0895AA1BBB1B51E107C0AA1F8B
:10409000BB1FA617B70710F0A61BB70B881F991FE9
:1040A0005A95A9F780959095BC01CD01089597FB8D
:1040B000072E16F4009406D077FD08D0E4DF07FC45
:1040C00005D03EF4909581959F4F08957095619528
:1040D0007F4F0895A1E21A2EAA1BBB1BFD010DC044
:1040E000AA1FBB1FEE1FFF1FA217B307E407F507A8
:1040F00020F0A21BB30BE40BF50B661F771F881F84
:10410000991F1A9469F760957095809590959B0119
:10411000AC01BD01CF010895EE0FFF1F0590F49192
:10412000E02D09942F923F924F925F926F927F926F
:104130008F929F92AF92BF92CF92DF92EF92FF92B7
:104140000F931F93CF93DF93CDB7DEB7CA1BDB0B63
:104150000FB6F894DEBF0FBECDBF09942A88398808
:1041600048885F846E847D848C849B84AA84B9840F
:10417000C884DF80EE80FD800C811B81AA81B9811B
:10418000CE0FD11D0FB6F894DEBF0FBECDBFED012F
:1041900008955058BB27AA270ED027C2F0D130F07F
:1041A000F5D120F031F49F3F11F41EF4C0C10EF49C
:1041B000E095E7FBB6C1E92F3AD280F3BA17620760
:1041C00073078407950718F071F49EF552C20EF438
:1041D000E0950B2EBA2FA02D0B01B90190010C0117
:1041E000CA01A0011124FF27591B99F0593F50F42F
:1041F000503E68F11A16F040A22F232F342F442787
:10420000585FF3CF469537952795A795F04053957E
:10421000C9F77EF41F16BA0B620B730B840BBAF04E
:104220009150A1F0FF0FBB1F661F771F881FC2F7B9
:104230000EC0BA0F621F731F841F48F487957795CD
:104240006795B795F7959E3F08F0B3CF9395880F84
:1042500008F09927EE0F97958795089590D158F01B
:1042600080E891E009F49EEF91D128F040E851E018
:1042700059F45EEF09C05BC1FCC1E92FE078D7D1EA
:1042800068F3092E052AC1F326173707480759078F
:1042900038F00E2E07F8E02569F0E025E0640AC04A
:1042A000EF6307F8009407FADB01B9019D01DC0117
:1042B000CA01AD01EF934AD098D10AD05F9155233E
:1042C00031F02BED3FE049E450FD49EC63CF089518
:1042D000DF93DD27B92FBF7740E85FE31616170697
:1042E00048075B0710F4D92FCFD19F938F937F930B
:1042F0006F9396D2EAE8F0E01DD177D12F913F91EC
:104300004F915F91D4D1DD2349F09058A2EA2AED74
:104310003FE049EC5FE3D0785D274DDFDF9165C179
:10432000DCD008F481E0089539D1E3956FC10CD059
:104330005CC12CD140F023D130F021F45F3F19F063
:10434000F0C0511197C1F3C072D198F39923C9F30A
:104350005523B1F3951B550BBB27AA27621773078B
:10436000840738F09F5F5F4F220F331F441FAA1F3F
:10437000A9F333D00E2E3AF0E0E830D091505040FF
:10438000E695001CCAF729D0FE2F27D0660F771FAD
:10439000881FBB1F261737074807AB07B0E809F08F
:1043A000BB0B802DBF01FF2793585F4F2AF09E3F24
:1043B000510568F0B6C05EC15F3FECF3983EDCF398
:1043C000869577956795B795F7959F5FC9F7880F9D
:1043D000911D9695879597F90895E1E0660F771FEF
:1043E000881FBB1F621773078407BA0720F0621B80
:1043F000730B840BBA0BEE1F88F7E095089504D079
:104400006894B11137C108951AD188F09F5790F080
:10441000B92F9927B751A0F0D1F0660F771F881FE9
:10442000991F1AF0BA95C9F712C0B13081F021D1A5
:10443000B1E008951EC1672F782F8827B85F39F043
:10444000B93FCCF3869577956795B395D9F73EF448
:1044500090958095709561957F4F8F4F9F4F0895F0
:10446000E89409C097FB3EF490958095709561950E
:104470007F4F8F4F9F4F9923A9F0F92F96E9BB27C4
:104480009395F695879577956795B795F111F8CF40
:10449000FAF4BB0F11F460FF1BC06F5F7F4F8F4FAB
:1044A0009F4F16C0882311F096E911C0772321F0A1
:1044B0009EE8872F762F05C0662371F096E8862F39
:1044C00070E060E02AF09A95660F771F881FDAF790
:1044D000880F9695879597F90895990F0008550FBD
:1044E000AA0BE0E8FEEF16161706E807F907C0F07A
:1044F00012161306E407F50798F0621B730B840B82
:10450000950B39F40A2661F0232B242B252B21F45B
:1045100008950A2609F4A140A6958FEF811D811DFB
:10452000089597F99F6780E870E060E008959FEF35
:1045300080EC0895DF93CF931F930F93FF92EF9238
:10454000DF927B018C01689405C0DA2EEF01AFD0B9
:10455000FE01E894A5912591359145915591AEF3D1
:10456000EF0129DEFE019701A801DA9479F7DF90C7
:10457000EF90FF900F911F91CF91DF91089500244C
:104580000A941616170618060906089500240A94B8
:1045900012161306140605060895C9CF50D0E8F385
:1045A000E894E0E0BB279F57F0F02AED3FE049ECAC
:1045B00006C0EE0FBB0F661F771F881F28F0B23AA8
:1045C00062077307840728F0B25A620B730B840BDF
:1045D000E3959A9572F7803830F49A95BB0F661F71
:1045E000771F881FD2F790485BC1092E0394000CF7
:1045F00011F4882352F0BB0F40F4BF2B11F460FF7D
:1046000004C06F5F7F4F8F4F9F4F0895EF93E0FF80
:1046100006C0A2EA2AED3FE049EC5FEBCCDDE5DF26
:104620000F90039401FC9058E7EBF0E04CC157FD6C
:104630009058440F551F59F05F3F71F04795880F10
:1046400097FB991F61F09F3F79F0879508951216A7
:1046500013061406551FF2CF4695F1DF08C0161653
:1046600017061806991FF1CF869571056105089404
:104670000895E894BB2766277727CB0197F908951B
:104680002CDF08F48FEF08959B01AC0160E070E02F
:1046900080E89FE34CCE0BD0A8CF71DF28F076DF07
:1046A00018F0952309F03DCF42CF1124E3CFBFDFAF
:1046B000A0F3959FD1F3950F50E0551F629FF00135
:1046C000729FBB27F00DB11D639FAA27F00DB11D8E
:1046D000AA1F649F6627B00DA11D661F829F222717
:1046E000B00DA11D621F739FB00DA11D621F839F9E
:1046F000A00D611D221F749F3327A00D611D231F74
:10470000849F600D211D822F762F6A2F11249F57C1
:1047100050408AF0E1F088234AF0EE0FFF1FBB1FE4
:10472000661F771F881F91505040A9F79E3F510583
:1047300070F0F7CE9FCF5F3FECF3983EDCF38695A9
:1047400077956795B795F795E7959F5FC1F7FE2B2E
:10475000880F911D9695879597F9089570DFE0F081
:104760009E37D8F09639B8F49E3848F4672F782FE2
:104770008827985FF9CF86957795679593959539B2
:10478000D0F3B62FB1706B0F711D811D20F487958A
:1047900077956795939567C081C06CCF11F40EF43F
:1047A000C6CE7CC04CDFD0F39923D9F3CEF39F570C
:1047B000550B87FF81D00024A0E640EA9001805885
:1047C0005695979528F4805C660F771F881F20F018
:1047D00026173707480730F4621B730B840B202918
:1047E00031294A2BA69517940794202531254A276D
:1047F00058F7660F771F881F20F0261737074807DE
:1048000030F4620B730B840B200D311D411DA095FC
:1048100081F7B901842F9158880F9695879508954F
:104820009B01AC0138CFDF93D92FB8DEE695D79541
:104830002AED3FE049E45FE3B33A62077307840778
:104840009507D7952AF0A2EA49EC9068B4DCCDDE52
:10485000E5EDF0E038D0DD0F0BF016DFDD0F0BF4E7
:104860009058DF910895882371F4772321F09850B0
:10487000872B762F07C0662311F499270DC090511E
:10488000862B70E060E02AF09A95660F771F881FEC
:10489000DAF7880F9695879597F908959F3F31F03D
:1048A000915020F4879577956795B795880F911D5E
:1048B0009695879597F9089591505040660F771F08
:1048C000881FD2F708959F938F937F936F93FF93E1
:1048D000EF939B01AC01DFDEEF91FF912BDE2F9177
:1048E0003F914F915F91D7CE66277727EAC2FC01AF
:1048F00088279927E89421912032E9F3293010F094
:104900002E30C8F32B3239F02D3231F4689403C0C5
:1049100078D1820F911D219120532A30C8F31EF4C3
:10492000909581959F4F08951F93FC0199278827A3
:10493000BC01E89411911032E9F3193010F01E30E7
:10494000C8F31B3249F01D3241F4689405C044D1CC
:10495000610F711D811D911D119110531A30B8F313
:104960003EF490958095709561957F4F8F4F9F4F46
:104970001F910895283008F027E03327DA01990FB6
:10498000311D87FD916000966105710539F4326033
:104990002E5F3D9330E32A95E1F708959F3F30F075
:1049A00080387105610509F03C5F3C5F3D939130B3
:1049B00008F08068911DDF93CF931F930F93FF92B0
:1049C000EF92192F987F9695E92F96959695E90F76
:1049D000FF27EA54F74F99273327EE24FF24A70136
:1049E000E70105900894079428F4360FE71EF81E97
:1049F000491F511D660F771F881F991F0694A1F745
:104A00000590079428F4E70EF81E491F561FC11D94
:104A1000770F881F991F661F0694A1F705900794CA
:104A200028F4F80E491F561FC71FD11D880F991F64
:104A3000661F771F0694A1F70590079420F4490F8D
:104A4000561FC71FD81F990F661F771F881F069410
:104A5000A9F784911095177041F0D695C795579591
:104A60004795F794E7941A95C1F7ECE5F8E0689458
:104A70001590159135916591959105907FE273950B
:104A8000E118F10A430B560BC90BD009C0F7E10C32
:104A9000F11E431F561FC91FD01D7EF4703311F441
:104AA0008A95E6CFE894015030F0080F0AF4002709
:104AB000021708F4202F2395022F7A3328F079E388
:104AC0007D932A95E9F710C07D932A9589F606947F
:104AD00097956795379517951794E118F10A430B49
:104AE000560BC90BD00998F023957E9173957A33B4
:104AF00008F070E37C932013B8F77E9170617D938A
:104B000030F0839571E37D9370E32A95E1F71124EA
:104B1000EF90FF900F911F91CF91DF91992787FD23
:104B200090950895FB01DC0102C005900D92415063
:104B30005040D8F70895FB01DC014150504088F007
:104B40008D9181341CF08B350CF4805E659161345D
:104B50001CF06B350CF4605E861B611171F3990BD0
:104B60000895881BFCCFFB01DC014150504030F020
:104B70008D910590801919F40020B9F7881B990BC5
:104B80000895FC010590615070400110D8F78095A0
:104B900090958E0F9F1F0895DC0101C06D934150C9
:104BA0005040E0F70895FC01615070400190011001
:104BB000D8F7809590958E0F9F1F0895BB272A30B8
:104BC00051F4992342F4BDE29095809570956195DA
:104BD0007F4F8F4F9F4F1EC0592F482F372F262FA3
:104BE000660F771F881F991F660F771F881F991FF1
:104BF000620F731F841F951F660F771F881F991FF1
:104C000008957AE0979F902D879F802D910D112414
:104C10000895BB27FA01A62F62177105810591053A
:104C2000330B30FB66F0AA27660F771F881F991F8A
:104C3000AA1FA21710F0A21B63953850A9F7A05D18
:104C4000AA3308F0A95DA19336F7B111B193108290
:104C5000CA0198C2A0E0B0E0EFE2F6E271CA0F81AB
:104C60001885F801838188608383AE01455F5F4FBB
:104C700069857A85C8010E94F304F8012381277FA2
:104C80002383E4E079CA0F931F93CF93DF93182F08
:104C9000092FEB018B8181FD03C08FEF9FEF20C0B7
:104CA00082FF10C04E815F812C813D8142175307E6
:104CB0007CF4E881F9819F012F5F3F4F398328837E
:104CC000108306C0E885F985812F0995892B29F77E
:104CD0002E813F812F5F3F4F3F832E83812F902F67
:104CE000DF91CF911F910F910895AEE0B0E0EAE718
:104CF000F6E226CA0D891E898F89988D2EE02C83B5
:104D00001A83098397FF02C080E090E801979E8391
:104D10008D83AE01455E5F4F698D7A8DCE01019620
:104D20000E94F3044D815E8157FD0AC02F813885B2
:104D3000421753070CF49A01F801E20FF31F108297
:104D40002E96E4E019CAFA01AA27283051F1203141
:104D500081F1E8946F936E7F6E5F7F4F8F4F9F4F0F
:104D6000AF4FB1E03ED0B4E03CD0670F781F891F51
:104D70009A1FA11D680F791F8A1F911DA11D6A0F1F
:104D8000711D811D911DA11D20D009F468943F91D2
:104D90002AE0269F11243019305D3193DEF6CF01D1
:104DA0000895462F4770405D4193B3E00FD0C9F797
:104DB000F6CF462F4F70405D4A3318F0495D31FD04
:104DC0004052419302D0A9F7EACFB4E0A695979557
:104DD000879577956795BA95C9F70097610571052D
:104DE00008959B01AC010A2E069457954795379577
:104DF0002795BA95C9F7620F731F841F951FA01DD1
:104E00000895DC01CB01FC01F999FECF06C0F2BD8B
:104E1000E1BDF89A319600B40D9241505040B8F778
:104E20000895F999FECF92BD81BDF89A992780B572
:104E30000895A6E1B0E044E050E0E5CFA8E1B0E09D
:104E400042E050E0E0CFDC01A40FB51F41505040DC
:104E500040F0CB01840F951F2E9105D0415050405A
:104E6000D8F70895262FF999FECF92BD81BDF89A03
:104E7000019700B4021639F01FBA20BD0FB6F8949E
:104E8000FA9AF99A0FBE08950396272FECDFEADF0E
:104E9000252FE9DF242FE7CF0196272FE4DFE2CF8C
:104EA000262FF999FECF1FBA92BD81BD20BD0FB646
:104EB000F894FA9AF99A0FBE01960895F1DF272F18
:104EC000F0CFA0E0B0E0E6E6F7E232C98B01611571
:104ED000710521F0DB018C9311969C93EC015E012E
:104EE000BFEFAB1ABB0A7501C8808C2D90E042D190
:104EF000892B11F0E501F3CFEDE2CE1208C07E015F
:104F0000F2E0EF0EF11CC980DD24D39409C02BE23E
:104F1000C21205C07E0142E0E40EF11CC980D12C12
:104F2000E701219743E050E06EE579E0CE0103DE32
:104F3000892BB9F4239645E050E069E579E0CE018C
:104F4000FADD892B09F425960115110519F0D80110
:104F5000CD93DC93D11000C160E070E080E89FE762
:104F600004C143E050E066E579E0CE01E4DD892B41
:104F700059F40115110509F4F4C0B2E0EB0EF11C6F
:104F8000F801F182E082EDC0F70160E070E0CB0152
:104F9000C0E0D0E07F01A0EDAA2EAC0C29E02A15DC
:104FA00028F14D2D4260B42E2D2D2870D2FE04C064
:104FB000211124C0219622C021112197A5E0B0E043
:104FC0009B01AC01F2D0660F771F881F991F6A0DF5
:104FD000711D811D911D6839A9E97A078A07A9E128
:104FE0009A0760F0BD2DB660BB2E08C02EEFA2124E
:104FF0000AC0D3FC50C04D2D4860B42E3196D70165
:10500000CC90DB2CC7CF2C2D2F7D253409F043C04D
:10501000A081AD3241F4BD2DB061DB2E7F0122E0D5
:10502000E20EF11C0CC07F01AB3231F04FEFE41AFD
:10503000F40A21E030E006C0A2E0EA0EF11CA181F2
:1050400022E030E0A053AA3018F0E21AF30A23C09D
:10505000F70120E030E02038BCE03B075CF4A90118
:10506000440F551F440F551F240F351F220F331FA8
:105070002A0F311DAF014F5F5F4F7A01A081A0530E
:10508000AA3010F4FA01E7CFD4FE03C03195219580
:105090003109C20FD31FD1FE09C00115110531F02E
:1050A000E1E0EE1AF108D801ED92FC92D9D92D2D4C
:1050B0002370233019F04B015C0106C04B015C01E9
:1050C000B7FAB094B7F8B09420E030E0A901C50178
:1050D000B40126D9882309F43CC0D7FF06C0D19576
:1050E000C195D10905E719E002C00DE819E0680192
:1050F000B8E1CB1AD10890E2E92EF12CCE15DF05EC
:105100006CF0F8012591359145915491C501B40198
:10511000C2DA4B015C01CE19DF09F0CF045011094E
:10512000F594E7940C151D0549F78A2D880F8B2DF2
:10513000881F8F3F41F020E030E0A901C501B40194
:10514000EFD8811106C082E290E09093FE04809334
:10515000FD04C501B40109C060E070E080E89FEF84
:1051600004C060E070E080EC9FE7CDB7DEB7ECE014
:105170000C94B420911116C0803219F089508550DA
:10518000D0F70895DC01FC01672F71917723E1F7D7
:10519000329704C07C916D9370836291AE17BF0704
:1051A000C8F3089599278827089509D0A59F900DE1
:1051B000B49F900DA49F800D911D11240895A29F6E
:1051C000B001B39FC001A39F700D811D1124911DDB
:1051D000B29F700D811D1124911D0895F894FFCF89
:1051E0000000604066668640CDCC6C40CDCC4C4023
:0851F0002D2D2D2D2D000118BD
:00000001FF
